:10000000000001201902000001020000D5360000A6
:1000100005020000070200000902000000000000C5
:100020000000000000000000000000000B020000C3
:100030000D020000000000000F020000110200008D
:100040001302000013020000FD1C000061200000EC
:100050001302000013020000B11B00001302000095
:10006000130200001302000013020000130200003C
:10007000130200001302000013020000130200002C
:1000800013020000C136000013020000130200003A
:10009000130200001302000013020000130200000C
:1000A00013020000130200001302000013020000FC
:1000B0001302000013020000000000000000000016
:1000C00013020000130200001302000013020000DC
:1000D00013020000130200001302000000000000E1
:1000E0000000000000000000000000000000000010
:1000F0000000000000000000000000000000000000
:1001000000000000000000000000000000000000EF
:1001100000000000000000000000000000000000DF
:1001200000000000000000000000000000000000CF
:1001300000000000000000000000000000000000BF
:1001400000000000000000000000000000000000AF
:10015000000000000000000000000000000000009F
:10016000000000000000000000000000000000008F
:10017000000000000000000000000000000000007F
:10018000000000000000000000000000000000006F
:10019000000000000000000000000000000000005F
:1001A000000000000000000000000000000000004F
:1001B000000000000000000000000000000000003F
:1001C000000000000000000000000000000000002F
:1001D000000000000000000000000000000000001F
:1001E000000000000000000000000000000000000F
:1001F00000000000000000000000000000000000FF
:10020000FEE7FEE7FEE7FEE7FEE7FEE7FEE7FEE7C6
:10021000FEE7FEE700F002B8FFF7FCBF0F484FF023
:100220000701884385460E4880470E48016841F41F
:1002300070010160BFF34F8FBFF36F8F00F01AB8EA
:1002400009480A490A4A884207D0521A05D0037859
:1002500001300B700131013AF9D1704700000120E3
:10026000B50D000088ED00E0C06C0000000000202B
:1002700000000020344935480A1A02D00722914371
:100280008D46334933480A1A06D00722914381F339
:100290000988022282F314882F483049304A00F03E
:1002A00041F830483049314A00F03CF83048314993
:1002B000314A00F037F831483149324A00F032F81B
:1002C00031483249324A00F02DF832483249334A37
:1002D00000F028F832483349334A00F023F8334815
:1002E0003349002200F029F832483349002200F057
:1002F00024F832483249091A06F07AFC314A90470C
:100300001F482049884205D00268043003B4904752
:1003100003BCF7E700208646EC46002000212A4A6D
:100320009047FEE7884207D0521A05D00378013083
:100330000B700131013AF9D17047884202D0027046
:100340000130FAE7704700000000012000E00020C3
:1003500000000120000001207C920000000000202D
:10036000E8040020CC030000CC030000046C000073
:100370007C9200000000002000000020C06C000003
:10038000C06C0000C06C0000C06C0000C06C0000BD
:10039000C06C0000C06C0000C06C00007C920000CB
:1003A00064970000E8040020E8040020E80400202E
:1003B000C8240020C8240020C8240020C82400200D
:0C03C000C844002041020000950A000023
:1003CC0037B50024032500F0F1FFCDE900450123EA
:1003DC0049221821062001F01FF918210846CDE901
:1003EC0000450123442201F017F9CDE90045012312
:1003FC004C2218212A2001F00FF9CDE900450123E8
:10040C00452218213C2001F007F903B0BDE830402B
:10041C0000F07EBF2DE9F04385B0012500F0C6FF4A
:10042C00002406212B460846CDE90045432201F065
:10043C00F3F82B46CDE900456F2206210C2001F084
:10044C00EBF82B46CDE9004575220621122001F070
:10045C00E3F82B46CDE900456E220621182001F069
:10046C00DBF82B46CDE90045742206211E2001F055
:10047C00D3F8104B104A5B68052102A806F079F8F6
:10048C0002AD074618264FF00308A146A74204DC2C
:10049C0000F03EFF05B0BDE8F083CDE9009830B226
:1004AC0015F8012B01231821123601F0B5F801348F
:1004BC00B6B2EBE7B00500205D6D000010B5044648
:1004CC00084805F0ACFD2378012B05D1FFF7A2FFFE
:1004DC00054B02221A7010BD032BFCD1BDE8104055
:1004EC00FFF76EBFC06C0000C405002073B50E464C
:1004FC0005460146434806F09EF8012E7FD1424C3A
:10050C002378002B6BD0142D21D01A2D10D00F2D49
:10051C0075D163683D480133636005F080FD616807
:10052C003B4806F088F802B0BDE87040FFF772BF98
:10053C00384805F074FD616829B9374802B0BDE848
:10054C00704005F06CBD013934486160E9E734480E
:10055C0005F065FD4FF0A04300254FF000422570DB
:10056C0065602572C4F80950C4F80D50A4F81150F8
:10057C000324C3F80C2500F019FF3346442218213C
:10058C000620CDE9005401F047F8182108463346FF
:10059C004F22CDE9005401F03FF833464E2218218A
:1005AC002A20CDE9005401F037F8452218213C20CF
:1005BC003346CDE9005401F02FF800F0A9FE194A9A
:1005CC00194814704FF4004102F020FEB8B1174ADC
:1005DC0040F25A2102B0BDE8704002F0DDBC144874
:1005EC0005F01DFD134B14481449C01AC008000433
:1005FC0040F0030002B0BDE8704004F093B802B0C4
:10060C0070BD00BFD56C0000B0050020006D00006F
:10061C000B6D0000216D00002E6D00004B6D000075
:10062C00606D0000C4050020200000206F6D0000EC
:10063C00F66D0000046C0000346C0000156E0000B8
:10064C0008B54FF48041002003F0D8FE18B11E4AC3
:10065C00E72102F0A1FC03F01BFE02211B4805F070
:10066C00EAFF1B4840F26662022102F0FBFB20B15C
:10067C00154A40F27F2102F08FFC164805F0CFFCA2
:10068C0002F048FC20B1104A40F2832102F084FCB5
:10069C00114805F0C4FC4FF0A0430322C3F87C279B
:1006AC0002F070FD18B1084AEE2102F075FC0B4AFD
:1006BC000B48002102F098FD28B1BDE80840024A21
:1006CC00F02102F069BC08BD6F6D0000356E0000B2
:1006DC0000000020466E0000626E0000C90400009D
:1006EC00B872000000B5E1B04FF4BA730246019144
:1006FC00029302A901AB03A804F017FA48B1084809
:10070C00084B0949C01AC008000440F0030004F06B
:10071C0009F803A804F018FA61B05DF804FB00BFF7
:10072C00346C0000046C0000756E00000F2AF8B5E4
:10073C000F46144602D804252846F8BDC378072B6B
:10074C0030D1002005F022FC054660B1164B17484D
:10075C001749C01AC008000403230022184303F0F1
:10076C00EEFF0325E8E7BB7BDB0003F110029442AC
:10077C00E1D39B08DEB20424A642DDD907EB840149
:10078C00204605F003FC50B1074B08480849C01A35
:10079C00C0080004E31C224640F00300DFE70434E9
:1007AC00E4B2E9E70625C7E7046C0000346C0000EE
:1007BC009A6E0000014670B5154804F00FFB042832
:1007CC0013D11448144B1549C01AC008000440F04A
:1007DC00030003F0A7FF0E4E304604F0BDFBF46996
:1007EC000025338CAB4209D870BD0028F3D00948E2
:1007FC00094B0B49C01AC0080004E8E72378032B07
:10080C0004D161886068FFF76DFF08340135E8E7B3
:10081C0050000020346C0000046C0000B76E000027
:10082C00F86E000010B506494FF48062FFF77EFFAA
:10083C00044610B90248FFF7BDFF204610BD00BFAB
:10084C00C90F00202DE9F04104F0C6FD024640B16D
:10085C003649374B5B1ADB0836491B0443F003005F
:10086C0019E004F02DFE024630B13049304B5B1AD2
:10087C00DB0831491B04F1E7304E304604F038FEFA
:10088C00044670B12A48294B2D49C01AC0080004EF
:10089C00224640F0030003F049FF03242046BDE844
:1008AC00F0813568DFF8A4800746B388BB4218D8BE
:1008BC00224804F0EDFC356800271435B388BB42A0
:1008CC00ECD915F8023C55F8140C042B00D028B1C7
:1008DC0035F8101C02300239FFF704FF01371435CC
:1008EC00ECE7AB7C042B01D0AB7BCBB9A88904F033
:1008FC00ABFD024630B10D490D4B5B1ADB081149BB
:10090C001B04ABE7FF224146304604F061FE024671
:10091C0030B10649064B5B1ADB080B491B049DE7FB
:10092C001435013708F1FF08BFE700BF046C000065
:10093C00346C0000366F0000716F00001000002056
:10094C009A6F0000C16F0000EC6F0000D30500200F
:10095C00010706D442064FEA501302D403F00300F9
:10096C0070470220704700001FB50F4B0FCB6C4631
:10097C0084E80F00162218230C48CDE9002305F05B
:10098C004EFB002321460A481A4600F0F7FE0446A7
:10099C0030B10146074805F04EFE204604B010BDAC
:1009AC00054801F025FCF8E7807200001570000086
:1009BC004000002024700000440000200148002169
:1009CC0005F0C4B94000002038B51C4C41F2883108
:1009DC00204605F005FA054628B1194805F01FFB1D
:1009EC000525284638BD204605F044F8A078FFF7C9
:1009FC00AFFF28B1012812D0124805F010FBF0E728
:100A0C00114B12481249C01AC008000440F00300F0
:100A1C0003F088FE2046BDE83840FFF703BF0A4BC1
:100A2C000A480C49C01AC008000440F0030003F047
:100A3C0079FE2046BDE83840FFF704BFC50500200D
:100A4C0049700000A1700000046C0000346C0000C0
:100A5C00637000008270000038B505F0C5FA20B153
:100A6C00074A40F22E2102F097FA064D4FF4FA6431
:100A7C0045F001054FF47A40A847013CFAD138BD46
:100A8C006F6D0000B07200002DE9F043A9B0FFF7C4
:100A9C00D7FD9148914C05F0C2FA914B8E49E41A5E
:100AAC00E408240444F00304204603F03BFE03F066
:100ABC00F7FC0028FBD1FFF757FF20B1894A4FF410
:100ACC00447102F069FA8849204603F02BFE03F0CA
:100ADC00E7FC0028FBD1FFF771FF20B1814A4FF4EE
:100AEC00467102F059FA8149204603F01BFE03F0CF
:100AFC00D7FC05460028FAD17D4805F090FA7D48D0
:100B0C0000F0A8FA7C4805F08AFA2A463C2102201B
:100B1C0000F0DCFA794805F082FAFFF751FC7848CE
:100B2C0005F07DFA734803F06FFA20B16D4A40F27C
:100B3C00263102F031FA734E734805F070FA0FCE7D
:100B4C0002AD0FC533682B60079005236F488DF8F5
:100B5C0020108DF89C3005F062FA4FF44C6107A818
:100B6C0003F070FA20B15F4A4FF44C7102F014FAA2
:100B7C006748DFF8D881674F05F051FAFFF724FF7B
:100B8C00062800F29F80DFE800F0049D9D9D898F70
:100B9C009700614805F043FA5F49204603F0C2FD17
:100BAC003D78A5B15D485E4EDFF8A49105F043FD9C
:100BBC0000253B7A9D4203DB5A4805F030FA5FE092
:100BCC0016F8011F484605F036FD0135F1E7564E83
:100BDC0056493560CA787560012304313581304639
:100BEC003B703A727D6005F0A1FB5148DFF86091D3
:100BFC0005F015FA4F4805F01EFD013E3B7A9D426B
:100C0C0045DB484805F00BFA4FF0A0434FF000428B
:100C1C00C3F8082500F0CAFB002503261821084656
:100C2C0001235322CDE9005600F0F6FC0123542297
:100C3C0018212A20CDE9005600F0EEFC01234122B8
:100C4C0018213C20CDE9005600F0E6FC012352228D
:100C5C0018214E20CDE9005600F0DEFC0123542271
:100C6C0018216020CDE9005600F0D6FC00F050FBB6
:100C7C00314A324801234FF40041137002F0C6FA96
:100C8C00FFF7EAFE03F00CFC0028FBD176E716F820
:100C9C00011F484605F0CFFC0135AFE72046284937
:100CAC0003F040FD264888E72046264903F03AFD2C
:100CBC00244805F0B4F9E5E72046234903F032FD5A
:100CCC0021487AE74146204603F02CFD404605F0CA
:100CDC00A6F905F089F9D5E7E4700000346C000042
:100CEC00046C00006F6D0000F770000007710000CD
:100CFC0019710000400000202F71000043710000AA
:100D0C0058710000907200006D7100008B71000032
:100D1C00A8710000B0050020CC710000D271000059
:100D2C00B8050020EF710000B9050020C5050020B2
:100D3C00F1710000FF710000C405002020000020AC
:100D4C0010720000477200005572000068720000BB
:100D5C00E97100004FF08053D3F83001421C04BFFE
:100D6C004FF0704393F8E00F831F5842584170477F
:100D7C004FF0704393F8E02F062A09D1D3F8E83FDF
:100D8C00C3F30313033B042B02D8024AD05C704715
:100D9C0000207047CB720000024AD2F80034002BBE
:100DAC00FBD0704700E0014010B5FFF7D3FF40B116
:100DBC004FF08053944AD3F82433C3F30423C2F87E
:100DCC004035FFF7D5FF10B1904B914A5A67FFF7AA
:100DDC00C1FF48B14FF080534FF08042D3F84432FA
:100DEC00C3F34233C2F83C35FFF7C2FF30B1894A36
:100DFC00D2F8FC3023F08073C2F8FC30FFF7AAFF66
:100E0C0040B14FF080430022C3F80C21C3F81021ED
:100E1C00C3F83825FFF7ACFF20B14FF08043032215
:100E2C00C3F8A025FFF7A4FF60B17B4B0522C3F8E4
:100E3C0010260122C3F888260022C3F818263F2268
:100E4C00C3F814264FF08053D3F83021511C09BF3E
:100E5C004FF07043D3F8343193F8E02FD3F8E83FD8
:100E6C0008BFC3F30313062A4DD1033B042B03D84D
:100E7C006A4AD35C002B46D04FF08052684BD2F8B4
:100E8C000414C3F82015D2F80814C3F82415D2F8AA
:100E9C000C14C3F82815D2F81014C3F82C15D2F87A
:100EAC001414C3F83015D2F81814C3F83415D2F84A
:100EBC001C14C3F84015D2F82014C3F84415D2F80A
:100ECC002414C3F84815D2F82814C3F84C15D2F8DA
:100EDC002C14C3F85015D2F83014C3F85415D2F8AA
:100EEC003414C3F86015D2F83814C3F86415D2F86A
:100EFC003C14C3F86815D2F84014C3F86C15D2F83A
:100F0C004424C3F87025FFF725FF48B14FF08053F8
:100F1C004FF08042D3F8583203F04F03C2F8E43E4E
:100F2C00FFF718FF48B14FF08043D3F80024D207E5
:100F3C0044BF6FF00102C3F800244FF08053D3F884
:100F4C003021062A0ED1D3F83431033B042B02D8BE
:100F5C00344AD35C33B1344AD2F83C3743F480631F
:100F6C00C2F83C372B4AD2F8883043F47003C2F8ED
:100F7C008830BFF34F8FBFF36F8F4FF08053D3F890
:100F8C003021062A0FD1D3F83431033B042B02D87D
:100F9C00264AD35C3BB14FF01023D3F808224FF014
:100FAC008043C3F858254FF01023D3F80022002AB1
:100FBC0003DBD3F80432002B22DA1D4901234FF056
:100FCC001020C1F804351524FFF7E6FEC0F80042E6
:100FDC00FFF7E2FEC0F80442FFF7DEFE0023C1F883
:100FEC000435FFF7D9FEBFF34F8F0A49114BCA687E
:100FFC0002F4E0621343CB60BFF34F8F00BFFDE7F9
:10100C000D4B0E4A1A6010BD0030014000C0074065
:10101C000DF0ADBA00ED00E000500040BC720000D5
:10102C0000C00040C172000000100040C6720000F9
:10103C0000E001400400FA05740000200090D00389
:10104C00034B1B78002B0CBF03200020704700BF04
:10105C002E180020064A0123137038B1054913706D
:10106C000860054A054913703C200870704700BFA2
:10107C003B180020301800202E18002024140020CB
:10108C001FB50446FFF7DCFF18B10C4AE82101F04C
:10109C0083FF0B4B1B7873B10A4A0B4910688DF810
:1010AC000D40002300938DF80C300978022303AA1D
:1010BC00043001F017F904B010BD00BFD07200006D
:1010CC003B1800203018002024140020F8B5484BA1
:1010DC001870484B1970484900230B8047490B8006
:1010EC0047490126044647480E704FF6FF710180B0
:1010FC0045480180454946480E7046490B70802191
:10110C0001804548018045484021018044480180C8
:10111C0044490B70AAB14FF0A047434DC7F808657E
:10112C0035434FF47A40A847C7F80C650A264FF4AC
:10113C007A40A847013EFAD14FF0A0430122C3F8F0
:10114C000825AE20FFF79CFFD520FFF799FF8020E4
:10115C00FFF796FFA820FFF793FF3F20FFF790FFC4
:10116C00D320FFF78DFF0020FFF78AFF4020FFF709
:10117C0087FF8D20FFF784FF012C0CBF102014205B
:10118C00FFF77EFF2020FFF77BFF0020FFF778FFA3
:10119C00A120FFF775FFC820FFF772FFDA20FFF7D9
:1011AC006FFF1220FFF76CFF8120FFF769FF012C06
:1011BC000CBF9F20CF20FFF763FFD920FFF760FF04
:1011CC00012C0CBF2220F120FFF75AFFDB20FFF788
:1011DC0057FF4020FFF754FFA420FFF751FFA62034
:1011EC00FFF74EFFBDE8F840AF20FFF749BF00BF47
:1011FC0025140020241400202A1800202C1800206C
:10120C003A18002036180020381800203C1800200E
:10121C001E14002020140020261400201C14002072
:10122C0022140020341800207073000050EA0103CF
:10123C0050D4314BB3F9003083424BDD2F4BB3F913
:10124C0000308B4246DD2E4B1B78022B21D0032B1A
:10125C002AD0012B05D12B4B1B88013B5B1A014675
:10126C0018B2012A26D0022A35D0002A32D1002900
:10127C000B46B8BFCB1D8022DB1013FB02032248A8
:10128C00012201F0070102FA01F1C25C22EA01021B
:10129C001FE01C4B1B88013B1B1A18B21B4B1B88F5
:1012AC00013B5B1A19B2DCE7184B1B88013B1B1A7C
:1012BC000846F7E700290B46B8BFCB1D8022DB1090
:1012CC0013FB0203104801F0070101228A40C15CA4
:1012DC000A43C254704700290B46B8BFCB1D80226D
:1012EC00DB1013FB0203084801F0070101228A40BE
:1012FC00C15C4A40EDE700BF2614002022140020F8
:10130C00341800201E140020780000201C1400202B
:10131C0013B51E4804F083FE2220FFF7B1FE002017
:10132C00FFF7AEFE0720FFF7ABFE2120FFF7A8FE6C
:10133C000020FFF7A5FE7F20FFF7A2FE144B1B78C1
:10134C000BB3144C144804F06AFE2046402300F8FA
:10135C00013B12494FF4806204F0E8FF104B114935
:10136C00186800230093097840F2014322460430A8
:10137C0000F0B8FF38B10C4A40F2592102B0BDE878
:10138C00104001F009BE02B010BD00BF4573000053
:10139C003B18002028140020557300007800002012
:1013AC003018002024140020D072000002484FF4A2
:1013BC008062002104F0F0BF78000020002930B5D5
:1013CC003ADB214CB4F900408C4235DD00281F4C2F
:1013DC00BCBF801802B2B4F90040B8BF0020851819
:1013EC00A542C4BF241A22B2002A25DDCC1000EB82
:1013FC00C410174C204401F007040121A140012B1B
:10140C00C9B216D0022B0BD0B3B9C943C9B202442E
:10141C00904211D010F8013B0B4000F8013CF7E76B
:10142C000244904208D010F8013B4B4000F8013CBC
:10143C00F7E70244904200D130BD10F8013B0B435A
:10144C0000F8013CF6E700BF1C1400201E1400201D
:10145C00780000200028F0B56ADB474CB4F9004056
:10146C00844265DD0029454CBCBF521812B2B4F958
:10147C000040B8BF00218D18A542C4BF641A22B227
:10148C00002A55DDC1F3C4043D4F00EBC41611F026
:10149C000701D2B207EB060023D0C1F10805EDB26B
:1014AC00384CAA42645D60D2A5EB020E4FF0FF0CE3
:1014BC004CFA0EFC012B04EA0C0407D0022B38D09A
:1014CC00B3BB17F806C02CEA040403E017F806C0F7
:1014DC0044EA0C04AA42BC552AD308391144CAB2B6
:1014EC008030072A18D9022B00F1800126D114462E
:1014FC0011F8805C083CE4B2ED43072C01F8805CE9
:10150C0001F18001F4D8A2F10801C1F3C401013149
:10151C0000EBC11002F0070252B11B49012B8A5C8F
:10152C001CD0022B1ED01BB9037823EA02030370D4
:10153C00F0BD17F806C084EA0C04CBE7012B4FF082
:10154C00FF3518BF0025EDB21446083CE4B2072C59
:10155C0001F8805C01F18001F7D8D4E703781A43D5
:10156C000270E5E703785A40FAE7012BAED0022B64
:10157C00DFD0002BB1D1A4E71E1400201C140020D6
:10158C0078000020797800007178000010B40C46C7
:10159C001349097802290ED003291BD0012914D133
:1015AC0010490988891A091B0CB2014620465DF8BE
:1015BC00044BFFF703BF0B4909880139091A08B21C
:1015CC0009490988891A091B0CB221465DF8044B9C
:1015DC00FFF740BF044909880139091A08B2E4E74A
:1015EC00341800201E1400201C1400202DE9F0419A
:1015FC00BDF8187088461E4604468518AC4201DBBF
:10160C00BDE8F08120463B46324641460134FFF7A7
:10161C00BDFF24B2F2E700002DE9F04F8BB0074676
:10162C000393BDF8503004933C4B9DF85450B3F9E0
:10163C000030834259DD3A4BB3F900308B4254DD14
:10164C00062313FB0503002B4FDD01EBC503002B19
:10165C004BDD344B1B781BB9AF2A84BF0132D2B29D
:10166C0002EB82030993062306938BB2059308338E
:10167C009BB200240893052C1CBF2B4B099A059E8A
:10168C0018BF1B1904EB070A18BF13F80290ABB272
:10169C00079304FB05F313FA87F31BB207EE903A9A
:1016AC0008BF4FF00009B0460FFA85FB0FFA8AFA13
:1016BC0019F0010F27D0012D1AD1039A31B25046DF
:1016CC00FFF7B4FD079B01369844089BB6B2B342B2
:1016DC004FEA59091FFA88F8EAD1069B013B0134FD
:1016EC0013F0FF0364B20693C5D10BB0BDE8F08FC5
:1016FC00039B009317EE900A5B465A460FFA88F14B
:10170C00FFF774FFDEE7DDE903239342DAD0012D06
:10171C0001D11A46D2E7049BEBE700BF2614002048
:10172C002214002020140020767300001FB50378CB
:10173C008DF800308388ADF8043083688DF806305E
:10174C00C3688DF80730036902934369054A039314
:10175C00054B684653F8213052F82110984705B0D4
:10176C005DF804FB4018002048180020024B4FF491
:10177C00807043F001031847907800002DE9F04782
:10178C00154690F80090324A42F82950314A42F8F6
:10179C0029304B7B07460C4663B3086849688200C6
:1017AC008B0002F1A04203F1A04340F20C66C2F898
:1017BC0000674FF0010AC3F800674FF0A0460AFA21
:1017CC0000F00AFA01F1C6F80805C6F8081540F24F
:1017DC000D61C2F80017C3F80017FFF7C7FF4FF0F1
:1017EC000008D6F810356268D340DB070DD5B8F188
:1017FC00000F1DD1002D184A4B4608BF2A46214622
:10180C00381DBDE8F04700F085BC23680AFA03F3E5
:10181C00C6F80C35FFF7AAFF23680AFA03F3C6F8DB
:10182C00083508F10108FFF7A1FFB8F1090FD8D16D
:10183C00636801264FF0A04806FA03F3C8F80C358C
:10184C00FFF794FF63689E40C8F80865D2E700BFB5
:10185C004818002040180020391700001FB50378E5
:10186C008DF800304368019383688DF80830C368A5
:10187C00054A0393054B684653F8213052F8211062
:10188C00984705B05DF804FB501800205418002050
:10189C001FB503788DF800304368019383688DF889
:1018AC000830C368054A0393054B684653F821304A
:1018BC0052F82110984705B05DF804FB5018002031
:1018CC0054180020F0B5194B90F800C091F81DE0A9
:1018DC0043F82C20164B16460A6943F82C20154B5E
:1018EC0003F80CE00C4607460FCC89B06D460FC5CB
:1018FC0094E80F0085E80F00CDF810C0BEF1000F82
:10190C0009D0002E0C4A694608BF3246381D01F03A
:10191C0005F809B0F0BD002E084A694608BF3246EA
:10192C0007F10C0000F0E0FDF3E700BF54180020B5
:10193C005018002058180020691800009D1800004D
:10194C0000F1804000F5C040002382B003600368C2
:10195C000193019B02B07047800000F1A040D0F8C9
:10196C00003723F44033C0F80037D0F8003743EA8F
:10197C000141C0F800177047054B4FF0FF320728A4
:10198C0043F8202084BF1B1883F84820704700BF01
:10199C005C18002010B5184991F8583053BB4FF023
:1019AC00FF3222FA03F0C00748BFC81803F1010345
:1019BC0048BF80F83020202BF3D10024E0B2013452
:1019CC00FFF7DAFF0C2CF9D10C4B0022C0204A6532
:1019DC0083F80603402018604FF4BE70FFF7B0FF89
:1019EC00074B4FF00040C3F80403012381F8583033
:1019FC00104610BD0820FCE75C18002000E100E058
:101A0C0000600040034B93F85800003818BF0120C9
:101A1C00704700BF5C180020F0B5394E331893F9AD
:101A2C003030002B69DA8D78C5F34005002D0BBFE3
:101A3C00082300230C240824A34201D10420F0BD68
:101A4C0056F82370013743D137185CB246F823207F
:101A5C0087F8304015B9F21882F848008A78550793
:101A6C0016D4D70736D5820002F1A042D2F800571F
:101A7C0025F00205C2F80057224FC50800F0070CEC
:101A8C00012202FA0CF217F805C042EA0C027A5550
:101A9C008A780D7812F0020225D09B0003F1804366
:101AAC0003F5C0430002D3F8102522F4473222F488
:101ABC004072C3F810252D04D3F8102500F4F8500B
:101ACC0005F4403528431043C3F810050020B6E751
:101ADC000133B1E74D7800F5E0724FF0A047AD004F
:101AEC0047F82250C8E7083C46FA84F494F8503082
:101AFC0043EA851384F85030E8E708209FE700BFDD
:101B0C005C180020B018002010B51F4C231893F956
:101B1C003020072A18DD083A44FA82F292F8503045
:101B2C009B09032B0BD14FF0A043D3F81015C140E8
:101B3C0001F001010231BDE81040FFF70DBF012B90
:101B4C000CBF02210321F6E7D3B2072B1AD893005E
:101B5C0003F1804303F5C043D3F8100540F00100B6
:101B6C00C3F8100502F1400040B2800080B2FFF7CC
:101B7C00E7FE39B154F8223023B101239340034AD4
:101B8C00C2F8043310BD00BF5C1800200060004098
:101B9C004FF0A043D3F8103523FA00F000F0010009
:101BAC00704700002DE9F34700244E4D01944FF48B
:101BBC008072012102F1804303F5C04390B21B688F
:101BCC00012B06D1D5F804330B4202D0FFF7B8FE37
:101BDC000C430432B2F5907F4FEA4101EAD1414BFC
:101BEC00D3F87C31012B0CD14FF4BE70FFF7A8FE5B
:101BFC004FF0A04344F00044D3F820250192C3F8E1
:101C0C002025E3B2D3B1384F00250126344210D041
:101C1C00AB0003F1804303F5C043D3F81005D3F8B0
:101C2C00101557F8253023B1C1F30141C0F304203E
:101C3C0098470135082D4FEA4606E7D1002C48DAC3
:101C4C00294C4FF0A047294D4FF00008012615F9FB
:101C5C00013F5A1C31D0C3F3C20108316944DAB2D6
:101C6C0011F8041C03F03F0903F0070306FA03F311
:101C7C00194222D009F5E073484657F82330C3F3D4
:101C8C00014ABAF1020F0CBF03210221FFF764FED7
:101C9C0006FA09F3C7F8203504EB090393F9303041
:101CAC0054F823304BB19109032904D0BAF1020F37
:101CBC0012D1012901D14846984708F10108B8F121
:101CCC00040FC4D1D7F820350193C7F82035002B69
:101CDC00B9D102B0BDE8F087BAF1030FEDD10229FA
:101CEC00E8E700BF006000405C180020AB18002043
:101CFC00014B1B68184700BFB818002038B50B4BB8
:101D0C0098420C4601D0002038BD002001F09CFB0D
:101D1C00074B1D7915B901221C601A71002001F0C6
:101D2C0095FB002DEFD01120EEE700BF0020004006
:101D3C00B8180020034B984201BF034B00221A60D5
:101D4C001A71704700200040B8180020002343503F
:101D5C0082B043580193019B02B070478B6A4A6B67
:101D6C009A4210B54FF0010305D2496A8A5CC0F85B
:101D7C001C251A4604E091F82C201AB1C3610022EC
:101D8C00104610BD0C6A640603D5C36181F82D3072
:101D9C00F6E74361EDE770B5D0F8046105460C46F3
:101DAC0026B14FF48271FFF7D1FF012694F82F2052
:101DBC0022B34FF492712846FFF7C8FF4FF48E718F
:101DCC00FFF7C4FF4FF48471FFF7C0FF002E69D0FA
:101DDC0094F82F20002384F82D3092BBA36A616BFA
:101DEC0099421CBF1646052386F001061CBFC5F898
:101DFC000025C5F8003584F82F6023E0D5F8243190
:101E0C004BB14FF492712846FFF7A0FF01236B6191
:101E1C0084F82F30DAE7D5F81C31ABB14FF48E7162
:101E2C002846FFF793FF636B01336363D5F82431C6
:101E3C0013B14FF49271E7E72146FFF78FFF0028AB
:101E4C00C4D10022104670BDD5F80831002BBDD08E
:101E5C004FF484712846FFF779FFD5F82431002B15
:101E6C00E7D1636BA16A8B42B0D2616AD5F81805D1
:101E7C00C854636BA16A0133481E8342636308D163
:101E8C00206A400610D40223C5F8003201232B62CD
:101E9C009CE78B42FAD1236A5B0697D5022384F820
:101EAC002D30CFE70122CDE78B42EFD1F6E70000D2
:101EBC0037B5314B01930D464FF48271FFF746FF56
:101ECC004FF49271FFF742FF4FF48E71FFF73EFF14
:101EDC004FF48471FFF73AFF0023C0F800326B63B4
:101EEC0085F82F300123036295F82D209A4218BFF4
:101EFC00836029460446FFF731FF2B6883B140F21B
:101F0C008623AB60AB68C4F80433002003B030BD4B
:101F1C0029462046FFF73FFF28B1019B013B019367
:101F2C00019B002BF4DC95F82F0050B9019B002B82
:101F3C00ECDC0023C4F800350523C4F8003503207D
:101F4C00E4E7D4F8C434C4F8C43493B113F0010FEB
:101F5C0014BF4FF40240032048F2012213F0020F89
:101F6C0018BF104613F0040F48F2022318BF18468E
:101F7C00DCE70320DAE700BFA086010037B5344B5D
:101F8C0001930D464FF48271FFF7E0FE4FF492710E
:101F9C00FFF7DCFE4FF48E71FFF7D8FE4FF484711F
:101FAC00FFF7D4FE00236B6385F82F30AB6A012B4F
:101FBC00044617D12B6A5B0614D40223C4F80032F2
:101FCC000123236295F82D20022A18BF23602B6869
:101FDC0093B140F28623AB60AB68C4F804330020A5
:101FEC0003B030BD0123E9E729462046FFF7D3FEB5
:101FFC0028B1019B013B0193019B002BF4DC95F86C
:10200C002F0050B9019B002BEADC0023C4F80035EB
:10201C000523C4F800350320E2E7D4F8C434C4F82F
:10202C00C43493B113F0010F14BF4FF402400320DA
:10203C0048F2012213F0020F18BF104613F0040FE0
:10204C0048F2022318BF1846DCE70320DAE700BF8A
:10205C00A0860100F0B52C4C2C4887B02146FFF728
:10206C009AFE002847D194F82F70D4F820C0FFB9FD
:10207C00237B9A1E012A1BD8616AA269914217D14F
:10208C00E2696262CCF3401C62692048A262032BB5
:10209C0084F82CC084F82D70214604D107B0BDE81B
:1020AC00F040FFF705BF07B0BDE8F040FFF766BF93
:1020BC00174E0FCE01AD0FC533682B60EFB1134A2D
:1020CC00D2F8C434C2F8C434990718D45A0718D4B7
:1020DC0003F00103C3F10403DBB28DF800301CF0F4
:1020EC00040F4FF0000384F8303000D01FB1D4E956
:1020FC0000316846984707B0F0BD3B46EDE7012339
:10210C00EBE70223E9E700BFC018002000300040D5
:10211C00CC1800202DE9F84F0779314E4FF03C0ACE
:10212C000AFB07FA06EB0A059B4695F82E3080460B
:10213C000C469146002B4FD12A490068FFF7DEFD73
:10214C0000284BD12168637B85F8383001F5E072AB
:10215C004FF0A043A860C5F804B085F8300085F8AE
:10216C002D0085F8310040F20C6546F80A9043F8D2
:10217C002250626802F5E07C43F82C50D8F800300D
:10218C00C3F80815C3F80C25A268C3F82425B9F1C7
:10219C00000F14D0227B43F3073152010029C3F303
:1021AC000733D2B213DB104C651885F800230122DB
:1021BC00490903F01F0302FA03F344F821303C23CE
:1021CC0003FB0766012386F82E30BDE8F88F07491C
:1021DC0003F00F03CA54F2E70820F6E71120F4E7E6
:1021EC00C01800206120000000E100E014ED00E0C8
:1021FC00036802790521C3F80015044B3C2101FB4F
:10220C000233022283F82E20704700BFC018002032
:10221C002DE9F047314F0479D0F800903C2303FBB3
:10222C0004730D4693F82D30012B944604D10B7892
:10223C00012B06D1082011E0022B02D10B78012BC7
:10224C00F8D13C26264BC9F8083306FB047696F8E1
:10225C0030302BB1B368C9F804331120BDE8F087D6
:10226C008CF00403C3F3800386F83030C6F820C02A
:10227C00A846B8E80F0006F10C0EAEE80F00D8F82F
:10228C000030CEF800306B68B362EB6873626B7829
:10229C00C9F888352B78C4EB041A012B07EB8A0A92
:1022AC0017D09BB9CCF3401C3C2303FB0473514661
:1022BC0083F82CC04846FFF7FBFD3C235C433A19DE
:1022CC003B59002BCAD182F83030C7E74FF0010CD4
:1022DC00EAE751464846FFF751FEEEE7C0180020EA
:1022EC008642040010B586B00024CDE904249DF884
:1022FC0020208DF80510520101A9CDE902348DF88A
:10230C000440FFF785FF06B010BD10B586B0012460
:10231C0002930023CDE903328DF805101A4601A96A
:10232C008DF804400593FFF773FF06B010BD002332
:10233C00435082B043580193019B02B070470A4648
:10234C0010B54FF48E71FFF7F2FF136A9168C95CF8
:10235C00136A01331362C0F81C1510BD8B690A4651
:10236C0010B54FF4847123B9FFF7E1FFD0F818359D
:10237C0010BDFFF7DCFF536AD168D0F81805C854BC
:10238C00536A01335362F3E71FB501238DF8003014
:10239C00044BCDE90110D3E900126846904705B013
:1023AC005DF804FBFC18002030B54D4DD5F8043316
:1023BC009A0585B051D5D5F82431002B4DD04FF46A
:1023CC0092712846FFF7B3FF4FF40173C5F8083339
:1023DC00444B93F829200AB901226A604049022231
:1023EC008DF80020D1F88024C1F8802403929A69DA
:1023FC000292DA6801920022C3E906226846D3E908
:10240C00001290473648D0F81C315BB1354A5169FF
:10241C00136A99424DD992F82830002B49D11146B4
:10242C00FFF78DFF2E48D0F84431002B56D04FF4D7
:10243C00A271FFF77CFF2B4B93F829200AB10122E4
:10244C0002609A69002A49D0586AD96800229A61B8
:10245C0005B0BDE83040FFF797BFD5F804335B07F4
:10246C00D0D5D5F80831002BCCD01E4C1C482146B9
:10247C00FFF774FF636AA2699A42C3D1E369E1680A
:10248C004BB1A3612369E3600023606AE36163627B
:10249C00FFF77AFFB6E794F829300BB901236B608C
:1024AC000F4B4FF40172C3F808230023606AA36139
:1024BC00EEE70B484FF48E71FFF739FF5369002B91
:1024CC00B0D051690291002391688DF800300191D0
:1024DC0053616846D2E900139847A3E705B030BDB5
:1024EC0000200040FC1800202DE9F843534D90F8D3
:1024FC0004802C2303FB0853064693F82A300C4621
:10250C009146002B40F095804D490068FFF7F6FB93
:10251C000746002840F08F8021683368481C0BD098
:10252C004FF0A04001228A40C0F8082501F5E07266
:10253C004FF0030C40F822C06068421C1FBF00F52E
:10254C00E0724FF0A04C4FF0000E4CF822E0A26964
:10255C00C3F8242594F814C0627DBCF1010F4CEA39
:10256C000202C3F86C25C3F81405C3F80C151DD171
:10257C00A1684A1C1FBF01F5E0724FF0A0404FF05C
:10258C00000C40F822C0E268501C0BD04FF0A04C5D
:10259C0001209040CCF8080502F5E0704FF0030ED6
:1025AC004CF820E0C3F80825C3F810152C2303FBC6
:1025BC0008F3EA18C2F804902269EA50B9F1000F46
:1025CC001FD03068227F4FF48E71FFF7B0FE4FF4AE
:1025DC00A271FFF7ACFE1B4BC0F8043340F307317C
:1025EC0053010029C0F30730DBB21DDB164A541827
:1025FC0084F800330123490900F01F00834042F89E
:10260C00213033680422C3F800252C2303FB085324
:10261C000022C3E9062283F829205A61012283F89B
:10262C002A203846BDE8F883084A00F00F001354FE
:10263C00E7E70827F5E71127F3E700BFFC180020B0
:10264C00B52300008000020000E100E014ED00E082
:10265C00F8B503680579304C0022C3F800252C220C
:10266C0002FB05425268A2B12C4AC3F80823190B8D
:10267C0043F30733002B0CDB01F01F015B09012234
:10268C008A402033264941F82320BFF34F8FBFF3F4
:10269C006F8F0068D0F80C65D0F81415D0F8083599
:1026AC00D0F810254FF0FF37BE42C0F8147518BF94
:1026BC0006F5E076C0F80C75C0F80875C0F8107512
:1026CC001EBF4FF0A0474FF0020C47F826C04E1C1F
:1026DC001FBF4FF0A04601F5E071022746F82170AC
:1026EC00511C1FBF4FF0A04102F5E072022641F8C9
:1026FC0022605A1C1FBF03F5E0734FF0A042022169
:10270C0042F82310FFF716FB2C2303FB0544002390
:10271C0084F82A306360F8BDFC18002084020200A3
:10272C0000E100E00279044B2C2101FB02335869D3
:10273C00003818BF01207047FC1800202DE9F84F15
:10274C00074690F8048089469346FFF7EBFF044652
:10275C00002839D11E4E2C2508FB056A4FF48E71CA
:10276C00CAF814B0CAF80890CAF820008AF82800F1
:10277C003868FFF7DCFD012383605146FFF7DFFD6E
:10278C00DAF8043055460BBBDAF814402B6A9C423D
:10279C0010D8D0F81C31002BFBD00123C3600020D3
:1027AC002C2303FB086600237361BDE8F88F95F8B2
:1027BC0028303BB9D0F81C31002BF8D05146FFF72C
:1027CC00BEFDE3E70F20EBE71120EEE72046ECE738
:1027DC00FC1800200023435082B043580193019B06
:1027EC0002B070471FB501238DF80030044BCDE9C2
:1027FC000110D3E900126846904705B05DF804FB60
:10280C00281900207FB5434AD2F82461002E60D0ED
:10281C0010464FF49271FFF7DDFF02238DF8003064
:10282C00D2F88034C2F880340393D2F83C3502934A
:10283C00394BDA6801920022C3E906226846D3E9D3
:10284C00001290473348D0F8443173B14FF4A27161
:10285C00FFF7C0FF304B9A693AB10022C3E9062258
:10286C00D968D0F83C05FFF7BDFF2A48D0F82031D5
:10287C00ABB14FF49071FFF7ADFF0123C360264B52
:10288C005A6962B1D0F84C150291002299688DF802
:10289C00002001915A616846D3E9001290471D4807
:1028AC00D0F858319BB14FF4AC71FFF793FF1A4B32
:1028BC005A6962B1D0F84C150291002299688DF8D2
:1028CC00002001915A616846D3E90012904704B088
:1028DC0070BDD2F81031002BB4D04FF48871104673
:1028EC00FFF778FF0C4BD2F83C0599698842A9D1C7
:1028FC00DC69D96864B1D2F8005225F02005C2F821
:10290C0000521A699C61DA60DE61FFF76BFF99E790
:10291C009C61FAE700200040281900202DE9F843BB
:10292C00584D90F80480242303FB0853064693F873
:10293C0020300C469146002B40F09F805249006895
:10294C00FFF7DCF90746002840F0998021683368CE
:10295C00481C0BD04FF0A04001228A40C0F808253B
:10296C0001F5E0724FF0030C40F822C06068421C85
:10297C001FBF00F5E0724FF0A04C4FF0000E4CF86A
:10298C0022E0A269C3F8242594F814C0627DBCF13E
:10299C00010F4CEA0202C3F86C25C3F80C15C3F8FE
:1029AC0014051DD1A1684A1C1FBF01F5E0724FF040
:1029BC00A0404FF0000C40F822C0E268501C0BD035
:1029CC004FF0A04C01209040CCF8080502F5E070C7
:1029DC004FF0030E4CF820E0C3F80825C3F810158F
:1029EC00242303FB08F3EA18C2F804902269EA5086
:1029FC00B9F1000F2BD03068227F4FF48871FFF7AC
:102A0C00E9FE4FF49071FFF7E5FE4FF49271FFF77A
:102A1C00E1FE4FF4A271FFF7DDFE4FF4AC71FFF74E
:102A2C00D9FE1A4BC0F8043340F307315301002987
:102A3C00C0F30730DBB21BDB154A541884F80033A3
:102A4C000123490900F01F00834042F8213033680C
:102A5C000822C3F80025242303FB08550023C5E9ED
:102A6C0006336B61012385F820303846BDE8F883C6
:102A7C00084A00F00F001354E9E70827F5E711277F
:102A8C00F3E700BF281900201128000010034200B2
:102A9C0000E100E014ED00E0F8B5444C0579242386
:102AAC0003FB054302465B680068ABB1404BC0F8C2
:102ABC00083340F30733002B4FEA10360CDB06F0DB
:102ACC001F065B090121B14020333A4E46F8231012
:102ADC00BFF34F8FBFF36F8FD0F8003223F020037A
:102AEC00C0F80032242303FB05439B692BB14FF440
:102AFC00A271FFF76FFE012343604FF4AC71FFF737
:102B0C0069FE0123C360242303FB0543D0F858114D
:102B1C000029FBD0996919B1D0F844110029F5D0DE
:102B2C000023C0F800351368D3F80C75D3F814657E
:102B3C00D3F80825D3F810154FF0FF3C6745C3F8C0
:102B4C000CC518BF07F5E077C3F814C5C3F808C562
:102B5C00C3F810C51EBF4FF0A0434FF0020C43F852
:102B6C0027C0771C1FBF4FF0A04306F5E076022765
:102B7C0043F826704E1C1FBF01F5E0714FF0A043C7
:102B8C00022643F82160531C1FBF4FF0A04302F5EF
:102B9C00E072022143F82210FFF7CCF8242303FB48
:102BAC000544002384F820306360F8BD2819002008
:102BBC001003420000E100E00279044B242101FBE8
:102BCC0002335869003818BF0120704728190020BB
:102BDC0001F06043B3F1005F2DE9F04707468846EA
:102BEC0092463AD190F80490FFF7E6FF044600288D
:102BFC0035D11D4E3A68242505FB09654FF49071BB
:102C0C001046C5F814A0C5F80880FFF7E3FD4FF493
:102C1C00AC71FFF7DFFD6B69A968C2F84415C2F807
:102C2C004835012393606B68DBB9D2F82031D2F8B8
:102C3C0058011BB90028F8D00F2007E00028FBD161
:102C4C000123D360D2F85831002BFBD0242303FB93
:102C5C00096600237361BDE8F0871020FBE71120A3
:102C6C00F9E72046F7E700BF28190020C30710B585
:102C7C0007D4F023054A4008145C2340194311542F
:102C8C0010BD0901C9B20F23F4E700BF6019002081
:102C9C0030B5094B1C78094B196800239C4202DCA7
:102CAC000022104630BD11F83350854201EBC302AF
:102CBC00F7D00133F2E700BF4C1900207019002047
:102CCC0013B504460191FFF7E3FF38B143682BB10C
:102CDC000199204602B0BDE81040184702B010BD63
:102CEC00034B044819680022490800F08FBA00BF52
:102CFC00501900207804002010B5C0B2FFF7C8FFAF
:102D0C0004460078FEF744FF63785A1E5342534141
:102D1C00834208D1044AD2E90032134303D1BDE8FF
:102D2C001040FFF7DDBF10BD5819002038B5344AEC
:102D3C0043080446D35CC2074CBF1B0903F00F03C6
:102D4C000D46042B5AD8DFE803F003222B373A0048
:102D5C00002953D00121FFF789FF002000F074FBFC
:102D6C000122A4F12003C4F12000264922FA00F02C
:102D7C0002FA03F30343A240D1E900401443184381
:102D8C00C1E90040BDE83840002000F05FBB0039CD
:102D9C0018BF012149002046BDE83840FFF766BF47
:102DAC0041B10321FFF762FF20460121BDE8384005
:102DBC00FFF786BF0121EEE701BB0421EBE709B168
:102DCC000321E8E7FFF752FF29462046FFF778FF7B
:102DDC00284600F039FB0122A4F12003C4F12000A5
:102DEC00084922FA00F002FA03F30343A240D1E9A6
:102DFC00004024EA020420EA0300C1E738BD00BF0A
:102E0C0060190020581900202DE9F041124E134F83
:102E1C0000243378A34208DC114AD2E90032134370
:102E2C0018D0BDE8F041FFF75BBF3D6805EBC40867
:102E3C0015F83400FEF7ACFE98F801305A1E5342D8
:102E4C005341181A4142414115F83400FFF76EFF07
:102E5C000134DEE7BDE8F0814C1900207019002028
:102E6C0058190020092AF7B505460C4616463ED9D6
:102E7C00FEF7C8FDE8B11F4B1F481D601F4B204FCC
:102E8C001C70204B002110221E6003F085FA1E4B93
:102E9C0000200021C3E90001013CE4B20326FF2C11
:102EAC000DD11A4A1A48002103B0BDE8F04000F0D9
:102EBC009BB9FEF76FFD0028DDD003B0F0BD9DF887
:102ECC00063015F834008DF8046005EBC40223F0CD
:102EDC0007038DF8063001A993788DF805303A4632
:102EEC00FEF79AFD013CE4B20028D8D0E5E70720B4
:102EFC00E3E700BF70190020601900204C19002076
:102F0C00052D00005019002058190020152E000026
:102F1C00BC78000070B5084D084E00242B789C42FC
:102F2C0001D3002070BD3368012113F83400FEF783
:102F3C00EBFD0134F2E700BF4C19002070190020A2
:102F4C0082B001238DF807309DF80730114B1860C3
:102F5C00596044F2010188429A6012D044F2020195
:102F6C00884206D1DA60DA6812689A61DA685268C7
:102F7C00DA6172B69DF80730002BFBD162B602B055
:102F8C0070471A611A6992685A611A6912689A61D3
:102F9C001A69ECE77419002000B583B00290009117
:102FAC00019244F2010071466A4600F003F803B046
:102FBC0000BD0000F0B5064687B00F46154672B648
:102FCC0001F06EFC01F06CFA0028FBD11E4B1F4C7B
:102FDC00E41AE40844F2010324049E4244F0010480
:102FEC0017D044F202039E4228D1D5E90032184989
:102FFC00204601F0A4FB174BD3F8F030DB0700D5CB
:10300C0000BE2A463946304607B0BDE8F040FFF70F
:10301C0097BFAA680592104600F0ECFF296802974A
:10302C000191696800910346059A0B49204601F00D
:10303C00AAFB0A49204601F075FBDCE708493A4631
:10304C00204601F073FBD6E7046C0000346C0000E2
:10305C00C078000000ED00E0DA7800000079000094
:10306C001479000010B5D0E90242D1E90203A04264
:10307C0093412CBF0120002010BD000008B50A4868
:10308C0000F001FB094AD2E90031C018084BD3E922
:10309C00002341F10001904271EB030303D210F1C4
:1030AC00807041F1000108BD98040020981900209F
:1030BC00101A002037B505460C460A4801A900F045
:1030CC00C4FB60B10570446001A9064800F0E7FB41
:1030DC0018B1054800F0DCFA002003B030BD042024
:1030EC00FBE700BFFC19002098040020234B70B5AF
:1030FC001E78044616B90026304670BD0028FAD05A
:10310C00FFF7BCFFD4E90223904299412FD3002052
:10311C0000F09AF923692BB94FF0FF324FF0FF33CF
:10312C00C4E90223002000F091F9D4E90530984756
:10313C00002000F089F925696DB1D4E90212B2F1D1
:10314C00FF3F08BFB1F1FF3F0FD0691842F10002F9
:10315C00C4E902123546002000F078F9002DCAD0DF
:10316C000748214600F001FFC6E70025F3E7B3F15D
:10317C00FF3F08BFB2F1FF3FBDD0F1E7A01900201F
:10318C003C79000013B5114B1149186801900823C4
:10319C001048582200F046FB044698B90E4A0F48D6
:1031AC0001A900F063F9044660B90C48012100F054
:1031BC004DFA01230A4A0948194600F0AFF9094BA8
:1031CC0001221A70204602B010BD00BF36790000F3
:1031DC00A4190020FC19002079320000980400206A
:1031EC00FFFF7F00A019002030B56AB103684FF0D3
:1031FC00FF344FF0FF355A614A1E5142C3E9024574
:10320C0051411961002030BD0720FCE7F8B5044698
:10321C00002017460D4600F017F9D4E90223B3F14C
:10322C00FF3F08BFB2F1FF3F15D1FFF727FF28186A
:10323C0041F10001C4E902010126002000F006F969
:10324C005EB12369A76103B1256121460020BDE869
:10325C00F840FFF72FBF0026EFE73046F8BD00001F
:10326C00014800F010BA00BF980400202DE9F74384
:10327C00064600F0F3F940B1624AD2E9003113F18D
:10328C00807341F10001C2E900310021304600F0A9
:10329C00F4F938B15C4C236823B12068FFF726FFA2
:1032AC00002323600121304600F0E7F920B1FFF73D
:1032BC00E5FE564BC3E900015548534C01A900F0FB
:1032CC00FEFA4FF0FF384FF0FF39A0B9DFF8448118
:1032DC004D4D404600F05FFE002800F08580D0E99F
:1032EC000223B3F1FF3F08BFB2F1FF3F32D140469A
:1032FC0000F04BFEEDE70378012B20D0022B08D118
:10330C00444D284600F041FE002877D0C0E90289E0
:10331C00F7E75BB94168D1E90223B3F1FF3F08BF7E
:10332C00B2F1FF3F02D03B4800F01FFE01A9384824
:10333C0000F0F0FA01A9364800F0C1FAC5E741687F
:10334C002368994202D100232360EFE7314800F053
:10335C0025FEEBE7296891B12968D1E90201824287
:10336C008B412FD22B68D3E90223B3F1FF3F08BF67
:10337C00B2F1FF3F03D02968404600F0F6FD40460D
:10338C0000F003FED0E902490746FFF777FE201A4A
:10339C0069EB0101012871F1000918DBB0F5350F5B
:1033AC0013D3FFF75DFF1C4A02441C484FF49603ED
:1033BC00002100F0D3F890B92B6813B9304600F017
:1033CC00A5F82F6003B0BDE8F0832246EDE7134863
:1033DC00002100F048F93846FFF788FE01E00D287F
:1033EC00F9D000232B6074E7074B1B68002BE9D145
:1033FC00304603B0BDE8F04300F08CB8084B012216
:10340C001A7093E798190020181A0020101A00203F
:10341C00FC1900203C790000FFFFB4009804002048
:10342C00A019002072B6024A13680133136070476A
:10343C001C1A0020034A1368013B136003B962B6DF
:10344C00704700BF1C1A0020FFF7ECBFFFF7F2BF5C
:10345C00435882B03BB10023435043580193019B26
:10346C00012002B070471846FBE70000F8B51F4B6F
:10347C0044791F4E43F824201E4A1F4B06EBC4040C
:10348C009B1A2279DB081B0432B143F002001B4962
:10349C0001F048F90820F8BD02680C88C2F808450C
:1034AC0090F904508A7804795201002DD2B218DBBD
:1034BC0013494F1987F8002301226D0904F01F04EA
:1034CC00A24041F82520427906EBC201012446F8BE
:1034DC0032000C7143F003000A4901F023F900207B
:1034EC00D9E7094904F00F040A55ECE7281A002023
:1034FC00201A0020046C0000446C00004879000085
:10350C0000E100E06A79000014ED00E0036801229C
:10351C001A607047036801225A60704773B501F155
:10352C005005AD000068ADB24FF480348C400026DD
:10353C00C0F80843C0F84843465101F5A8714559F5
:10354C00019522F07F42019D40F82120C0F84443B0
:10355C000BB1C0F8044302B070BD00002DE9F74F69
:10356C000D4622F07F4402684FF4803705F1500677
:10357C008F408046B60002EB8500C2F84873B6B2A5
:10358C00C2F80873D2F8041599464FF0000BD0F826
:10359C004035C0F8401542F806B05B1A92590092BB
:1035AC0023F07F43012B009A4FEA850A0CD1264B5E
:1035BC004FF4806043F001039847D8F8003043F88B
:1035CC0006B09B590193019BD8F80020D2F80465F2
:1035DC00C2F84473A31B23F07F43012B1CD11A4B5D
:1035EC0005F5A875013443F0010342F825404FF46A
:1035FC0080609847D8F80030D3F804359E4209D142
:10360C00D8F800300020C3F84473C3F8047303B037
:10361C00BDE8F08F0D20FAE79244C9F1FF13CAF808
:10362C004045D2F80405211A013921F07F4103F5F8
:10363C007F438B42EED30029E2D10134CAF84045D6
:10364C00D2F804359842DAE7807900000368022248
:10365C00C3F8442309B1C3F80423704700684FF43E
:10366C008271FFF7F5BE4FF4803303FA01F1036862
:10367C00C3F84813C3F80813704750318900006829
:10368C0089B2FFF7E5BE0368D3F804057047000064
:10369C0090F90430002B09DB5A09012103F01F03B8
:1036AC00994002F14003024A42F82310704700BFD0
:1036BC0000E100E0024B034A1B681068184700BF8A
:1036CC00281A0020201A00201EF0040F1CBFEFF354
:1036DC0009800AE0EFF308800549064A884201D8C0
:1036EC00904202D88D464FF00000034B1847000063
:1036FC000000012000E000202D370000BFF34F8FA9
:10370C000549064BCA6802F4E0621343CB60BFF371
:10371C004F8F00BFFDE700BF00ED00E00400FA058D
:10372C002DE9F347054601F0BBF800F0B9FE00287F
:10373C00FBD1304B304C9F6A304BE41AE408240424
:10374C0044F00104002D4FD0AA692D49204600F009
:10375C00EDFFEB680193AB682A4900932046D5E94D
:10376C00002301F002F8EB6900932749D5E9042303
:10377C00204600F0EEFF1F4BDB6A990703D5234967
:10378C00204600F0CFFFDFF89490DFF894A00026DD
:10379C004FF0010808FA06F33B4206D059F82620F0
:1037AC001AB15146204600F0C1FF01361A2EF1D154
:1037BC003A0605D50F4B16495A6B204600F0B6FF5A
:1037CC0017F4004F0B4E04D0B26B1249204600F098
:1037DC00ADFFD6F8F030DB0700D500BE2846FFF76A
:1037EC008DFF02B0BDE8F0870B49204600F09AFF30
:1037FC00C1E700BF00ED00E04C6C0000046C000061
:10380C00867900009B790000D07900002B7A0000AB
:10381C007A7A00009A7A0000F8790000747F000030
:10382C006F7A000010B561B1B2FBF3F403FB142402
:10383C00A4B244B9C0E9001484608281C3812046DB
:10384C0010BD0E20FCE70920FAE737B550E8013F20
:10385C009DB2C48925448489A54228BF2D1B0489A7
:10386C00A54202BFBFF32F8F002207E0C5EA030574
:10387C0040E80154002CE9D14FF001028DF80320EF
:10388C000193019A0A609DF8031001F0FF0321B126
:10389C00006810FA82F003B030BD1846FBE70A88C6
:1038AC004B889A4209D150E8012FC2EA024240E803
:1038BC000123002BF7D1012070470020704737B54A
:1038CC0050E8023F1FFAA3F5C488A54202BFBFF31C
:1038DC002F8F00220DE0C48925448489A54228BF7E
:1038EC002D1BC3EA054540E80254002CE8D14FF0EB
:1038FC0001028DF803200193019A0A609DF80310D0
:10390C0001F0FF0321B1006800EB124003B030BDA1
:10391C001846FBE70A884B889A4209D150E8022FD7
:10392C00C2EA224240E80223002BF7D10120704763
:10393C000020704710B5034653E8000F0A4643E8D1
:10394C00002494F0000FF7D110BD10B5034653E8D6
:10395C00002F42EA010043E8000494F0000FF6D176
:10396C0010BD10B5034653E8000F00EA010243E80E
:10397C00002494F0000FF6D110BD10B5034653E8A7
:10398C00002F02EB010043E8000494F0000FF6D185
:10399C0010BD10B5034653E8002FA2EB010043E81D
:1039AC00000494F0000FF6D110BD0121FFF7CDBF3C
:1039BC000021FFF7D6BF10B590B1D0E90123016803
:1039CC009B1ADBB20A60013BDBB2FF2B026802D10F
:1039DC000020107110BD11684C1C14600B70F2E7C4
:1039EC000E20F7E738B504460020FFF72DFD2268BE
:1039FC00616813688B4213D9591E116013F8013C8E
:103A0C00208AE56800FB0355A3685B1A1179DBB2C9
:103A1C00994200D213710020FFF718FD284638BDDB
:103A2C000025F8E738B5054600200C46FFF70CFDDD
:103A3C002A681368591C1160EA68A41A2A8AB4FB14
:103A4C00F2F41C70BDE838400020FFF7FFBC826820
:103A5C0010B504462AB143690168006998470023F0
:103A6C00A36010BD0EB403B5039921B104AB01AA38
:103A7C00019300F077F802B05DF804EB03B07047E7
:103A8C000A2938B504460D4602D10D21FFF7F8FF7F
:103A9C00A3682268591CA160D554D4E901329A421A
:103AAC0004D32046BDE83840FFF7D1BF38BD000035
:103ABC002DE9F84F9846DDE90A43154682460F4634
:103ACC000A464FF00109AA420FD2C14538BFC14680
:103ADC0013F0010B01D16CB900240126B8F1010FD0
:103AEC001BD908F1FF386E43F8E709F10109B2FB65
:103AFC00F5F2E8E79B070ED5B8F1000F0CBF3026A6
:103B0C002026A145E9D2013C31465046FFF7B8FFCB
:103B1C00002CF6D1E0E72026F3E7B7FBF6F39D4245
:103B2C00E1D9DFF83C80B7FBF6F3504618F80310E8
:103B3C0006FB1377FFF7A4FF3346AB42B6FBF5F653
:103B4C00F1D2BBF1000F02D00CB1A14501D3BDE8FD
:103B5C00F88F20215046013CFFF792FFF4E700BF9D
:103B6C00DC7F00002DE9F74F0546174688460029F3
:103B7C0000F03E8118F8011B49B92B7B002B00F09B
:103B8C003781284603B0BDE8F04FFFF760BF252909
:103B9C0040F0B780002698F800302D2B424608F1F3
:103BAC00010823D0302B24D02B2B25D000242A2BFA
:103BBC0002F1010123D13B681A1D1B683A601C44B9
:103BCC000A4613782E2B26D101324FF0000A1046EC
:103BDC0010F8011BA1F1300CBCF1090F1DD80A2300
:103BEC0003FB0A11A1F1300A0246F0E746F0010688
:103BFC00D1E746F00206CEE746F00406CBE711F813
:103C0C00013CA3F130000928DBD80A2202FB043462
:103C1C00303C0A46CBE74FF0000A12F8011B01F0CA
:103C2C00FB0068289046F8D0782909D86F290CD861
:103C3C00632962D022D8252963D0582900F08880C6
:103C4C0098F80030002B95D197E770390829F7D8F0
:103C5C0001A252F821F000BFD73D00004D3C0000FE
:103C6C004D3C00006D3D00004D3C00004B3D000004
:103C7C004D3C00004D3C00005D3D0000642901D02E
:103C8C006929DDD13A68D2F80090111D89EAE972F0
:103C9C003960A2EBE9724FF0010B092A35DCD345F0
:103CAC0038BFD3462CB1B9F1000F01DB720700D538
:103CBC00013CB30702D5BAF1000F03D0F00701D4D1
:103CCC004CBB0024B9F1000F2DDAC9F100092D21EC
:103CDC002846FFF7D5FE06F00302022A04D1BAF1FA
:103CEC00000F01D11CBB0024CDE9004653460A222B
:103CFC0049462846FFF7DCFEA2E73B681A1D1978F7
:103D0C003A602846FFF7BCFE9AE70A230BF1010B39
:103D1C00B2FBF3F2C1E7A345D4D220212846013CE3
:103D2C00FFF7AEFECCE77107D5D52B21D0E7A34525
:103D3C00DAD230212846013CFFF7A2FED2E73968DF
:103D4C00CDE900460A1D3A6053460A220968D0E7BD
:103D5C0039680A1D3A60CDE9004653461022F5E752
:103D6C003B681A1D3A6016F00106D3F8009024D176
:103D7C00B9F1000F03D0484602F0A8FA0646B44247
:103D8C001DD809F1FF3919F8011F00293FF458AF6C
:103D9C002846FFF775FEF6E728460136FFF770FE5A
:103DAC0019F806100029F7D1A642BFF449AF20211B
:103DBC002846013CFFF764FEF6E70026F0E72021D9
:103DCC002846013CFFF75CFED9E73B681A1D3A60B8
:103DDC00302128461C68FFF753FE78212846FFF750
:103DEC004FFE00220823CDE900322146102280E745
:103DFC0003B0BDE8F08F00BF2DE9F84FB0F806A076
:103E0C004579D2F800B09DF828900AFB05F5043DE1
:103E1C0088460BEB0301A94203F1040488BFA5EB10
:103E2C00030BB4FBFAF607460AFB1644C2F800B0C3
:103E3C004EB9AAEB04055D4528BF5D46BBF1000FEA
:103E4C0004D1BDE8F88F3F68013EF1E7043408EB7C
:103E5C0006003C442A46B9F1000F0DD02146ABEBCD
:103E6C00050B02F063FADA452E443F6855464FF0D5
:103E7C00000428BF5D46E1E701462046EFE7FFF767
:103E8C009ABDF8B546790146721E05460023934249
:103E9C002D6803D30024A64202D8F8BD0133F6E7FF
:103EAC000F682846FFF7BEFD01343946F3E72DE9CC
:103EBC00F843068ACD1C0746FFF794FD043E3544B3
:103ECC000446B5FBF6F5F0B14FF48073EDB2838088
:103EDC00C680013D076081464FF00008A84512D20C
:103EEC003846FFF77FFD064648B1637901336371AD
:103EFC0008F10108C9F8000007608146EEE720468A
:103F0C00FFF7BFFF34462046BDE8F883012104309B
:103F1C00FFF733BD10B5012104460430FFF739FD1E
:103F2C00C0B220B92046BDE81040FFF7AABF10BDB3
:103F3C001FB503920022009203AAFFF75DFF05B0A4
:103F4C005DF804FB1FB503920122009203AAFFF750
:103F5C0053FF05B05DF804FB836800225A60C3E987
:103F6C0004229A60DA601A60704770B5446806469D
:103F7C000D46206818B1B3682946984718B92368CC
:103F8C002B60256070BD2468F3E74368186808B19E
:103F9C0002681A607047436818687047436818686D
:103FAC0000B97047884203D102681A60012070473B
:103FBC0003460068F4E7000010B50D49A1F58C72BA
:103FCC00914201D800200FE08C1AE30F03EBE403BD
:103FDC005B1002EBC30452F83330834205D802D293
:103FEC0004F10802ECE7606810BD2146E8E700BF69
:103FFC00AC84000008B5FFF7DFFF024B002808BFB8
:10400C00184608BD7F8300000A4A08B5137823B10F
:10401C00094802F004F8032008BD20B9074801F054
:10402C00FEFF0E20F8E706490860012111701846C2
:10403C00F2E700BF4E1A0020AC840000D3840000CD
:10404C00501A002073B50D46044628B9194801F0E2
:10405C00E6FF0E2002B070BD90F88020202A04D913
:10406C00154801F0DCFF0C20F4E701F01F031344AA
:10407C00202B02DD114802F0DEFA114E2222002123
:10408C00304602F089F9304694F8802020F8025B23
:10409C00214602F04BF90B4A94F880301068023339
:1040AC0000220092DBB2324657210430FEF71AF997
:1040BC00D0E700BFF88400002C8500006485000068
:1040CC002C1A0020501A0020F0B595B01D4616464B
:1040DC0008460C46FFF71AFF1A9B0D93CDE90865AD
:1040EC0000252B46082205A920460A958DF82C5050
:1040FC000C95FFF727FF079B0293069B03939DF8F4
:10410C0014308DF8115003F00302012A1DD1BDF8B3
:10411C001420059DC3F3C203C2F383168DF810302F
:10412C00B20008230EA92046FFF70CFFC5F3952516
:10413C0008AB0093324602AB0EA9284600F024FCD3
:10414C002046FFF7E7FE15B0F0BD022AF8D1BDF806
:10415C001650C3F3C203C5F389158DF81030082728
:10416C00082D2E4628BF08263B4632460EA920466F
:10417C00FFF7E8FEAD1B08AB02AA31460EA8374488
:10418C0000F066FC002DEBD1DAE70000014B0122B8
:10419C001A707047951A00207047000070B50F4DCB
:1041AC0006460FCD88B06C460FC495E80F00002E64
:1041BC0084E80F000A4A0B484FF01D0308BF002289
:1041CC0069460093FDF77EFB18B1074A4321FEF7C1
:1041DC00E3FE064B1E7008B070BD00BF30860000B9
:1041EC0099410000A0040020A3850000541A00206F
:1041FC0007B5044B0093044A4023FFF765FF03B057
:10420C005DF804FB19420000551A002038B50E4821
:10421C000E4C0F4D002323700378EB5CD2B273B1BC
:10422C000430FEF7D5FC18B10A4A5321FEF7B4FE50
:10423C00094B1A7812B12378002BFBD038BD0C3007
:10424C00FEF77CFAEFE700BFA0040020951A0020CF
:10425C0058180020A3850000541A002008B50848FF
:10426C00084A0378D35C3BB10430FEF715FCBDE87B
:10427C0008400020FFF792BF0C30FEF7E9F9F6E793
:10428C00A0040020581800200120FFF787BF000071
:10429C0008B5FFF7F9FF0448042100F0DFFA034BDF
:1042AC0001225A7108BD00BF9C6C0000B4040020B0
:1042BC00027812F0040316D002F00303012B03D092
:1042CC00022B09D0012070470A6800880232C0F323
:1042DC00831002440A60F5E70B684288023303EB53
:1042EC0092130B60EEE71846704700002DE9F04F73
:1042FC00414C884685B00546871C00201646FFF7C2
:10430C00A3F86268C8F80020A36803F580739B1AB1
:10431C0004F21C4804F5836A04F21449BB4217D317
:10432C000021002E63D005F00F05AD0145F0050509
:10433C0065F30F016368DAB203323B44002044F8A2
:10434C0022106360FFF782F8012005B0BDE8F08F02
:10435C0001214046FFF711FB5046FFF726FB48466C
:10436C00FFF723FBA0680090C0B2033004EB800081
:10437C006946FFF79DFF20BB009BDAB204EB82027B
:10438C00D16801919A1C0133DBB204EB83030092D8
:10439C00D3F80CB001F00303012B20D0022B13D067
:1043AC0083464846FFF704FB08B1009BA3605946BF
:1043BC004046FFF7E2FAA368626803F580739B1A24
:1043CC00ACE79DF80000D0E7BDF80630C3F38913C5
:1043DC0003334FEA1B4B02EB93030093E1E7BDF869
:1043EC000430C3F383134FEA1B4B1344F5E7AD05BD
:1043FC0045F006019EE700BF681B0020064B0748EE
:10440C0010B500221A70FFF73AFD044610B90448A3
:10441C00FFF7A2FD204610BD681B0020AC6C00000D
:10442C008486000030B50A4C71B10A4A0A49121B45
:10443C00D20800239A4201D1002030BD31F823501C
:10444C00854202D00133F5E7034654F83300F4E714
:10445C00046C00009C6C000000000020094B01392A
:10446C0003EBC000032909D8DFE801F00A020406B7
:10447C0004207047007970474079704700207047DE
:10448C0002207047046C000070470000034BD3E916
:10449C000130C31A58425841704700BF681B0020B6
:1044AC002DE9F04385B0FFF7F1FF0546002840F0F9
:1044BC00E280724CC4F81804BFF34F8FA3680093CA
:1044CC00DBB2033304EB83006946FFF7F1FE009B7C
:1044DC0018B1D4F81824002A5CD0DAB29F1C01332E
:1044EC0004EB8202DBB204EB8303D268DB68029339
:1044FC0002F00303022B0192009756D1BDF806304F
:10450C005F48C3F389184646502E28BF502666F3E1
:10451C008F1306F10801ADF80630FFF7C8FC05460D
:10452C00002800F09380FFF7F1FC002301A908227A
:10453C002846FFF7FDFCFB43DBB20133F9B2033134
:10454C00B6EB830F4FEA830904EB81012AD90823C8
:10455C004A46A6EB09062846FFF7EAFCF6B249499B
:10456C0009F10803324608F10308284607EB9807BF
:10457C00FFF7DEFC0097D4F81834D4F81064002B45
:10458C0053D02846FFF7C6FCFFF780FF80F00100F0
:10459C00C5B203E062689A4292D8A260284605B080
:1045AC00BDE8F08308233246DDE7012B4ED1BDF880
:1045BC0004303348C3F38311062928BF062161F365
:1045CC008913023101F00F018900ADF80430FFF7B7
:1045DC006EFC0546002839D0FFF798FC0023082212
:1045EC0001A92846FFF7A4FC0026BDF80420C2F35D
:1045FC008312B300964203F10803BCD200994A1C03
:10460C00C9B20331009204EB810104222846FFF762
:10461C008FFC0136E9E7F3685B7923B133682946EF
:10462C001B6830469847F3681E68002EF3D1284665
:10463C00FFF770FC3046FEF707FFD4F818340BB9BF
:10464C00009BA3600020FEF701FF9DE7D4F8104407
:10465C0054B90D4B0D480E49C01AC008000440F067
:10466C00020000F05FF88FE7236820469B689847AC
:10467C00E3681C68ECE7002590E700BF681B00208E
:10468C00AC6C0000741B0020046C0000346C000047
:10469C006D8600002DE9F34704460E46924601A9AB
:1046AC00012218469946FFF721FE1C4F10B3019DBD
:1046BC004FF00008AA1CC84508EB020125D1184888
:1046CC000021FFF737F980F31000000440EA144092
:1046DC00E4006B1C04F03804DBB2EDB244F00104CE
:1046EC0007EB8303033544EA881444EA8624D86034
:1046FC0047F825403B781BB1FFF7D2FE0028FBD1D1
:10470C00FFF7C2FE02B0BDE8F087C9B207EB81012A
:10471C005AF82830CB6008F10108CCE7681B002060
:10472C00841F002000231A46FFF7B4BF07B50123EE
:10473C00019201AAFFF7AEFF03B05DF804FB07B5C9
:10474C00CDE9002302236A46FFF7A4FF03B05DF80E
:10475C0004FB1FB5CDE90123069B039301AA032398
:10476C00FFF798FF05B05DF804FB1FB5CDE90023FA
:10477C00069B0293079B03936A460423FFF78AFF69
:10478C0005B05DF804FB7FB5CDE90123089B0393CD
:10479C00099B04930A9B059301AA0523FFF77AFF53
:1047AC0007B05DF804FB00002DE9F7430446D01C6C
:1047BC008846164601A900228008FFF797FD254D73
:1047CC0080B3019FB81C0190C0B2C0F58073B6EBEA
:1047DC00830F00F103004FEA830905EB800028D812
:1047EC003246414601F0A2FD1B480021FFF7A2F81A
:1047FC0080F310007B1CDBB205EB8303220C42EA36
:10480C000042DA60FFB2E300033703F0380343F0F1
:10481C00020343EA865255F8273003F47C13134302
:10482C0045F827302B787BB9FFF72EFE03B0BDE897
:10483C00F0834A46414601F079FDA6EB090208EBEC
:10484C00090105F10C00CDE7FFF72AFE0028FBD18A
:10485C00EAE700BF681B0020841F002030B50F4C16
:10486C00D4F810240023114639B9C1680B7152B920
:10487C00C4F810040A60184630BDC9680D799D4211
:10488C0006D00968F0E7D26814680C601060F2E793
:10489C0001330A2BE7D14FF0FF33ECE7681B002004
:1048AC0038B5084B0125D3F810441D7004B938BD38
:1048BC00E3685D71236820465B689847E3681C6871
:1048CC00F4E700BF681B002007B503460846197AB9
:1048DC00052911D05B7A2BB1094A0A490190FFF7DF
:1048EC00C1F8019808490190FFF7BCF8019803B092
:1048FC005DF804EBFFF7ABB8002AF8D0F2E700BF85
:10490C0090860000A88700007589000030B5C38828
:10491C0085B004460D4633B1144A00921449154A29
:10492C002846FFF79FF8217A05291DD0637A4BB1F1
:10493C00A088FFF793FD104B104953F82020284610
:10494C00FFF790F8227A0E4BA08853F8222003929E
:10495C000021FFF767FD039A0A490346284605B074
:10496C00BDE83040FFF77EB805B030BD9086000042
:10497C009D860000958600001C870000A88700001B
:10498C0040870000B58600002DE9F04385B01F4636
:10499C000C9D002395F80C902B7306460C46904604
:1049AC0029463846FFF7B2FFB8F1060F09D8DFE801
:1049BC0008F00412181F2833400031462846FFF730
:1049CC0051F8002229463846FFF77EFF85F80C90F7
:1049DC0005B0BDE8F083226831462846FFF742F85F
:1049EC00EFE7D4E9002331462846FFF73BF8E8E728
:1049FC00A36800933146D4E900232846FFF732F828
:104A0C00DFE7E3680193A36800933146D4E9002300
:104A1C002846FFF727F8D4E723690293E36801934C
:104A2C00A36800933146D4E900232846FFF71AF80F
:104A3C00C7E76369039323690293E3680193A3684F
:104A4C0000933146D4E900232846FFF70BF8B8E76A
:104A5C0008292DE9F74F80460E4617461C463DD8CF
:104A6C0000251B7B2573214610460193FFF74EFF53
:104A7C00DFF88CA0DFF88CB0AE4232D918F80520E4
:104A8C0059462046FEF7EEFF0135082DF4D11B499F
:104A9C00DFF874A0DFF874B02046FEF7E3FF4FF0A8
:104AAC0000094E4524D918F809507E2D1ED82846E9
:104ABC0001F0B8FB002814BF2A462E225946204686
:104ACC00FEF7D0FF09F10109B9F1080FE9D1012274
:104ADC0021463846FFF7F8FE019B237303B0BDE86F
:104AEC00F08F51462046FEF7BDFFCDE72E22E5E7BD
:104AFC0051462046FEF7B6FFE4E700BFC98600002A
:104B0C00C5860000BF860000C7860000CB8600006B
:104B1C00D0E9012393423FBF026842F823100133CE
:104B2C00836034BF00200420704730B585B0144634
:104B3C0001AA1D4600F06EF820B92A46214601A8AC
:104B4C0000F022F805B030BD38B50C4A0C4B0D49BD
:104B5C009B1ADB081B048268054643F00300FFF731
:104B6C00E5FD0024AB68A34200D838BD2B68204675
:104B7C0053F8241000F0D2F80134F3E7046C000071
:104B8C00546C0000548700002DE9FF47D0E90198D0
:104B9C00156804460E4617460DF10C0A9DB1CDF86A
:104BAC0000A033460DF10B0241464846039500F038
:104BBC0063F848B920689DF80B30826803F0BF0396
:104BCC002AB9802B05D00B2004B0BDE8F087002B50
:104BDC00F9D14146FFF79CFF0028F5D19DF80B3029
:104BEC00039A03F07F03402BA5EB020104D13B6831
:104BFC0013445B1B3B60E7E72368D3E90130984221
:104C0C0006D0164409F1080908F118080D46C5E745
:104C1C000420D9E70B682F2B30B518D900F10C05FF
:104C2C002424303BB3FBF4F3013305EB83045460D1
:104C3C0004EBC30410609460C0E9005318250022F3
:104C4C0005FB03448260201A0860104630BD042026
:104C5C00FCE738B5044615464268084629B12B686E
:104C6C00934206D3216801F061FB63682B6000203E
:104C7C0038BD0420FCE70000F0B5059F3C68022C11
:104C8C0001D80920F0BD1C7804F00704072C08BFDC
:104C9C0005240C701C7824F03F0414701D785E7889
:104CAC000E7215F0100FD7F800E026D09C78DA1CA5
:104CBC004FF0030C15F0080529D00CF1010CF4454C
:104CCC00DFD812F8013B4B704D78731923446344C1
:104CDC007345D6D8F6B194463244C1F80CC00DB128
:104CEC004A602A44002C08BF0022C0E900240A4A6A
:104CFC0048610A6100203B60C4E7BEF1050FC0D9D2
:104D0C00D3F802409A1D24BA4FF0060CD2E74D702E
:104D1C004D60D9E7B446E0E75F4C000013B5214B7A
:104D2C000C4621495B1ADB081B0402461F4943F061
:104D3C0003000190FFF7FAFC1D4B2278019853F801
:104D4C0022201C49FFF7F2FC6368019843B11A4911
:104D5C00FFF7E8FC019862786168FFF725FD019880
:104D6C00E3684BB115490190FFF7DCFC0198227AFE
:104D7C00E168FFF719FD01982269114B9A420FD196
:104D8C0063691A6832B15A680E4902B0BDE8104026
:104D9C00FFF7CCBC0C4902B0BDE81040FFF7C2BC19
:104DAC0002B010BD5C6C0000046C00008B8700002E
:104DBC0070880000A3870000AA8D0000AB8700005C
:104DCC005F4C0000B1870000CA87000000210184FD
:104DDC00C0F81210C182102201F0DEBAF7B50C46F1
:104DEC000546FFF7F3FF22782A70B4F801305BBA5E
:104DFC006B80E7782F71606800BAA860217A2973FC
:104E0C001FFA83FCC3F30723667A6E7383EA0C03E1
:104E1C005A40668982F08802D2B276BA97422E82C4
:104E2C0008D1030C83EA1063434083EA1023DBB2FE
:104E3C00994209D04448454B4549C01AC008000462
:104E4C0040F00200FFF76EFC237BE12B4ED1637B1D
:104E5C001B09AB74627B02F00F02EA74A67BF600AE
:104E6C00AE82E27B1209AA75E27B012B02F00F02E3
:104E7C00EA7567D110231E446F464FF0000CB34205
:104E8C0002D1002003B0F0BDC7E900CC2EDA0F2B05
:104E9C002CD9E05C8DF80000591C89B250B3FE2867
:104EAC002AD08E4222DD0F2920D9625CFF2A1FD125
:104EBC00CA1C96421ADB2144B1F8012052BA92B2B4
:104ECC00FE2A13D904339BB2ADF802203AB11A442E
:104EDC0096420BDB0F2B09D92344019393B2022882
:104EEC000CD9FE280ED1BDF80220CAB10B20C9E79F
:104EFC000233E8E70B46F6E70023F4E7BDF802209F
:104F0C00032AF3D12A8C298B91420FD0E96901EB4A
:104F1C00C20E97E8030001328EE803002A8402E0F7
:104F2C0008B1FE28EED1002BA9D1AAE7074B064801
:104F3C000849C01AC008000440F00200FFF7F2FB59
:104F4C0004209FE706209DE7646C0000046C0000C1
:104F5C0090880000C28800002DE9F047264B274CB2
:104F6C002749284FDFF8BC80DFF8BC90E41AE4082E
:104F7C002404054644F003042046FFF7D3FB2A8C97
:104F8C0021492046FFF7D2FB00262B8C9E4201D3F1
:104F9C00BDE8F087EB69394613F836202046FFF759
:104FAC00C5FBEB6913F83630032B4FEAC60A06D85B
:104FBC00013B022B1CD8DFE803F008151700FD2B72
:104FCC0014D0FE2B16D0494600E010492046FFF7BE
:104FDC00A9FBEB690E49534420465A88FFF7A6FB00
:104FEC000136D2E70B49F1E70B49EFE74146EDE714
:104FFC000A49EBE70A49E9E7046C0000646C00001D
:10500C00FB88000029890000108900003C89000001
:10501C0083890000498900005889000071890000CB
:10502C0078890000658900004588000010B50446A9
:10503C00002852D0002950D0002A4ED0A368808876
:10504C00002B2CD000284AD0B0F5807F34BF05232C
:10505C0007230344A0899BB228B1B0F5807F8CBF95
:10506C00023301339BB2108898423AD313802378D1
:10507C000B7063784B7063881B0A8B706388CB70E2
:10508C00A36873B90B1DA089002238B1B0F5807FDD
:10509C001ED9000A1870A1895970104610BD04233E
:1050AC00D7E7A288FF2A10D900230B71A3881B0A0B
:1050BC004B71A2888A71CB1DA288A168184601F099
:1050CC0035F9A28803461344DDE74B1D0A71F3E75B
:1050DC0001D11A70E1E71870DFE70E20DEE7072038
:1050EC00DCE70420DAE7A0B199B1012A13D9022A2E
:1050FC004FF0000318BF023A436018BF8280036070
:10510C008360838818BF8160CB5A5BBA0380002010
:10511C0070470E207047092070470000104A114B51
:10512C0013B59B1A0446DB081B0443F003002288CA
:10513C000D490190FFF7FAFAA368019853B10B4996
:10514C00FFF7F0FAA288A168019802B0BDE8104000
:10515C00FFF72ABB064902B0BDE81040FFF7E2BAE0
:10516C00046C00006C6C0000A6890000BA89000079
:10517C00C88900002DE9F041044686B000285CD0B7
:10518C000368002B59D0002957D0A2F10F039BB212
:10519C004FF6EF70834252D8E388002B51D0002396
:1051AC00A3800B885BBA23818B781B09A3738B7844
:1051BC0003F00F03E373B1F803305BBA6381B1F80A
:1051CC000530D51F5BBAA381CF1DADB24FF01408CB
:1051DC005DB9A27B2368032A9B7C2AD1062B14BFC2
:1051EC000B20002006B0BDE8F0810DF1020239461B
:1051FC0001A8ADF8025000F079FA0028F2D1BDF800
:10520C000230B4F804E01F44EB1A9DB2E3887345F6
:10521C0017D00DF1040CBCE80F00266808FB0E66D5
:10522C000FC60EF1010EDCF800303360A4F804E078
:10523C00CEE7022A07D1042BD1E70E20D2E70920B2
:10524C00D0E70420CEE70B20CCE770B58288056848
:10525C0000231426D8B2904201D3002005E006FBAF
:10526C000050013384898C42F4D170BD13B56C4667
:10527C0084E806001946FFF7E8FF034630B194E8CE
:10528C00030083E80300002002B010BD0520FBE7FB
:10529C001B4A1C4B73B59B1ADB0804461B0443F0DA
:1052AC00030019490190FFF73DFA2289174901982B
:1052BC00FFF73CFAE37BA27B15490198FFF73FFA15
:1052CC00628914490198FFF731FAA28912490198B1
:1052DC00FFF72CFAA28811490198FFF727FA142638
:1052EC000023A288D8B2824203F1010501D802B092
:1052FC0070BD216806FB001100F076FA2B46F0E732
:10530C00046C0000746C0000F3890000178A000024
:10531C00228A00003A8A0000438A00004C8A00006E
:10532C001022002101F038B87FB5FA2B0E46154635
:10533C008DF807302AD8FA230DF10E022946ADF864
:10534C000E30FFF773FE0446E8B99DF80E100DF110
:10535C0007032A46284600F00BFE044698B99DF830
:10536C00072029463046FFF7BEFE044658B93046A2
:10537C00FFF7D4FE338846F68222934208D0B3F569
:10538C00104F18BF0324204604B070BD0424FAE764
:10539C000524F8E783890233FF2B02D8DBB2FFF731
:1053AC00C3BF06207047F8B505460846A9681C46D9
:1053BC0071B11B88AE889F1997420BDC324618449A
:1053CC0000F0B4FF2388AA88134423800020F8BD82
:1053DC000E20FCE70420FAE730B5164B164C1749A3
:1053EC00E41AE4082404C7B044F00300FFF79AF968
:1053FC0003A8FFF795FFA4238DF80D304FF48063BD
:10540C00ADF80E300E4B05930723ADF810304FF46A
:10541C008073ADF8183007AA0223694603A8FFF77A
:10542C0083FF0849054644F00500FFF77BF9284641
:10543C0047B030BD046C00007C6C0000A48A0000F6
:10544C006E8B00007589000070B5184B184CE41A6F
:10545C004EF20313E4089842C6B005464FEA0444E2
:10546C0005D00246134944F00300FFF75FF9124ED2
:10547C002B0A03A833707570FFF752FFA4238DF825
:10548C000D300C23ADF80E3007AA0223694603A891
:10549C00ADF810300596FFF77DFF0849054644F03E
:1054AC000500FFF73FF9284646B070BD046C0000BC
:1054BC007C6C0000CB8A0000202000207589000045
:1054CC0008B50848084B0949C01AC008000440F048
:1054DC000300FFF727F9BDE808404EF20310FFF771
:1054EC00B3BF00BF7C6C0000046C0000ED8A0000B0
:1054FC00F0B5334B334E3449F61AF608D9B03604AE
:10550C000024074646F00300ADF80640FFF70AF901
:10551C0005A8FFF705FFB0238DF8153019AA0F2346
:10552C0002A905A8ADF81640ADF82030FFF732FF00
:10553C00044688B90DF10603402209A902A8FFF719
:10554C0032FF044640B9BDF82450BDF80C306DBA9A
:10555C00ADB29D4203D20B24204659B0F0BDED1ADA
:10556C00ADB2BDF8062055B909A93846FFF702FEC1
:10557C001649044646F00500FFF7D4F8ECE70F2D6A
:10558C002B46ADF8162028BF0F2319AA02A905A88F
:10559C00ADF82030FFF7FEFE04460028DCD10DF1FB
:1055AC000603402209A902A8FFF7FDFE04460028C5
:1055BC00D2D1BDF80C30AB42CDD8EB1A9DB2D0E7AE
:1055CC00046C00007C6C0000148B000075890000DA
:1055DC002DE9F043404B414DED1AED08CBB02D04B5
:1055EC00002407460E4645F003003D49ADF8064041
:1055FC009046FFF797F807A8FFF792FEB0238DF8B7
:10560C001D300BAA022304A907A8ADF81E40ADF863
:10561C002830FFF7BFFE0446B8B91FFA88F80DF121
:10562C0006034246314604A8FFF7BDFE044660B9A6
:10563C00B6F80090BDF8143099FA99F909F10209FD
:10564C001FFA89F9994504D20B2420464BB0BDE8CA
:10565C00F083A9EB03091FFA89F9BDF80630B9F1FB
:10566C00000F12D1ADF80C301E4B02961B8802AA0B
:10567C005BBA06CA9BB23846FFF7F8FD1A490446D6
:10568C0045F00500FFF74EF8DFE7ADF81E307B89DB
:10569C00F22B28BFF2234B4528BF4B460BAA04A97B
:1056AC0007A8ADF82830FFF775FE04460028CCD1CA
:1056BC000DF106034246314604A8FFF774FE04467A
:1056CC000028C2D1BDF814304B45BDD8A9EB03035B
:1056DC001FFA83F9C1E700BF046C00007C6C00006A
:1056EC00398B000020200020758900001388012BC5
:1056FC0070B505460C46164601D8092070BD14221B
:10570C00002100F049FE2378AB746378FF2B0CD199
:10571C003388032BF1D963885BBA9AB2FE2A2B82A9
:10572C0004F1040303D80B20E8E72B82A31C2A8A7C
:10573C001C1B14443288A4B2A242DED33480A97C50
:10574C002A8A052914D80329EDD9062AEBD1188801
:10575C0040BA82B2A88143F6FF708242E3D0B2F520
:10576C00804F09D2002ADED0B2F57C5F0CD1DAE78B
:10577C000629D8D1082AE9E74EF20310824210D844
:10578C004EF201108242CED8052919D0062920D01C
:10579C0004290AD002331A78AA735B78EB730020C1
:1057AC00ACE74FF6FF708242E0E75A8852BA92B2E9
:1057BC00AA600433053A4FF6F9718A42EBD9B2E785
:1057CC005A8852BA92B2AA600433033A4FF6FB716C
:1057DC00F3E7D3F8022012BAAA60A2F57F42FF3A8F
:1057EC00063312F1011FE9E737B5274B274CE41AB2
:1057FC00E4080D4624040246254944F003000190B8
:10580C00FEF794FFAA7C0198052A2FD0062A30D0E7
:10581C00042A30D11F49FEF789FF01982A8A1E49B4
:10582C000190FEF783FFAA891C490198FEF77EFFC1
:10583C00AA681B490198FEF779FFAA7B19490198C0
:10584C00FEF774FF0198EA7B1749FEF76FFF2B6890
:10585C00019893B1AA881549FEF768FFAA882968B0
:10586C00019803B0BDE83040FEF79EBF104901908F
:10587C00D1E71049FBE71049F9E7104903B0BDE83F
:10588C003040FEF74FBF00BF046C0000846C00007A
:10589C00758B0000898B0000138C0000298C000094
:1058AC00428C0000598C0000788C0000988C000011
:1058BC00AA8B0000D28B0000FC8B0000BF8C000078
:1058CC000369C26893429CBF81685B18013B981ABC
:1058DC0070472DE9F041D0E902840546A8EB040697
:1058EC004068964220440F46144404D900F01EFD33
:1058FC00EC60BDE8F0813246A4EB080400F016FD24
:10590C0068682246B919F1E72DE9F843C5680646DF
:10591C00894617464FF000083369B46870689D4299
:10592C0028BF1B19641BBC4203F1FF3328BF3C4644
:10593C005B1B9C4228BF1C4649462844224600F06B
:10594C00F5FCB3682544AB4208BF00253F1BA044BF
:10595C00A144F560E0D14046BDE8F88310B5114C88
:10596C00114AA2610223C4E90433104BE361A2641F
:10597C004FF400730E4A0F492362E2640023102295
:10598C00E01DA3626362E362A3656365E365226560
:10599C0000F084FC0849204600F080FC2023A37111
:1059AC0010BD00BF24200020FA8C0000AC20002089
:1059BC009C200020038D0000078D0000F8B5184BCB
:1059CC00182400FB044504FB00300F46C46A012C6C
:1059DC0016461D440FD0022C1AD0F4B92846FFF7F6
:1059EC006FFF864205D8324639462846FFF771FFCD
:1059FC0034462046F8BD2846FFF762FF86423446FF
:105A0C0028BF0446224639462846FFF762FFF0E7D6
:105A1C002846BDE8F840FFF777BF0024E9E700BF50
:105A2C002420002070B50B4B1B7804460D461646FF
:105A3C000BB9FFF793FF0020FDF706FD3246294610
:105A4C002046FFF7BBFF04460020FDF7FFFC204675
:105A5C0070BD00BF2420002038B5054D044645F02C
:105A6C0001054FF47A40A847013CFAD138BD00BF7C
:105A7C0020900000F8B504461348144F00F0CFFAFC
:105A8C002178134800F0D7FD25466178114800F0C5
:105A9C00D2FDA178104800F0CEFD15F8031F0F4879
:105AAC0000F0C9FD6FF00206361BE27873199A42BA
:105ABC0004DCBDE8F8400A4800F0B1BA15F8011F43
:105ACC00384600F0B8FDF0E70E8D0000708C000039
