:10000000000001201902000001020000B13A0000C6
:1000100005020000070200000902000000000000C5
:100020000000000000000000000000000B020000C3
:100030000D020000000000000F020000110200008D
:100040001302000013020000092000006D230000CD
:100050001302000013020000BD1E00001302000086
:10006000130200001302000013020000130200003C
:10007000130200001302000013020000130200002C
:1000800013020000CD39000013020000130200002B
:10009000130200001302000013020000130200000C
:1000A00013020000130200001302000013020000FC
:1000B0001302000013020000000000000000000016
:1000C00013020000130200001302000013020000DC
:1000D00013020000130200001302000000000000E1
:1000E0000000000000000000000000000000000010
:1000F0000000000000000000000000000000000000
:1001000000000000000000000000000000000000EF
:1001100000000000000000000000000000000000DF
:1001200000000000000000000000000000000000CF
:1001300000000000000000000000000000000000BF
:1001400000000000000000000000000000000000AF
:10015000000000000000000000000000000000009F
:10016000000000000000000000000000000000008F
:10017000000000000000000000000000000000007F
:10018000000000000000000000000000000000006F
:10019000000000000000000000000000000000005F
:1001A000000000000000000000000000000000004F
:1001B000000000000000000000000000000000003F
:1001C000000000000000000000000000000000002F
:1001D000000000000000000000000000000000001F
:1001E000000000000000000000000000000000000F
:1001F00000000000000000000000000000000000FF
:10020000FEE7FEE7FEE7FEE7FEE7FEE7FEE7FEE7C6
:10021000FEE7FEE700F002B8FFF7FCBF0F484FF023
:100220000701884385460E4880470E48016841F41F
:1002300070010160BFF34F8FBFF36F8F00F01AB8EA
:1002400009480A490A4A884207D0521A05D0037859
:1002500001300B700131013AF9D1704700000120E3
:10026000A90D000088ED00E0905C00000000002077
:1002700000000020344935480A1A02D00722914371
:100280008D46334933480A1A06D00722914381F339
:100290000988022282F314882F483049304A00F03E
:1002A00041F830483049314A00F03CF83048314993
:1002B000314A00F037F831483149324A00F032F81B
:1002C00031483249324A00F02DF832483249334A37
:1002D00000F028F832483349334A00F023F8334815
:1002E0003349002200F029F832483349002200F057
:1002F00024F832483249091A05F066FC314A904721
:100300001F482049884205D00268043003B4904752
:1003100003BCF7E700208646EC46002000212A4A6D
:100320009047FEE7884207D0521A05D00378013083
:100330000B700131013AF9D17047884202D0027046
:100340000130FAE7704700000000012000E00020C3
:100350000000012000000120847C0000000000203B
:10036000B4040020CC030000CC030000DC5B0000E0
:10037000847C00000000002000000020905C000051
:10038000905C0000905C0000905C0000905C0000BD
:10039000905C0000905C0000905C0000847C000099
:1003A00038810000B4040020B4040020B40400200C
:1003B000041A0020041A0020041A0020041A002045
:0C03C000043A0020410200005107000038
:1003CC0037B50024032501F077F9CDE90045012369
:1003DC0049221821062001F0A5FA18210846CDE97A
:1003EC0000450123442201F09DFACDE9004501238B
:1003FC004C2218212A2001F095FACDE90045012361
:10040C00452218213C2001F08DFA03B0BDE83040A4
:10041C0001F004B92DE9F04385B0012501F04CF948
:10042C00002406212B460846CDE90045432201F065
:10043C0079FA2B46CDE900456F2206210C2001F0FC
:10044C0071FA2B46CDE9004575220621122001F0E8
:10045C0069FA2B46CDE900456E220621182001F0E1
:10046C0061FA2B46CDE90045742206211E2001F0CD
:10047C0059FA104B104A5B68052102A805F065F883
:10048C0002AD074618264FF00308A146A74204DC2C
:10049C0001F0C4F805B0BDE8F083CDE9009830B2A6
:1004AC0015F8012B01231821123601F03BFA013407
:1004BC00B6B2EBE7B4040020705F000010B5044640
:1004CC00084804F097FD2378012B05D1FFF7A2FF14
:1004DC00054B02221A7010BD032BFCD1BDE8104055
:1004EC00FFF76EBF905C0000C804002073B50E4689
:1004FC0005460146434805F08AF8012E7FD1424C4F
:10050C002378002B6BD0142D21D01A2D10D00F2D49
:10051C0075D163683D480133636004F06BFD61681D
:10052C003B4805F074F802B0BDE87040FFF772BFAD
:10053C00384804F05FFD616829B9374802B0BDE85E
:10054C00704004F057BD013934486160E9E7344824
:10055C0004F050FD4FF0A04300254FF000422570F1
:10056C0065602572C4F80950C4F80D50A4F81150F8
:10057C000324C3F80C2501F09FF8334644221821BC
:10058C000620CDE9005401F0CDF918210846334678
:10059C004F22CDE9005401F0C5F933464E22182103
:1005AC002A20CDE9005401F0BDF9452218213C2048
:1005BC003346CDE9005401F0B5F901F02FF8194A92
:1005CC00194814704FF4004102F0A6FFB8B1174A55
:1005DC0040F26F2102B0BDE8704002F063BE1448D7
:1005EC0004F008FD134B14481449C01AC008000449
:1005FC0040F0030002B0BDE8704004F021BA02B034
:10060C0070BD00BFA55C0000B4040020D05C0000ED
:10061C00DB5C0000F15C0000FE5C00001B5D000078
:10062C00305D0000C8040020100000203F5D000079
:10063C00C65D0000DC5B00000C5C0000E55D0000AA
:10064C0008B54FF48041002004F066F818B11E4A3A
:10065C00F22102F027FE03F0A9FF02211B4804F04F
:10066C00D6FF1B4840F26662022102F081FD20B1E8
:10067C00154A4FF4257102F015FE164804F0BAFC29
:10068C0002F0CEFD20B1104A4FF4267102F00AFEA2
:10069C00114804F0AFFC4FF0A0430322C3F87C27B1
:1006AC0002F0F6FE18B1084AF92102F0FBFD0B4AE4
:1006BC000B48002102F01EFF28B1BDE80840024A99
:1006CC00FB2102F0EFBD08BD3F5D0000055E0000A0
:1006DC0000000020165E0000325E0000C90400001D
:1006EC00845F00001FB50F4B0FCB6C4684E80F00E6
:1006FC00162218230C48CDE9002304F07BFC0023C0
:10070C0021460A481A4601F0BFF9044630B10146A9
:10071C00074804F07CFF204604B010BD054801F0EA
:10072C00EDFEF8E7745F0000455E0000300000202D
:10073C00545E0000340000200148002100F0BCBDD4
:10074C003000002038B5FFF77BFF4948494C04F0D6
:10075C0051FC494B4649E41AE408240444F00304D0
:10076C00204604F06DF904F029F80028FBD1FFF7BE
:10077C00B9FF20B1414A40F2A63102F093FD404945
:10078C00204604F05DF904F019F80028FBD1FFF7BE
:10079C00D3FF20B1394A40F2AB3102F083FD394925
:1007AC00204604F04DF904F009F805460028FAD16A
:1007BC00354804F01FFC354800F0D2FD344804F0F5
:1007CC0019FC2A463C21022000F006FE314804F0B8
:1007DC0011FCFFF7F5FD20462F4904F031F92B48A9
:1007EC0000F082FA20B1254A40F2BD3102F05AFDE8
:1007FC002A49204604F024F900F0A2FA054600F03C
:10080C00CDF92749204604F01BF900F083F920B1FB
:10081C001A4A4FF4637102F045FD2249204604F058
:10082C000FF903F0CBFF0028FBD100F083FA1E492F
:10083C000246204604F008F903F0C0FF0028FBD163
:10084C001A494FF49A72204604F0FEF803F0B6FFF2
:10085C000028FBD14FF49A722946204604F032F955
:10086C0003F0ACFF0028FBD100F0DCF9FEE700BF81
:10087C00795E00000C5C0000DC5B00003F5D00005A
:10088C008C5E00009C5E0000AE5E0000300000201C
:10089C00C45E0000D85E0000ED5E0000095F000041
:1008AC00245F00003B5F0000535F0000605F0000AE
:1008BC0038B5054D0F2445F001054FF47A40A84793
:1008CC00013CFAD138BD00BF50630000F0B5254B98
:1008DC00254EF61AF6083604044603460A468DB031
:1008EC000D4646F00300214904F0B7F8042C0AD950
:1008FC001F4B2049224646F0010004F0AEF80727B2
:10090C0038460DB0F0BD042D03D9194B1A492A46AF
:10091C00F1E704EB4401890101F5506101EB45114C
:10092C0089B2062203A803F08BF8074648B1104B96
:10093C000093124923462A4646F0010004F097F82A
:10094C00DEE73C235C4302350D4BBDF80C2004EB79
:10095C00C5010B4452BA9A81DDF80E2012BA1A6105
:10096C00CEE700BFDC5B00000C5C0000885F000081
:10097C00DA620000BA5F0000006000004E60000008
:10098C00CC0400202DE9F047364B374D3749ED1A92
:10099C00ED082D04044602468AB045F0030004F02D
:1009AC0053F8042C0BD9324B3249224645F0010046
:1009BC0004F053F8072630460AB0BDE8F08704EB84
:1009CC004401890101F54E6189B2202201A803F08E
:1009DC0037F8064630B12849224645F0010004F0AC
:1009EC0033F8E8E7254F9DF804204FF03C09C4EBA1
:1009FC00041809FB04794FEA880808F1090089F802
:100A0C0008200DF10501384404F07CFC99F808101D
:100A1C0001F128036B4408F1140013F8232C89F816
:100A2C00132001AB02313844194404F06BFC08F17B
:100A3C0013084744B24699F813305345BBDD17F8F9
:100A4C00011F2046FFF742FF804640B1084B0C497E
:100A5C00224645F0010004F000F84646ABE70AF1E7
:100A6C00010AE8E7DC5B00000C5C0000976000000A
:100A7C00EF620000BA5F0000C7600000CC040020E9
:100A8C000A610000F0B51E4B1E4CE41AE408240465
:100A9C0044F003048BB006460D4620461A4903F079
:100AAC00CFFF06224FF44C6101A802F0C9FF0746A4
:100ABC0030B11649204603F0C3FF38460BB0F0BDE9
:100ACC009DF824201249204603F0BEFF03F076FE69
:100ADC000028FBD19DF8242001A9204603F0F2FF49
:100AEC009DF8043033706A1E01ABC5F101053078F6
:100AFC00A9188842E1DD13F8011F02F8011FF6E77F
:100B0C00DC5B00000C5C0000426100005D610000D9
:100B1C008A6100002DE9F843184B194C19491A4EFB
:100B2C00E41AE408240444F0030003F089FF174995
:100B3C00481EFFF7A7FF0546A0B9B1460746337814
:100B4C00BB4215DD19F8010FFFF71CFF804690B171
:100B5C003E440F4B72780F4944F0010003F07DFFC7
:100B6C00454605E00A4A0C4944F0010003F06CFFCD
:100B7C002846BDE8F8830137E1E700BFDC5B0000E5
:100B8C000C5C0000AC610000CC040020CD04002003
:100B9C001A6300000A620000D96100002DE9F041DF
:100BAC001B4B1C4CDFF87880E41AE40824048AB050
:100BBC0044F003070025690101F54C6189B20A2252
:100BCC0001A802F03DFF064668B1134A134944F0F0
:100BDC00010003F039FF03F0F1FD0028FBD1304692
:100BEC000AB0BDE8F081FFF763FE2A46414638465D
:100BFC0003F02AFF01350A2201A9384603F062FFEF
:100C0C001F2DD8D103F0DAFD0028FBD1E7E700BF98
:100C1C00DC5B00000C5C0000C56200004B62000055
:100C2C00546200002DE9F04F274B284C284EDFF87A
:100C3C00A4B0E41AE408240493B044F0030400259F
:100C4C00B04698F80030AB4206DC03F0B7FD002844
:100C5C00FBD113B0BDE8F08F16F8019F3C2303FBCA
:100C6C00098708370FCF0DF10C0CACE80F000FCF34
:100C7C00ACE80F000FCFACE80F0097E807008CE84A
:100C8C0007009DF80C200DF10D01204603F01AFF12
:100C9C000DF1170A00279DF81730BB4201DC013516
:100CAC00CFE71AF8013F12A99A1C01EBC2022046A9
:100CBC0052F8341C019132F8382C009259464A46AD
:100CCC0003F0E1FE0137E6E7DC5B00000C5C0000A2
:100CDC00CC0400205C62000002484FF49A720021A0
:100CEC0004F046BBCC04002038B50D4B0D4C0E491E
:100CFC00E41AE4082404054644F0030003F0A0FEC3
:100D0C00284602F067FE054638B1084A084944F007
:100D1C00010003F099FE284638BDFFF7DDFFFAE726
:100D2C00DC5B00000C5C00008E620000396300008C
:100D3C00A2620000014B1878704700BFCC04002061
:100D4C0000487047CC0400204FF08053D3F830019A
:100D5C00421C04BF4FF0704393F8E00F831F5842BE
:100D6C00584170474FF0704393F8E02F062A09D191
:100D7C00D3F8E83FC3F30313033B042B02D8024A16
:100D8C00D05C70470020704765630000024AD2F8BF
:100D9C000034002BFBD0704700E0014010B5FFF78A
:100DAC00D3FF40B14FF08053944AD3F82433C3F3AC
:100DBC000423C2F84035FFF7D5FF10B1904B914A90
:100DCC005A67FFF7C1FF48B14FF080534FF0804294
:100DDC00D3F84432C3F34233C2F83C35FFF7C2FFB9
:100DEC0030B1894AD2F8FC3023F08073C2F8FC3061
:100DFC00FFF7AAFF40B14FF080430022C3F80C214B
:100E0C00C3F81021C3F83825FFF7ACFF20B14FF021
:100E1C0080430322C3F8A025FFF7A4FF60B17B4BEE
:100E2C000522C3F810260122C3F888260022C3F835
:100E3C0018263F22C3F814264FF08053D3F83021E4
:100E4C00511C09BF4FF07043D3F8343193F8E02FA5
:100E5C00D3F8E83F08BFC3F30313062A4DD1033B75
:100E6C00042B03D86A4AD35C002B46D04FF0805237
:100E7C00684BD2F80414C3F82015D2F80814C3F840
:100E8C002415D2F80C14C3F82815D2F81014C3F892
:100E9C002C15D2F81414C3F83015D2F81814C3F862
:100EAC003415D2F81C14C3F84015D2F82014C3F82A
:100EBC004415D2F82414C3F84815D2F82814C3F8F2
:100ECC004C15D2F82C14C3F85015D2F83014C3F8C2
:100EDC005415D2F83414C3F86015D2F83814C3F88A
:100EEC006415D2F83C14C3F86815D2F84014C3F852
:100EFC006C15D2F84424C3F87025FFF725FF48B1D0
:100F0C004FF080534FF08042D3F8583203F04F0328
:100F1C00C2F8E43EFFF718FF48B14FF08043D3F816
:100F2C000024D20744BF6FF00102C3F800244FF035
:100F3C008053D3F83021062A0ED1D3F83431033B39
:100F4C00042B02D8344AD35C33B1344AD2F83C3740
:100F5C0043F48063C2F83C372B4AD2F8883043F410
:100F6C007003C2F88830BFF34F8FBFF36F8F4FF011
:100F7C008053D3F83021062A0FD1D3F83431033BF8
:100F8C00042B02D8264AD35C3BB14FF01023D3F884
:100F9C0008224FF08043C3F858254FF01023D3F8A4
:100FAC000022002A03DBD3F80432002B22DA1D497D
:100FBC0001234FF01020C1F804351524FFF7E6FE8D
:100FCC00C0F80042FFF7E2FEC0F80442FFF7DEFE75
:100FDC000023C1F80435FFF7D9FEBFF34F8F0A4940
:100FEC00114BCA6802F4E0621343CB60BFF34F8F1E
:100FFC0000BFFDE70D4B0E4A1A6010BD00300140DA
:10100C0000C007400DF0ADBA00ED00E0005000400C
:10101C005663000000C000405B63000000100040FD
:10102C006063000000E001400400FA05400000206D
:10103C000090D00338B5054D044645F001054FF43A
:10104C007A40A847013CFAD138BD00BFA06400002B
:10105C004FF0A043D3F81005034B1B79D840C04385
:10106C0000F00100704700BF4400002038B5044672
:10107C00FFF7EEFF002508B9A54200D138BD0120CD
:10108C00FFF7D8FF0135FFF7E3FFF4E770B506462D
:10109C0064200D46FFF7EAFFB0B10D4BDB799BB92D
:1010AC00FF2D13D00B4A10680B4A6B1CDBB22421AA
:1010BC00043001F0B0FA044620B908492A463046FB
:1010CC0004F020F9204670BD0324FBE70624F9E761
:1010DC004400002004080020010700200207002023
:1010EC0013B506216846FFF7D1FF044680B94FF4CB
:1010FC007A72FFF7ADFF18B1013A92B2002AF8D11B
:10110C0005490622684604F063F9002818BF032439
:10111C00204602B010BD00BFA66400001B4BDB795B
:10112C00F7B507460C466BBBF8292DD8184D2B701C
:10113C006B70FF23AB704B1CEB70D426CB430A4671
:10114C002B7101466E71A81D04F0DCF838463A1973
:10115C003346904211D10F49254408685B42002266
:10116C00AB7104F10803EA71DBB200922421084A46
:10117C00043001F03DFA03B0F0BD10F8011B0B4434
:10118C00DBB2E6E70320F6E70720F4E74400002093
:10119C00010700200408002037B504460F480191D0
:1011AC00154603F027FF20460199FFF7B7FF0446C9
:1011BC0030B101460A4804F02AFA204603B030BD8B
:1011CC002846FFF753FF20B9064803F013FF03240A
:1011DC00F3E703B0BDE83040FFF782BF6A6300005D
:1011EC0081630000A963000070B5154D022306460B
:1011FC004FF47A72012128462B70FFF7CDFF04467D
:10120C0028B101460F4804F002FA204670BD0D21AA
:10121C002846FFF73BFF044610B101460A48F2E7A7
:10122C000A490622681C04F0D3F820B1084803F0E0
:10123C00E1FE0524E9E7D5F807301BBA3360E4E793
:10124C0001060020BE630000F8630000AC640000DF
:10125C001C640000431E032B10B517D80C4C142330
:10126C0023706070A3704FF47A720123042120461E
:10127C00E370FFF791FF40B909212046FFF706FF05
:10128C0018B9A379152B18BF052010BD0720FCE752
:10129C0001060020074B32221A70FF2205219A709A
:1012AC000122DA70187159704FF47A721846FFF7F0
:1012BC0073BF00BF0106002037B51E4B1E4D1860D2
:1012CC002B7803B191B31D4BDA798ABB19794FF0A6
:1012DC00A04001F5E07140F821205B7903F5E07343
:1012EC0040F823206420FFF7A5FE154803F082FE8A
:1012FC0001A8FFF779FF044630B10146114804F00C
:10130C0086F9204603B030BD0120FFF7A3FF044649
:10131C000028F6D1FF20FFF7BDFF04460028F0D1CE
:10132C00012309482B7004F072F9EAE70C46E8E750
:10133C000324E6E7040800200006002044000020F7
:10134C003A6400004B64000072640000034B1B788D
:10135C00002B0CBF03200020704700BF1A0C00208C
:10136C00064A0123137038B1054913700860054A09
:10137C00054913703C200870704700BF270C0020F3
:10138C001C0C00201A0C0020100800201FB504466D
:10139C00FFF7DCFF18B10C4AE82101F083FF0B4B7F
:1013AC001B7873B10A4A0B4910688DF80D40002365
:1013BC0000938DF80C300978022303AA043001F055
:1013CC0017F904B010BD00BFB2640000270C002058
:1013DC001C0C002010080020F8B5484B1870484B26
:1013EC001970484900230B8047490B804749012657
:1013FC00044647480E704FF6FF7101804548018046
:10140C00454946480E7046490B708021018045487D
:10141C0001804548402101804448018044490B70BB
:10142C00AAB14FF0A047434DC7F8086535434FF4B8
:10143C007A40A847C7F80C650A264FF47A40A847AB
:10144C00013EFAD14FF0A0430122C3F80825AE208B
:10145C00FFF79CFFD520FFF799FF8020FFF796FF41
:10146C00A820FFF793FF3F20FFF790FFD320FFF753
:10147C008DFF0020FFF78AFF4020FFF787FF8D20AC
:10148C00FFF784FF012C0CBF10201420FFF77EFF08
:10149C002020FFF77BFF0020FFF778FFA120FFF74C
:1014AC0075FFC820FFF772FFDA20FFF76FFF1220DD
:1014BC00FFF76CFF8120FFF769FF012C0CBF9F2009
:1014CC00CF20FFF763FFD920FFF760FF012C0CBF83
:1014DC002220F120FFF75AFFDB20FFF757FF4020B7
:1014EC00FFF754FFA420FFF751FFA620FFF74EFF94
:1014FC00BDE8F840AF20FFF749BF00BF110800203E
:10150C0010080020160C0020180C0020260C0020BF
:10151C00220C0020240C0020280C00200A0800209B
:10152C000C08002012080020080800200E080020DB
:10153C00200C00205065000050EA010350D4314BC0
:10154C00B3F9003083424BDD2F4BB3F900308B42A3
:10155C0046DD2E4B1B78022B21D0032B2AD0012BDE
:10156C0005D12B4B1B88013B5B1A014618B2012A93
:10157C0026D0022A35D0002A32D100290B46B8BF1A
:10158C00CB1D8022DB1013FB02032248012201F049
:10159C00070102FA01F1C25C22EA01021FE01C4BB6
:1015AC001B88013B1B1A18B21B4B1B88013B5B1A97
:1015BC0019B2DCE7184B1B88013B1B1A0846F7E7EE
:1015CC0000290B46B8BFCB1D8022DB1013FB020396
:1015DC00104801F0070101228A40C15C0A43C25441
:1015EC00704700290B46B8BFCB1D8022DB1013FBC4
:1015FC000203084801F0070101228A40C15C4A40FD
:10160C00EDE700BF120800200E080020200C00207F
:10161C000A0800204D0000200808002013B51E48C1
:10162C0003F0E8FC2220FFF7B1FE0020FFF7AEFE2E
:10163C000720FFF7ABFE2120FFF7A8FE0020FFF7E5
:10164C00A5FE7F20FFF7A2FE144B1B780BB3144CA6
:10165C00144803F0CFFC2046402300F8013B12490C
:10166C004FF4806203F04EFE104B114918680023B2
:10167C000093097840F201432246043000F0B8FF91
:10168C0038B10C4A40F2592102B0BDE8104001F0CB
:10169C0009BE02B010BD00BF27650000270C00205A
:1016AC0014080020376500004D0000201C0C0020A1
:1016BC0010080020B264000002484FF48062002140
:1016CC0003F056BE4D000020002930B53ADB214C0A
:1016DC00B4F900408C4235DD00281F4CBCBF80188B
:1016EC0002B2B4F90040B8BF00208518A542C4BFAF
:1016FC00241A22B2002A25DDCC1000EBC410174CA2
:10170C00204401F007040121A140012BC9B216D0DD
:10171C00022B0BD0B3B9C943C9B20244904211D0C9
:10172C0010F8013B0B4000F8013CF7E702449042F3
:10173C0008D010F8013B4B4000F8013CF7E702449D
:10174C00904200D130BD10F8013B0B4300F8013C36
:10175C00F6E700BF080800200A0800204D00002012
:10176C000028F0B56ADB474CB4F90040844265DDD3
:10177C000029454CBCBF521812B2B4F90040B8BF96
:10178C0000218D18A542C4BF641A22B2002A55DD6F
:10179C00C1F3C4043D4F00EBC41611F00701D2B2E3
:1017AC0007EB060023D0C1F10805EDB2384CAA4274
:1017BC00645D60D2A5EB020E4FF0FF0C4CFA0EFCF0
:1017CC00012B04EA0C0407D0022B38D0B3BB17F85A
:1017DC0006C02CEA040403E017F806C044EA0C0423
:1017EC00AA42BC552AD308391144CAB28030072A00
:1017FC0018D9022B00F1800126D1144611F8805C17
:10180C00083CE4B2ED43072C01F8805C01F1800147
:10181C00F4D8A2F10801C1F3C401013100EBC110ED
:10182C0002F0070252B11B49012B8A5C1CD0022B1F
:10183C001ED01BB9037823EA02030370F0BD17F81E
:10184C0006C084EA0C04CBE7012B4FF0FF3518BF20
:10185C000025EDB21446083CE4B2072C01F8805C7C
:10186C0001F18001F7D8D4E703781A430270E5E759
:10187C0003785A40FAE7012BAED0022BDFD0002BB5
:10188C00B1D1A4E70A080020080800204D00002070
:10189C00596A0000516A000010B40C4613490978CB
:1018AC0002290ED003291BD0012914D11049098813
:1018BC00891A091B0CB2014620465DF8044BFFF750
:1018CC0003BF0B4909880139091A08B2094909886B
:1018DC00891A091B0CB221465DF8044BFFF740BF77
:1018EC00044909880139091A08B2E4E7200C0020E0
:1018FC000A080020080800202DE9F041BDF81870F6
:10190C0088461E4604468518AC4201DBBDE8F081D2
:10191C0020463B46324641460134FFF7BDFF24B218
:10192C00F2E700002DE9F04F8BB007460393BDF8AA
:10193C00503004933C4B9DF85450B3F90030834223
:10194C0059DD3A4BB3F900308B4254DD062313FBBF
:10195C000503002B4FDD01EBC503002B4BDD344B96
:10196C001B781BB9AF2A84BF0132D2B202EB8203BF
:10197C000993062306938BB2059308339BB200247C
:10198C000893052C1CBF2B4B099A059E18BF1B19DD
:10199C0004EB070A18BF13F80290ABB2079304FBD1
:1019AC0005F313FA87F31BB207EE903A08BF4FF01A
:1019BC000009B0460FFA85FB0FFA8AFA19F0010FED
:1019CC0027D0012D1AD1039A31B25046FFF7B4FD3E
:1019DC00079B01369844089BB6B2B3424FEA5909AB
:1019EC001FFA88F8EAD1069B013B013413F0FF0380
:1019FC0064B20693C5D10BB0BDE8F08F039B009386
:101A0C0017EE900A5B465A460FFA88F1FFF774FFFF
:101A1C00DEE7DDE903239342DAD0012D01D11A462A
:101A2C00D2E7049BEBE700BF120800200E08002051
:101A3C000C080020566500001FB503788DF80030A7
:101A4C008388ADF8043083688DF80630C3688DF850
:101A5C000730036902934369054A0393054B6846B3
:101A6C0053F8213052F82110984705B05DF804FB6B
:101A7C002C0C0020340C0020024B4FF4807043F0EF
:101A8C0001031847706A00002DE9F047154690F8DD
:101A9C000090324A42F82950314A42F829304B7BA7
:101AAC0007460C4663B30868496882008B0002F154
:101ABC00A04203F1A04340F20C66C2F800674FF05D
:101ACC00010AC3F800674FF0A0460AFA00F00AFAC0
:101ADC0001F1C6F80805C6F8081540F20D61C2F808
:101AEC000017C3F80017FFF7C7FF4FF00008D6F830
:101AFC0010356268D340DB070DD5B8F1000F1DD14E
:101B0C00002D184A4B4608BF2A462146381DBDE811
:101B1C00F04700F085BC23680AFA03F3C6F80C35CD
:101B2C00FFF7AAFF23680AFA03F3C6F8083508F191
:101B3C000108FFF7A1FFB8F1090FD8D1636801269E
:101B4C004FF0A04806FA03F3C8F80C35FFF794FFE2
:101B5C0063689E40C8F80865D2E700BF340C0020CB
:101B6C002C0C0020451A00001FB503788DF80030AE
:101B7C004368019383688DF80830C368054A039362
:101B8C00054B684653F8213052F82110984705B0A0
:101B9C005DF804FB3C0C0020400C00201FB50378C2
:101BAC008DF800304368019383688DF80830C36862
:101BBC00054A0393054B684653F8213052F821101F
:101BCC00984705B05DF804FB3C0C0020400C00204D
:101BDC00F0B5194B90F800C091F81DE043F82C209B
:101BEC00164B16460A6943F82C20154B03F80CE0EB
:101BFC000C4607460FCC89B06D460FC594E80F0014
:101C0C0085E80F00CDF810C0BEF1000F09D0002EF2
:101C1C000C4A694608BF3246381D01F005F809B078
:101C2C00F0BD002E084A694608BF324607F10C0089
:101C3C0000F0E0FDF3E700BF400C00203C0C00205E
:101C4C00440C0020751B0000A91B000000F1804013
:101C5C0000F5C040002382B0036003680193019B30
:101C6C0002B07047800000F1A040D0F8003723F498
:101C7C004033C0F80037D0F8003743EA0141C0F8D0
:101C8C0000177047054B4FF0FF32072843F8202010
:101C9C0084BF1B1883F84820704700BF480C0020F5
:101CAC0010B5184991F8583053BB4FF0FF3222FA57
:101CBC0003F0C00748BFC81803F1010348BF80F800
:101CCC003020202BF3D10024E0B20134FFF7DAFFEF
:101CDC000C2CF9D10C4B0022C0204A6583F806036A
:101CEC00402018604FF4BE70FFF7B0FF074B4FF069
:101CFC000040C3F80403012381F85830104610BD8E
:101D0C000820FCE7480C002000E100E000600040E7
:101D1C00034B93F85800003818BF0120704700BFE0
:101D2C00480C0020F0B5394E331893F93030002BA5
:101D3C0069DA8D78C5F34005002D0BBF082300230D
:101D4C000C240824A34201D10420F0BD56F82370C2
:101D5C00013743D137185CB246F8232087F830405E
:101D6C0015B9F21882F848008A78550716D4D707A7
:101D7C0036D5820002F1A042D2F8005725F00205B8
:101D8C00C2F80057224FC50800F0070C012202FAD6
:101D9C000CF217F805C042EA0C027A558A780D78D5
:101DAC0012F0020225D09B0003F1804303F5C043DF
:101DBC000002D3F8102522F4473222F44072C3F803
:101DCC0010252D04D3F8102500F4F85005F44035F7
:101DDC0028431043C3F810050020B6E70133B1E7E0
:101DEC004D7800F5E0724FF0A047AD0047F8225057
:101DFC00C8E7083C46FA84F494F8503043EA85135B
:101E0C0084F85030E8E708209FE700BF480C00201A
:101E1C009C0C002010B51F4C231893F93020072A76
:101E2C0018DD083A44FA82F292F850309B09032BE1
:101E3C000BD14FF0A043D3F81015C14001F00101B4
:101E4C000231BDE81040FFF70DBF012B0CBF022182
:101E5C000321F6E7D3B2072B1AD8930003F1804382
:101E6C0003F5C043D3F8100540F00100C3F810058A
:101E7C0002F1400040B2800080B2FFF7E7FE39B1BA
:101E8C0054F8223023B101239340034AC2F804339F
:101E9C0010BD00BF480C0020006000404FF0A04374
:101EAC00D3F8103523FA00F000F001007047000061
:101EBC002DE9F34700244E4D01944FF4807201211B
:101ECC0002F1804303F5C04390B21B68012B06D18D
:101EDC00D5F804330B4202D0FFF7B8FE0C430432A2
:101EEC00B2F5907F4FEA4101EAD1414BD3F87C31F6
:101EFC00012B0CD14FF4BE70FFF7A8FE4FF0A0439E
:101F0C0044F00044D3F820250192C3F82025E3B215
:101F1C00D3B1384F00250126344210D0AB0003F169
:101F2C00804303F5C043D3F81005D3F8101557F8C8
:101F3C00253023B1C1F30141C0F30420984701358A
:101F4C00082D4FEA4606E7D1002C48DA294C4FF011
:101F5C00A047294D4FF00008012615F9013F5A1CE6
:101F6C0031D0C3F3C20108316944DAB211F8041C50
:101F7C0003F03F0903F0070306FA03F3194222D0DA
:101F8C0009F5E073484657F82330C3F3014ABAF118
:101F9C00020F0CBF03210221FFF764FE06FA09F3BE
:101FAC00C7F8203504EB090393F9303054F823308B
:101FBC004BB19109032904D0BAF1020F12D10129B6
:101FCC0001D14846984708F10108B8F1040FC4D173
:101FDC00D7F820350193C7F82035002BB9D102B0C2
:101FEC00BDE8F087BAF1030FEDD10229E8E700BF95
:101FFC0000600040480C0020970C0020014B1B682F
:10200C00184700BFA40C002038B50B4B98420C4667
:10201C0001D0002038BD002001F09CFB074B1D793E
:10202C0015B901221C601A71002001F095FB002DDE
:10203C00EFD01120EEE700BF00200040A40C0020E0
:10204C00034B984201BF034B00221A601A71704770
:10205C0000200040A40C00200023435082B04358C1
:10206C000193019B02B070478B6A4A6B9A4210B580
:10207C004FF0010305D2496A8A5CC0F81C251A4648
:10208C0004E091F82C201AB1C3610022104610BD57
:10209C000C6A640603D5C36181F82D30F6E7436101
:1020AC00EDE770B5D0F8046105460C4626B14FF447
:1020BC008271FFF7D1FF012694F82F2022B34FF441
:1020CC0092712846FFF7C8FF4FF48E71FFF7C4FFDB
:1020DC004FF48471FFF7C0FF002E69D094F82F20C5
:1020EC00002384F82D3092BBA36A616B99421CBF0C
:1020FC001646052386F001061CBFC5F80025C5F859
:10210C00003584F82F6023E0D5F824314BB14FF41F
:10211C0092712846FFF7A0FF01236B6184F82F30E2
:10212C00DAE7D5F81C31ABB14FF48E712846FFF7C6
:10213C0093FF636B01336363D5F8243113B14FF410
:10214C009271E7E72146FFF78FFF0028C4D10022E8
:10215C00104670BDD5F80831002BBDD04FF48471FA
:10216C002846FFF779FFD5F82431002BE7D1636BB4
:10217C00A16A8B42B0D2616AD5F81805C854636B5A
:10218C00A16A0133481E8342636308D1206A40066A
:10219C0010D40223C5F8003201232B629CE78B423A
:1021AC00FAD1236A5B0697D5022384F82D30CFE74A
:1021BC000122CDE78B42EFD1F6E7000037B5314B6A
:1021CC0001930D464FF48271FFF746FF4FF4927165
:1021DC00FFF742FF4FF48E71FFF73EFF4FF484710F
:1021EC00FFF73AFF0023C0F800326B6385F82F30FD
:1021FC000123036295F82D209A4218BF836029466B
:10220C000446FFF731FF2B6883B140F28623AB60A5
:10221C00AB68C4F80433002003B030BD2946204617
:10222C00FFF73FFF28B1019B013B0193019B002B62
:10223C00F4DC95F82F0050B9019B002BECDC00234B
:10224C00C4F800350523C4F800350320E4E7D4F8BE
:10225C00C434C4F8C43493B113F0010F14BF4FF459
:10226C000240032048F2012213F0020F18BF10465F
:10227C0013F0040F48F2022318BF1846DCE70320C2
:10228C00DAE700BFA086010037B5344B01930D4649
:10229C004FF48271FFF7E0FE4FF49271FFF7DCFE12
:1022AC004FF48E71FFF7D8FE4FF48471FFF7D4FE14
:1022BC0000236B6385F82F30AB6A012B044617D1D2
:1022CC002B6A5B0614D40223C4F800320123236268
:1022DC0095F82D20022A18BF23602B6893B140F289
:1022EC008623AB60AB68C4F80433002003B030BD68
:1022FC000123E9E729462046FFF7D3FE28B1019BCD
:10230C00013B0193019B002BF4DC95F82F0050B995
:10231C00019B002BEADC0023C4F800350523C4F82C
:10232C0000350320E2E7D4F8C434C4F8C43493B1C4
:10233C0013F0010F14BF4FF40240032048F20122A6
:10234C0013F0020F18BF104613F0040F48F20223CB
:10235C0018BF1846DCE70320DAE700BFA0860100AF
:10236C00F0B52C4C2C4887B02146FFF79AFE00287C
:10237C0047D194F82F70D4F820C0FFB9237B9A1E54
:10238C00012A1BD8616AA269914217D1E269626283
:10239C00CCF3401C62692048A262032B84F82CC049
:1023AC0084F82D70214604D107B0BDE8F040FFF74A
:1023BC0005BF07B0BDE8F040FFF766BF174E0FCE64
:1023CC0001AD0FC533682B60EFB1134AD2F8C4349A
:1023DC00C2F8C434990718D45A0718D403F001036F
:1023EC00C3F10403DBB28DF800301CF0040F4FF086
:1023FC00000384F8303000D01FB1D4E900316846B6
:10240C00984707B0F0BD3B46EDE70123EBE702230D
:10241C00E9E700BFAC0C002000300040B80C0020F5
:10242C002DE9F84F0779314E4FF03C0A0AFB07FAB9
:10243C0006EB0A059B4695F82E3080460C469146D5
:10244C00002B4FD12A490068FFF7DEFD00284BD145
:10245C002168637B85F8383001F5E0724FF0A043BA
:10246C00A860C5F804B085F8300085F82D0085F813
:10247C00310040F20C6546F80A9043F8225062682D
:10248C0002F5E07C43F82C50D8F80030C3F808155E
:10249C00C3F80C25A268C3F82425B9F1000F14D099
:1024AC00227B43F3073152010029C3F30733D2B225
:1024BC0013DB104C651885F800230122490903F041
:1024CC001F0302FA03F344F821303C2303FB076695
:1024DC00012386F82E30BDE8F88F074903F00F036F
:1024EC00CA54F2E70820F6E71120F4E7AC0C002000
:1024FC006D23000000E100E014ED00E003680279B8
:10250C000521C3F80015044B3C2101FB02330222C8
:10251C0083F82E20704700BFAC0C00202DE9F0474B
:10252C00314F0479D0F800903C2303FB04730D4623
:10253C0093F82D30012B944604D10B78012B06D146
:10254C00082011E0022B02D10B78012BF8D13C268C
:10255C00264BC9F8083306FB047696F830302BB1BD
:10256C00B368C9F804331120BDE8F0878CF004037C
:10257C00C3F3800386F83030C6F820C0A846B8E80C
:10258C000F0006F10C0EAEE80F00D8F80030CEF8B4
:10259C0000306B68B362EB6873626B78C9F888358E
:1025AC002B78C4EB041A012B07EB8A0A17D09BB9C2
:1025BC00CCF3401C3C2303FB0473514683F82CC022
:1025CC004846FFF7FBFD3C235C433A193B59002B73
:1025DC00CAD182F83030C7E74FF0010CEAE7514618
:1025EC004846FFF751FEEEE7AC0C00208642040093
:1025FC0010B586B00024CDE904249DF820208DF878
:10260C000510520101A9CDE902348DF80440FFF701
:10261C0085FF06B010BD10B586B0012402930023CF
:10262C00CDE903328DF805101A4601A98DF8044046
:10263C000593FFF773FF06B010BD0023435082B023
:10264C0043580193019B02B070470A4610B54FF4F2
:10265C008E71FFF7F2FF136A9168C95C136A01333C
:10266C001362C0F81C1510BD8B690A4610B54FF4E7
:10267C00847123B9FFF7E1FFD0F8183510BDFFF7CF
:10268C00DCFF536AD168D0F81805C854536A01337B
:10269C005362F3E71FB501238DF80030044BCDE9ED
:1026AC000110D3E900126846904705B05DF804FBB1
:1026BC00E80C002030B54D4DD5F804339A0585B0A3
:1026CC0051D5D5F82431002B4DD04FF492712846BA
:1026DC00FFF7B3FF4FF40173C5F80833444B93F87D
:1026EC0029200AB901226A60404902228DF8002093
:1026FC00D1F88024C1F8802403929A690292DA6896
:10270C0001920022C3E906226846D3E900129047E1
:10271C003648D0F81C315BB1354A5169136A99427D
:10272C004DD992F82830002B49D11146FFF78DFF77
:10273C002E48D0F84431002B56D04FF4A271FFF73D
:10274C007CFF2B4B93F829200AB1012202609A6975
:10275C00002A49D0586AD96800229A6105B0BDE8B0
:10276C003040FFF797BFD5F804335B07D0D5D5F8C9
:10277C000831002BCCD01E4C1C482146FFF774FFAF
:10278C00636AA2699A42C3D1E369E1684BB1A36160
:10279C002369E3600023606AE3616362FFF77AFFF9
:1027AC00B6E794F829300BB901236B600F4B4FF44B
:1027BC000172C3F808230023606AA361EEE70B489B
:1027CC004FF48E71FFF739FF5369002BB0D051696C
:1027DC000291002391688DF8003001915361684695
:1027EC00D2E900139847A3E705B030BD00200040A4
:1027FC00E80C00202DE9F843534D90F804802C236D
:10280C0003FB0853064693F82A300C469146002BDE
:10281C0040F095804D490068FFF7F6FB074600280D
:10282C0040F08F8021683368481C0BD04FF0A040DB
:10283C0001228A40C0F8082501F5E0724FF0030C24
:10284C0040F822C06068421C1FBF00F5E0724FF0D8
:10285C00A04C4FF0000E4CF822E0A269C3F82425DE
:10286C0094F814C0627DBCF1010F4CEA0202C3F86B
:10287C006C25C3F81405C3F80C151DD1A1684A1CAE
:10288C001FBF01F5E0724FF0A0404FF0000C40F874
:10289C0022C0E268501C0BD04FF0A04C012090409D
:1028AC00CCF8080502F5E0704FF0030E4CF820E070
:1028BC00C3F80825C3F810152C2303FB08F3EA18FA
:1028CC00C2F804902269EA50B9F1000F1FD03068A9
:1028DC00227F4FF48E71FFF7B0FE4FF4A271FFF719
:1028EC00ACFE1B4BC0F8043340F3073153010029F5
:1028FC00C0F30730DBB21DDB164A541884F80033E2
:10290C000123490900F01F00834042F8213033684D
:10291C000422C3F800252C2303FB08530022C3E92F
:10292C00062283F829205A61012283F82A2038468E
:10293C00BDE8F883084A00F00F001354E7E70827B6
:10294C00F5E71127F3E700BFE80C0020C1260000D3
:10295C008000020000E100E014ED00E0F8B503682F
:10296C000579304C0022C3F800252C2202FB0542CD
:10297C005268A2B12C4AC3F80823190B43F307334E
:10298C00002B0CDB01F01F015B0901228A40203374
:10299C00264941F82320BFF34F8FBFF36F8F006898
:1029AC00D0F80C65D0F81415D0F80835D0F81025EF
:1029BC004FF0FF37BE42C0F8147518BF06F5E0762D
:1029CC00C0F80C75C0F80875C0F810751EBF4FF034
:1029DC00A0474FF0020C47F826C04E1C1FBF4FF00B
:1029EC00A04601F5E071022746F82170511C1FBF6B
:1029FC004FF0A04102F5E072022641F822605A1C09
:102A0C001FBF03F5E0734FF0A042022142F82310E0
:102A1C00FFF716FB2C2303FB0544002384F82A3014
:102A2C006360F8BDE80C00208402020000E100E0C5
:102A3C000279044B2C2101FB02335869003818BF72
:102A4C0001207047E80C00202DE9F84F074690F85C
:102A5C00048089469346FFF7EBFF0446002839D1E2
:102A6C001E4E2C2508FB056A4FF48E71CAF814B063
:102A7C00CAF80890CAF820008AF828003868FFF7CE
:102A8C00DCFD012383605146FFF7DFFDDAF80430EB
:102A9C0055460BBBDAF814402B6A9C4210D8D0F880
:102AAC001C31002BFBD00123C36000202C2303FB23
:102ABC00086600237361BDE8F88F95F828303BB9A0
:102ACC00D0F81C31002BF8D05146FFF7BEFDE3E7E0
:102ADC000F20EBE71120EEE72046ECE7E80C002096
:102AEC000023435082B043580193019B02B07047BE
:102AFC001FB501238DF80030044BCDE90110D3E94B
:102B0C0000126846904705B05DF804FB140D0020D8
:102B1C007FB5434AD2F82461002E60D010464FF4A2
:102B2C009271FFF7DDFF02238DF80030D2F880346C
:102B3C00C2F880340393D2F83C350293394BDA68EF
:102B4C0001920022C3E906226846D3E9001290479D
:102B5C003348D0F8443173B14FF4A271FFF7C0FF82
:102B6C00304B9A693AB10022C3E90622D968D0F8F1
:102B7C003C05FFF7BDFF2A48D0F82031ABB14FF42C
:102B8C009071FFF7ADFF0123C360264B5A6962B108
:102B9C00D0F84C150291002299688DF80020019113
:102BAC005A616846D3E9001290471D48D0F8583155
:102BBC009BB14FF4AC71FFF793FF1A4B5A6962B19A
:102BCC00D0F84C150291002299688DF800200191E3
:102BDC005A616846D3E90012904704B070BDD2F830
:102BEC001031002BB4D04FF488711046FFF778FFEA
:102BFC000C4BD2F83C0599698842A9D1DC69D9689B
:102C0C0064B1D2F8005225F02005C2F800521A69BE
:102C1C009C61DA60DE61FFF76BFF99E79C61FAE774
:102C2C0000200040140D00202DE9F843584D90F879
:102C3C000480242303FB0853064693F820300C46EB
:102C4C009146002B40F09F8052490068FFF7DCF959
:102C5C000746002840F0998021683368481C0BD047
:102C6C004FF0A04001228A40C0F8082501F5E0721F
:102C7C004FF0030C40F822C06068421C1FBF00F5E7
:102C8C00E0724FF0A04C4FF0000E4CF822E0A2691D
:102C9C00C3F8242594F814C0627DBCF1010F4CEAF2
:102CAC000202C3F86C25C3F80C15C3F814051DD12A
:102CBC00A1684A1C1FBF01F5E0724FF0A0404FF015
:102CCC00000C40F822C0E268501C0BD04FF0A04C16
:102CDC0001209040CCF8080502F5E0704FF0030E8F
:102CEC004CF820E0C3F80825C3F81015242303FB87
:102CFC0008F3EA18C2F804902269EA50B9F1000FFF
:102D0C002BD03068227F4FF48871FFF7E9FE4FF427
:102D1C009071FFF7E5FE4FF49271FFF7E1FE4FF46F
:102D2C00A271FFF7DDFE4FF4AC71FFF7D9FE1A4B21
:102D3C00C0F8043340F3073153010029C0F30730C6
:102D4C00DBB21BDB154A541884F800330123490904
:102D5C0000F01F00834042F8213033680822C3F88A
:102D6C000025242303FB08550023C5E906336B61BA
:102D7C00012385F820303846BDE8F883084A00F076
:102D8C000F001354E9E70827F5E71127F3E700BF15
:102D9C00140D00201D2B00001003420000E100E088
:102DAC0014ED00E0F8B5444C0579242303FB0543EE
:102DBC0002465B680068ABB1404BC0F8083340F387
:102DCC000733002B4FEA10360CDB06F01F065B09AD
:102DDC000121B14020333A4E46F82310BFF34F8FF8
:102DEC00BFF36F8FD0F8003223F02003C0F800320D
:102DFC00242303FB05439B692BB14FF4A271FFF70E
:102E0C006FFE012343604FF4AC71FFF769FE0123A1
:102E1C00C360242303FB0543D0F858110029FBD0D1
:102E2C00996919B1D0F844110029F5D00023C0F8E4
:102E3C0000351368D3F80C75D3F81465D3F808254E
:102E4C00D3F810154FF0FF3C6745C3F80CC518BFFD
:102E5C0007F5E077C3F814C5C3F808C5C3F810C567
:102E6C001EBF4FF0A0434FF0020C43F827C0771C55
:102E7C001FBF4FF0A04306F5E076022743F82670FB
:102E8C004E1C1FBF01F5E0714FF0A043022643F822
:102E9C002160531C1FBF4FF0A04302F5E0720221CA
:102EAC0043F82210FFF7CCF8242303FB054400233E
:102EBC0084F820306360F8BD140D0020100342002C
:102ECC0000E100E00279044B242101FB0233586934
:102EDC00003818BF01207047140D002001F060432A
:102EEC00B3F1005F2DE9F0470746884692463AD188
:102EFC0090F80490FFF7E6FF0446002835D11D4EEC
:102F0C003A68242505FB09654FF490711046C5F805
:102F1C0014A0C5F80880FFF7E3FD4FF4AC71FFF780
:102F2C00DFFD6B69A968C2F84415C2F84835012366
:102F3C0093606B68DBB9D2F82031D2F858011BB919
:102F4C000028F8D00F2007E00028FBD10123D36024
:102F5C00D2F85831002BFBD0242303FB0966002345
:102F6C007361BDE8F0871020FBE71120F9E72046DC
:102F7C00F7E700BF140D0020C30710B507D4F023EA
:102F8C00054A4008145C23401943115410BD090133
:102F9C00C9B20F23F4E700BF480D002030B5094B30
:102FAC001C78094B196800239C4202DC0022104655
:102FBC0030BD11F83350854201EBC302F7D0013319
:102FCC00F2E700BF380D0020580D002013B5044661
:102FDC000191FFF7E3FF38B143682BB1019920460B
:102FEC0002B0BDE81040184702B010BD034B0448B6
:102FFC0019680022490800F08FBA00BF3C0D002070
:10300C005004002010B5C0B2FFF7C8FF044600788A
:10301C00FEF744FF63785A1E53425341834208D152
:10302C00044AD2E90032134303D1BDE81040FFF744
:10303C00DDBF10BD400D002038B5344A43080446AE
:10304C00D35CC2074CBF1B0903F00F030D46042BC6
:10305C005AD8DFE803F003222B373A00002953D06B
:10306C000121FFF789FF002000F074FB0122A4F17D
:10307C002003C4F12000264922FA00F002FA03F3DF
:10308C000343A240D1E9004014431843C1E9004076
:10309C00BDE83840002000F05FBB003918BF0121AB
:1030AC0049002046BDE83840FFF766BF41B1032117
:1030BC00FFF762FF20460121BDE83840FFF786BFCD
:1030CC000121EEE701BB0421EBE709B10321E8E79D
:1030DC00FFF752FF29462046FFF778FF284600F0FD
:1030EC0039FB0122A4F12003C4F12000084922FA83
:1030FC0000F002FA03F30343A240D1E9004024EAB2
:10310C00020420EA0300C1E738BD00BF480D0020CF
:10311C00400D00202DE9F041124E134F002433785E
:10312C00A34208DC114AD2E90032134318D0BDE89F
:10313C00F041FFF75BBF3D6805EBC40815F83400A0
:10314C00FEF7ACFE98F801305A1E53425341181A40
:10315C004142414115F83400FFF76EFF0134DEE7C0
:10316C00BDE8F081380D0020580D0020400D0020E6
:10317C00092AF7B505460C4616463ED9FEF7C8FD9A
:10318C00E8B11F4B1F481D601F4B204F1C70204B7C
:10319C00002110221E6002F0EBF81E4B00200021D3
:1031AC00C3E90001013CE4B20326FF2C0DD11A4AFD
:1031BC001A48002103B0BDE8F04000F09BB9FEF7BF
:1031CC006FFD0028DDD003B0F0BD9DF8063015F87A
:1031DC0034008DF8046005EBC40223F007038DF86E
:1031EC00063001A993788DF805303A46FEF79AFD22
:1031FC00013CE4B20028D8D0E5E70720E3E700BFA4
:10320C00580D0020480D0020380D00201130000012
:10321C003C0D0020400D0020213100009C6A000074
:10322C0070B5084D084E00242B789C4201D3002029
:10323C0070BD3368012113F83400FEF7EBFD013447
:10324C00F2E700BF380D0020580D002082B001239A
:10325C008DF807309DF80730114B1860596044F217
:10326C00010188429A6012D044F20201884206D1D0
:10327C00DA60DA6812689A61DA685268DA6172B6F2
:10328C009DF80730002BFBD162B602B070471A6173
:10329C001A6992685A611A6912689A611A69ECE79C
:1032AC005C0D002000B583B002900091019244F2B5
:1032BC00010071466A4600F003F803B000BD00003F
:1032CC00F0B5064687B00F46154672B601F076FC8F
:1032DC0001F074FA0028FBD11E4B1F4CE41AE408D1
:1032EC0044F2010324049E4244F0010417D044F23A
:1032FC0002039E4228D1D5E900321849204601F03C
:10330C00ACFB174BD3F8F030DB0700D500BE2A46D8
:10331C003946304607B0BDE8F040FFF797BFAA68C2
:10332C000592104601F054F82968029701916968DA
:10333C0000910346059A0B49204601F0B2FB0A495D
:10334C00204601F07DFBDCE708493A46204601F0B7
:10335C007BFBD6E7DC5B00000C5C0000A06A000085
:10336C0000ED00E0BA6A0000E06A0000F46A0000B8
:10337C0010B5D0E90242D1E90203A04293412CBF1F
:10338C000120002010BD000008B50A4800F001FB28
:10339C00094AD2E90031C018084BD3E9002341F1A6
:1033AC000001904271EB030303D210F1807041F1E4
:1033BC00000108BD70040020800D0020F80D0020D5
:1033CC0037B505460C460A4801A900F02CFC60B143
:1033DC000570446001A9064800F04FFC18B105487F
:1033EC0000F0DCFA002003B030BD0420FBE700BF86
:1033FC00E40D002070040020234B70B51E780446A9
:10340C0016B90026304670BD0028FAD0FFF7BCFF75
:10341C00D4E90223904299412FD3002000F09AF96D
:10342C0023692BB94FF0FF324FF0FF33C4E902236D
:10343C00002000F091F9D4E905309847002000F005
:10344C0089F925696DB1D4E90212B2F1FF3F08BFC9
:10345C00B1F1FF3F0FD0691842F10002C4E902122A
:10346C003546002000F078F9002DCAD007482146D7
:10347C0000F069FFC6E70025F3E7B3F1FF3F08BF93
:10348C00B2F1FF3FBDD0F1E7880D00201C6B0000AE
:10349C0013B5114B11491868019008231048582294
:1034AC0000F0AEFB044698B90E4A0F4801A900F093
:1034BC0063F9044660B90C48012100F04DFA012370
:1034CC000A4A0948194600F0AFF9094B01221A7053
:1034DC00204602B010BD00BF166B00008C0D002002
:1034EC00E40D00208535000070040020FFFF7F00F4
:1034FC00880D002030B56AB103684FF0FF344FF0EF
:10350C00FF355A614A1E5142C3E9024551411961C6
:10351C00002030BD0720FCE7F8B504460020174614
:10352C000D4600F017F9D4E90223B3F1FF3F08BFB1
:10353C00B2F1FF3F15D1FFF727FF281841F1000129
:10354C00C4E902010126002000F006F95EB12369EE
:10355C00A76103B1256121460020BDE8F840FFF7C3
:10356C002FBF0026EFE73046F8BD0000014800F001
:10357C0010BA00BF700400202DE9F743064600F096
:10358C00F3F940B1624AD2E9003113F1807341F191
:10359C000001C2E900310021304600F0F4F938B1E5
:1035AC005C4C236823B12068FFF726FF00232360BF
:1035BC000121304600F0E7F920B1FFF7E5FE564B4C
:1035CC00C3E900015548534C01A900F066FB4FF0CC
:1035DC00FF384FF0FF39A0B9DFF844814D4D40461C
:1035EC0000F0C7FE002800F08580D0E90223B3F17B
:1035FC00FF3F08BFB2F1FF3F32D1404600F0B3FEAF
:10360C00EDE70378012B20D0022B08D1444D28463E
:10361C0000F0A9FE002877D0C0E90289F7E75BB972
:10362C004168D1E90223B3F1FF3F08BFB2F1FF3F7C
:10363C0002D03B4800F087FE01A9384800F058FB47
:10364C0001A9364800F029FBC5E741682368994277
:10365C0002D100232360EFE7314800F08DFEEBE749
:10366C00296891B12968D1E9020182428B412FD29C
:10367C002B68D3E90223B3F1FF3F08BFB2F1FF3F40
:10368C0003D02968404600F05EFE404600F06BFE19
:10369C00D0E902490746FFF777FE201A69EB0101D2
:1036AC00012871F1000918DBB0F5350F13D3FFF7C2
:1036BC005DFF1C4A02441C484FF49603002100F0A5
:1036CC00D3F890B92B6813B9304600F0A5F82F60E9
:1036DC0003B0BDE8F0832246EDE71348002100F06B
:1036EC0048F93846FFF788FE01E00D28F9D0002391
:1036FC002B6074E7074B1B68002BE9D1304603B0F5
:10370C00BDE8F04300F08CB8084B01221A7093E727
:10371C00800D0020000E0020F80D0020E40D00208C
:10372C001C6B0000FFFFB40070040020880D00200B
:10373C0072B6024A1368013313607047040E0020FE
:10374C00034A1368013B136003B962B6704700BFAC
:10375C00040E0020FFF7ECBFFFF7F2BF435882B016
:10376C003BB10023435043580193019B012002B00D
:10377C0070471846FBE70000F8B51F4B44791F4E05
:10378C0043F824201E4A1F4B06EBC4049B1A2279D3
:10379C00DB081B0432B143F002001B4901F050F965
:1037AC000820F8BD02680C88C2F8084590F904504E
:1037BC008A7804795201002DD2B218DB13494F19C3
:1037CC0087F8002301226D0904F01F04A24041F880
:1037DC002520427906EBC201012446F832000C7117
:1037EC0043F003000A4901F02BF90020D9E70949FD
:1037FC0004F00F040A55ECE7100E0020080E002010
:10380C00DC5B00001C5C0000286B000000E100E0A9
:10381C004A6B000014ED00E0036801221A60704747
:10382C00036801225A60704773B501F15005AD0071
:10383C000068ADB24FF480348C400026C0F80843C9
:10384C00C0F84843465101F5A8714559019522F03D
:10385C007F42019D40F82120C0F844430BB1C0F8D1
:10386C00044302B070BD00002DE9F74F0D4622F065
:10387C007F4402684FF4803705F150068F40804634
:10388C00B60002EB8500C2F84873B6B2C2F80873F2
:10389C00D2F8041599464FF0000BD0F84035C0F81B
:1038AC00401542F806B05B1A9259009223F07F4300
:1038BC00012B009A4FEA850A0CD1264B4FF48060FD
:1038CC0043F001039847D8F8003043F806B09B59F1
:1038DC000193019BD8F80020D2F80465C2F8447318
:1038EC00A31B23F07F43012B1CD11A4B05F5A875A4
:1038FC00013443F0010342F825404FF480609847AF
:10390C00D8F80030D3F804359E4209D1D8F80030ED
:10391C000020C3F84473C3F8047303B0BDE8F08F00
:10392C000D20FAE79244C9F1FF13CAF84045D2F8CA
:10393C000405211A013921F07F4103F57F438B42A5
:10394C00EED30029E2D10134CAF84045D2F804354F
:10395C009842DAE7606B000003680222C3F8442344
:10396C0009B1C3F80423704700684FF48271FFF764
:10397C00F5BE4FF4803303FA01F10368C3F8481322
:10398C00C3F80813704750318900006889B2FFF7FB
:10399C00E5BE0368D3F804057047000090F90430C5
:1039AC00002B09DB5A09012103F01F03994002F196
:1039BC004003024A42F82310704700BF00E100E0C8
:1039CC00024B034A1B681068184700BF100E0020FA
:1039DC00080E0020144A08B5137873B1134B144821
:1039EC001449C01AC008000440F0030001F028F884
:1039FC00104801F0FFFA032008BD70B90B4B0C48BE
:103A0C000D49C01AC008000440F0030001F018F87A
:103A1C00094801F0EFFA0E20EEE708490860012191
:103A2C0011701846E8E700BF140E0020DC5B0000A4
:103A3C000C5C0000666B00008D6B0000180E002003
:103A4C007FB5144E4BBA044615461348ADF80C30EE
:103A5C00CAB2090A01F0DBFD30680023009303AA07
:103A6C00022357210430FEF7C3FD28B10B4801F0A7
:103A7C00C1FA032004B070BD30682B462246572192
:103A8C000430FEF7C8FD08B10548F0E784F8205073
:103A9C00F0E700BF180E0020B26B0000ED6B0000C9
:103AAC000B6C00001EF0040F1CBFEFF309800AE042
:103ABC00EFF308800549064A884201D8904202D8A3
:103ACC008D464FF00000034B18470000000001200A
:103ADC0000E00020093B0000BFF34F8F0549064B67
:103AEC00CA6802F4E0621343CB60BFF34F8F00BF90
:103AFC00FDE700BF00ED00E00400FA052DE9F347F7
:103B0C00054601F05BF800F059FE0028FBD1304B64
:103B1C00304C9F6A304BE41AE408240444F001044E
:103B2C00002D4FD0AA692D49204600F08DFFEB687F
:103B3C000193AB682A4900932046D5E9002300F095
:103B4C00A2FFEB6900932749D5E90423204600F036
:103B5C008EFF1F4BDB6A990703D52349204600F0E3
:103B6C006FFFDFF89490DFF894A000264FF0010867
:103B7C0008FA06F33B4206D059F826201AB15146F2
:103B8C00204600F061FF01361A2EF1D13A0605D518
:103B9C000F4B16495A6B204600F056FF17F4004F96
:103BAC000B4E04D0B26B1249204600F04DFFD6F8F4
:103BBC00F030DB0700D500BE2846FFF78DFF02B0C2
:103BCC00BDE8F0870B49204600F03AFFC1E700BF83
:103BDC0000ED00E0245C0000DC5B00002B6C0000BE
:103BEC00406C0000756C0000D06C00001F6D000074
:103BFC003F6D00009D6C00001C720000146D0000F5
:103C0C0010B561B1B2FBF3F403FB1424A4B244B9B4
:103C1C00C0E9001484608281C381204610BD0E204F
:103C2C00FCE70920FAE737B550E8013F9DB2C4899B
:103C3C0025448489A54228BF2D1B0489A54202BFB7
:103C4C00BFF32F8F002207E0C5EA030540E80154BB
:103C5C00002CE9D14FF001028DF803200193019A59
:103C6C000A609DF8031001F0FF0321B1006810FAFF
:103C7C0082F003B030BD1846FBE70A884B889A42A5
:103C8C0009D150E8012FC2EA024240E80123002B7F
:103C9C00F7D1012070470020704737B550E8023F3C
:103CAC001FFAA3F5C488A54202BFBFF32F8F0022D1
:103CBC000DE0C48925448489A54228BF2D1BC3EA85
:103CCC00054540E80254002CE8D14FF001028DF874
:103CDC0003200193019A0A609DF8031001F0FF0381
:103CEC0021B1006800EB124003B030BD1846FBE771
:103CFC000A884B889A4209D150E8022FC2EA224224
:103D0C0040E80223002BF7D10120704700207047B8
:103D1C0010B5034653E8000F0A4643E8002494F01C
:103D2C00000FF7D110BD10B5034653E8002F42EA3F
:103D3C00010043E8000494F0000FF6D110BD10B55B
:103D4C00034653E8000F00EA010243E8002494F014
:103D5C00000FF6D110BD10B5034653E8002F02EB4F
:103D6C00010043E8000494F0000FF6D110BD10B52B
:103D7C00034653E8002FA2EB010043E8000494F043
:103D8C00000FF6D110BD0121FFF7CDBF0021FFF7C9
:103D9C00D6BF10B590B1D0E9012301689B1ADBB2F4
:103DAC000A60013BDBB2FF2B026802D100201071CC
:103DBC0010BD11684C1C14600B70F2E70E20F7E775
:103DCC0038B504460020FFF7C5FC2268616813680B
:103DDC008B4213D9591E116013F8013C208AE568F7
:103DEC0000FB0355A3685B1A1179DBB2994200D230
:103DFC0013710020FFF7B0FC284638BD0025F8E70A
:103E0C0038B5054600200C46FFF7A4FC2A68136859
:103E1C00591C1160EA68A41A2A8AB4FBF2F41C70CB
:103E2C00BDE838400020FFF797BC826810B5044607
:103E3C002AB143690168006998470023A36010BD4B
:103E4C000EB403B5039921B104AB01AA019300F0A0
:103E5C0077F802B05DF804EB03B070470A2938B567
:103E6C0004460D4602D10D21FFF7F8FFA368226826
:103E7C00591CA160D554D4E901329A4204D320468E
:103E8C00BDE83840FFF7D1BF38BD00002DE9F84F31
:103E9C009846DDE90A43154682460F460A464FF01E
:103EAC000109AA420FD2C14538BFC14613F0010B1C
:103EBC0001D16CB900240126B8F1010F1BD908F10E
:103ECC00FF386E43F8E709F10109B2FBF5F2E8E7B8
:103EDC009B070ED5B8F1000F0CBF30262026A1454C
:103EEC00E9D2013C31465046FFF7B8FF002CF6D121
:103EFC00E0E72026F3E7B7FBF6F39D42E1D9DFF8C4
:103F0C003C80B7FBF6F3504618F8031006FB13770A
:103F1C00FFF7A4FF3346AB42B6FBF5F6F1D2BBF18B
:103F2C00000F02D00CB1A14501D3BDE8F88F2021C0
:103F3C005046013CFFF792FFF4E700BF847200008B
:103F4C002DE9F74F054617468846002900F03E81BB
:103F5C0018F8011B49B92B7B002B00F03781284640
:103F6C0003B0BDE8F04FFFF760BF252940F0B780E4
:103F7C00002698F800302D2B424608F1010823D07A
:103F8C00302B24D02B2B25D000242A2B02F101011D
:103F9C0023D13B681A1D1B683A601C440A461378EF
:103FAC002E2B26D101324FF0000A104610F8011BBF
:103FBC00A1F1300CBCF1090F1DD80A2303FB0A1127
:103FCC00A1F1300A0246F0E746F00106D1E746F0CF
:103FDC000206CEE746F00406CBE711F8013CA3F14C
:103FEC0030000928DBD80A2202FB0434303C0A4694
:103FFC00CBE74FF0000A12F8011B01F0FB00682818
:10400C009046F8D0782909D86F290CD8632962D04A
:10401C0022D8252963D0582900F0888098F80030E0
:10402C00002B95D197E770390829F7D801A252F8DF
:10403C0021F000BFB34100002940000029400000DE
:10404C0049410000294000002741000029400000A0
:10405C002940000039410000642901D06929DDD1D3
:10406C003A68D2F80090111D89EAE9723960A2EB26
:10407C00E9724FF0010B092A35DCD34538BFD34622
:10408C002CB1B9F1000F01DB720700D5013CB3076D
:10409C0002D5BAF1000F03D0F00701D44CBB0024B9
:1040AC00B9F1000F2DDAC9F100092D212846FFF7CF
:1040BC00D5FE06F00302022A04D1BAF1000F01D199
:1040CC001CBB0024CDE9004653460A22494628462B
:1040DC00FFF7DCFEA2E73B681A1D19783A60284608
:1040EC00FFF7BCFE9AE70A230BF1010BB2FBF3F2CC
:1040FC00C1E7A345D4D220212846013CFFF7AEFEF0
:10410C00CCE77107D5D52B21D0E7A345DAD23021E6
:10411C002846013CFFF7A2FED2E73968CDE90046FC
:10412C000A1D3A6053460A220968D0E739680A1D0D
:10413C003A60CDE9004653461022F5E73B681A1D5C
:10414C003A6016F00106D3F8009024D1B9F1000FB3
:10415C0003D0484601F0A6F80646B4421DD809F132
:10416C00FF3919F8011F00293FF458AF2846FFF713
:10417C0075FEF6E728460136FFF770FE19F80610B3
:10418C000029F7D1A642BFF449AF20212846013CB3
:10419C00FFF764FEF6E70026F0E720212846013CF5
:1041AC00FFF75CFED9E73B681A1D3A6030212846C0
:1041BC001C68FFF753FE78212846FFF74FFE0022BC
:1041CC000823CDE900322146102280E703B0BDE878
:1041DC00F08F00BF2DE9F84FB0F806A04579D2F862
:1041EC0000B09DF828900AFB05F5043D88460BEBC2
:1041FC000301A94203F1040488BFA5EB030BB4FB34
:10420C00FAF607460AFB1644C2F800B04EB9AAEB00
:10421C0004055D4528BF5D46BBF1000F04D1BDE828
:10422C00F88F3F68013EF1E7043408EB06003C448C
:10423C002A46B9F1000F0DD02146ABEB050B01F06E
:10424C0061F8DA452E443F6855464FF0000428BF0C
:10425C005D46E1E701462046EFE7FFF79ABDF8B56A
:10426C0046790146721E0546002393422D6803D3FE
:10427C000024A64202D8F8BD0133F6E70F682846A1
:10428C00FFF7BEFD01343946F3E72DE9F843068A02
:10429C00CD1C0746FFF794FD043E35440446B5FBA0
:1042AC00F6F5F0B14FF48073EDB28380C680013D1A
:1042BC00076081464FF00008A84512D23846FFF738
:1042CC007FFD064648B163790133637108F101083B
:1042DC00C9F8000007608146EEE72046FFF7BFFFF4
:1042EC0034462046BDE8F88301210430FFF733BD86
:1042FC0010B5012104460430FFF739FDC0B220B9D6
:10430C002046BDE81040FFF7AABF10BD1FB50392B1
:10431C000022009203AAFFF75DFF05B05DF804FBD5
:10432C001FB503920122009203AAFFF753FF05B0B9
:10433C005DF804FB836800225A60C3E904229A608A
:10434C00DA601A60704770B5446806460D462068FE
:10435C0018B1B3682946984718B923682B602560B3
:10436C0070BD2468F3E74368186808B102681A60E6
:10437C0070474368186870474368186800B97047FD
:10438C00884203D102681A60012070470346006816
:10439C00F4E7000010B50D49A1F58C72914201D8DB
:1043AC0000200FE08C1AE30F03EBE4035B1002EB2D
:1043BC00C30452F83330834205D802D204F1080208
:1043CC00ECE7606810BD2146E8E700BF5C770000B1
:1043DC0008B5FFF7DFFF024B002808BF184608BDE1
:1043EC002E760000F0B595B01D46164608460C46D4
:1043FC00FFF77AFF1A9B0D93CDE9086500252B4634
:10440C00082205A920460A958DF82C500C95FFF72B
:10441C0087FF079B0293069B03939DF814308DF83E
:10442C00115003F00302012A1DD1BDF81420059D83
:10443C00C3F3C203C2F383168DF81030B200082305
:10444C000EA92046FFF76CFFC5F3952508AB00932A
:10445C00324602AB0EA9284600F024FC2046FFF79A
:10446C0047FF15B0F0BD022AF8D1BDF81650C3F3C2
:10447C00C203C5F389158DF810300827082D2E4678
:10448C0028BF08263B4632460EA92046FFF748FFB8
:10449C00AD1B08AB02AA31460EA8374400F066FCEF
:1044AC00002DEBD1DAE70000014B01221A707047A6
:1044BC005D0E00207047000070B50F4D06460FCD05
:1044CC0088B06C460FC495E80F00002E84E80F00EE
:1044DC000A4A0B484FF01D0308BF0022694600939F
:1044EC00FDF776FB18B1074A4321FEF7DBFE064BBE
:1044FC001E7008B070BD00BFE8770000B544000026
:10450C00780400205C7700001C0E002007B5044BDB
:10451C000093044A4023FFF765FF03B05DF804FBEA
:10452C00354500001D0E002038B50E480E4C0F4DC1
:10453C00002323700378EB5CD2B273B10430FEF726
:10454C00CDFC18B10A4A5321FEF7ACFE094B1A7880
:10455C0012B12378002BFBD038BD0C30FEF774FA67
:10456C00EFE700BF780400205D0E0020440C002013
:10457C005C7700001C0E002008B50848084A037838
:10458C00D35C3BB10430FEF70DFCBDE808400020C5
:10459C00FFF792BF0C30FEF7E1F9F6E77804002044
:1045AC00440C00200120FFF787BF000008B5FFF77F
:1045BC00F9FF0448042100F0DFFA034B01225A7181
:1045CC0008BD00BF6C5C00008C040020027812F067
:1045DC00040316D002F00303012B03D0022B09D0E5
:1045EC00012070470A6800880232C0F3831002442D
:1045FC000A60F5E70B684288023303EB92130B60F9
:10460C00EEE71846704700002DE9F04F414C884604
:10461C0085B00546871C00201646FFF79BF862689C
:10462C00C8F80020A36803F580739B1A04F21C4899
:10463C0004F5836A04F21449BB4217D30021002EFF
:10464C0063D005F00F05AD0145F0050565F30F01CD
:10465C006368DAB203323B44002044F822106360F2
:10466C00FFF77AF8012005B0BDE8F08F0121404634
:10467C00FFF771FB5046FFF786FB4846FFF783FBBD
:10468C00A0680090C0B2033004EB80006946FFF7CD
:10469C009DFF20BB009BDAB204EB8202D168019132
:1046AC009A1C0133DBB204EB83030092D3F80CB0F9
:1046BC0001F00303012B20D0022B13D08346484674
:1046CC00FFF764FB08B1009BA36059464046FFF717
:1046DC0042FBA368626803F580739B1AACE79DF8F4
:1046EC000000D0E7BDF80630C3F3891303334FEA5B
:1046FC001B4B02EB93030093E1E7BDF80430C3F3CB
:10470C0083134FEA1B4B1344F5E7AD0545F0060147
:10471C009EE700BF300F0020064B074810B5002263
:10472C001A70FFF79AFD044610B90448FFF702FE11
:10473C00204610BD300F00207C5C00003C7800004F
:10474C0030B50A4C71B10A4A0A49121BD20800232F
:10475C009A4201D1002030BD31F82350854202D05D
:10476C000133F5E7034654F83300F4E7DC5B000053
:10477C006C5C000000000020094B013903EBC00009
:10478C00032909D8DFE801F00A0204060420704767
:10479C0000797047407970470020704702207047BD
:1047AC00DC5B000070470000034BD3E90130C31AF7
:1047BC0058425841704700BF300F00202DE9F0439C
:1047CC0085B0FFF7F1FF0546002840F0E280724CFF
:1047DC00C4F81804BFF34F8FA3680093DBB2033304
:1047EC0004EB83006946FFF7F1FE009B18B1D4F887
:1047FC001824002A5CD0DAB29F1C013304EB82022D
:10480C00DBB204EB8303D268DB68029302F0030390
:10481C00022B0192009756D1BDF806305F48C3F3C6
:10482C0089184646502E28BF502666F38F1306F182
:10483C000801ADF80630FFF728FD0546002800F00A
:10484C009380FFF751FD002301A908222846FFF7AA
:10485C005DFDFB43DBB20133F9B20331B6EB830FE1
:10486C004FEA830904EB81012AD908234A46A6EBB7
:10487C0009062846FFF74AFDF6B2494909F1080333
:10488C00324608F10308284607EB9807FFF73EFD70
:10489C000097D4F81834D4F81064002B53D0284661
:1048AC00FFF726FDFFF780FF80F00100C5B203E0A3
:1048BC0062689A4292D8A260284605B0BDE8F0839F
:1048CC0008233246DDE7012B4ED1BDF804303348C6
:1048DC00C3F38311062928BF062161F38913023122
:1048EC0001F00F018900ADF80430FFF7CEFC05464E
:1048FC00002839D0FFF7F8FC0023082201A928462C
:10490C00FFF704FD0026BDF80420C2F38312B300A8
:10491C00964203F10803BCD200994A1CC9B2033178
:10492C00009204EB810104222846FFF7EFFC0136CC
:10493C00E9E7F3685B7923B1336829461B68304695
:10494C009847F3681E68002EF3D12846FFF7D0FC79
:10495C003046FEF7FFFED4F818340BB9009BA36069
:10496C000020FEF7F9FE9DE7D4F8104454B90D4B26
:10497C000D480E49C01AC008000440F0020000F0B7
:10498C005FF88FE7236820469B689847E3681C68AC
:10499C00ECE7002590E700BF300F00207C5C0000A6
:1049AC003C0F0020DC5B00000C5C00002578000054
:1049BC002DE9F34704460E46924601A901221846FA
:1049CC009946FFF721FE1C4F10B3019D4FF00008D4
:1049DC00AA1CC84508EB020125D118480021FFF795
:1049EC0097F980F31000000440EA1440E4006B1CBB
:1049FC0004F03804DBB2EDB244F0010407EB83039E
:104A0C00033544EA881444EA8624D86047F82540E4
:104A1C003B781BB1FFF7D2FE0028FBD1FFF7C2FE9B
:104A2C0002B0BDE8F087C9B207EB81015AF8283013
:104A3C00CB6008F10108CCE7300F00204C130020AC
:104A4C0000231A46FFF7B4BF07B50123019201AA50
:104A5C00FFF7AEFF03B05DF804FB07B5CDE900230B
:104A6C0002236A46FFF7A4FF03B05DF804FB1FB5F1
:104A7C00CDE90123069B039301AA0323FFF798FFBB
:104A8C0005B05DF804FB1FB5CDE90023069B02932E
:104A9C00079B03936A460423FFF78AFF05B05DF872
:104AAC0004FB7FB5CDE90123089B0393099B049379
:104ABC000A9B059301AA0523FFF77AFF07B05DF85F
:104ACC0004FB00002DE9F7430446D01C884616462B
:104ADC0001A900228008FFF797FD254D80B3019FA7
:104AEC00B81C0190C0B2C0F58073B6EB830F00F117
:104AFC0003004FEA830905EB800028D83246414673
:104B0C0000F000FC1B480021FFF702F980F31000B5
:104B1C007B1CDBB205EB8303220C42EA0042DA6019
:104B2C00FFB2E300033703F0380343F0020343EA18
:104B3C00865255F8273003F47C13134345F827307D
:104B4C002B787BB9FFF72EFE03B0BDE8F0834A4605
:104B5C00414600F0D7FBA6EB090208EB090105F171
:104B6C000C00CDE7FFF72AFE0028FBD1EAE700BFD7
:104B7C00300F00204C13002030B50F4CD4F810240B
:104B8C000023114639B9C1680B7152B9C4F810042D
:104B9C000A60184630BDC9680D799D4206D0096877
:104BAC00F0E7D26814680C601060F2E701330A2B4E
:104BBC00E7D14FF0FF33ECE7300F002038B5084B4E
:104BCC000125D3F810441D7004B938BDE3685D713C
:104BDC00236820465B689847E3681C68F4E700BFCD
:104BEC00300F002007B503460846197A052911D065
:104BFC005B7A2BB1094A0A490190FFF721F9019818
:104C0C0008490190FFF71CF9019803B05DF804EB1B
:104C1C00FFF70BB9002AF8D0F2E700BF4878000084
:104C2C004B6000006A78000030B5C38885B004463C
:104C3C000D4633B1144A00921449154A2846FFF721
:104C4C00FFF8217A05291DD0637A4BB1A088FFF7B4
:104C5C0093FD104B104953F820202846FFF7F0F82D
:104C6C00227A0E4BA08853F8222003920021FFF7E2
:104C7C0067FD039A0A490346284605B0BDE8304053
:104C8C00FFF7DEB805B030BD48780000557800005D
:104C9C004D780000D47800004B600000F8780000DC
:104CAC006D7800002DE9F04385B01F460C9D002364
:104CBC0095F80C902B7306460C46904629463846C0
:104CCC00FFF7B2FFB8F1060F09D8DFE808F00412BD
:104CDC00181F2833400031462846FFF7B1F8002250
:104CEC0029463846FFF77EFF85F80C9005B0BDE8E5
:104CFC00F083226831462846FFF7A2F8EFE7D4E9A3
:104D0C00002331462846FFF79BF8E8E7A368009399
:104D1C003146D4E900232846FFF792F8DFE7E36831
:104D2C000193A36800933146D4E900232846FFF78A
:104D3C0087F8D4E723690293E3680193A36800938F
:104D4C003146D4E900232846FFF77AF8C7E76369B0
:104D5C00039323690293E3680193A368009331469C
:104D6C00D4E900232846FFF76BF8B8E708292DE9AA
:104D7C00F74F80460E4617461C463DD800251B7B38
:104D8C002573214610460193FFF74EFFDFF88CA0E8
:104D9C00DFF88CB0AE4232D918F8052059462046BF
:104DAC00FFF74EF80135082DF4D11B49DFF874A03C
:104DBC00DFF874B02046FFF743F84FF000094E457A
:104DCC0024D918F809507E2D1ED8284600F016FA62
:104DDC00002814BF2A462E2259462046FFF730F8E9
:104DEC0009F10109B9F1080FE9D101222146384630
:104DFC00FFF7F8FE019B237303B0BDE8F08F51461B
:104E0C002046FFF71DF8CDE72E22E5E75146204658
:104E1C00FFF716F8E4E700BF817800007D7800000A
:104E2C00777800007F780000837800000369C268FF
:104E3C0093429CBF81685B18013B981A70472DE91F
:104E4C00F041D0E902840546A8EB0406406896427E
:104E5C0020440F46144404D900F054FAEC60BDE829
:104E6C00F0813246A4EB080400F04CFA6868224644
:104E7C00B919F1E72DE9F843C56806468946174686
:104E8C004FF000083369B46870689D4228BF1B1945
:104E9C00641BBC4203F1FF3328BF3C465B1B9C42A6
:104EAC0028BF1C4649462844224600F02BFAB3681A
:104EBC002544AB4208BF00253F1BA044A144F5602C
:104ECC00E0D14046BDE8F88310B5114C114AA261FF
:104EDC000223C4E90433104BE361A2644FF4007362
:104EEC000E4A0F492362E26400231022E01DA362E4
:104EFC006362E362A3656365E365226500F0BAF95A
:104F0C000849204600F0B6F92023A37110BD00BF5C
:104F1C0068170020277A0000F0170020E017002007
:104F2C00307A0000347A0000F8B5184B182400FBD6
:104F3C00044504FB00300F46C46A012C16461D4480
:104F4C000FD0022C1AD0F4B92846FFF76FFF864217
:104F5C0005D8324639462846FFF771FF34462046BD
:104F6C00F8BD2846FFF762FF8642344628BF044648
:104F7C00224639462846FFF762FFF0E72846BDE88F
:104F8C00F840FFF777BF0024E9E700BF681700205F
:104F9C0070B50B4B1B7804460D4616460BB9FFF744
:104FAC0093FF0020FEF7D6FB324629462046FFF73A
:104FBC00BBFF04460020FEF7CFFB204670BD00BFB0
:104FCC006817002040F2B041C2F20001096800F0FD
:104FDC0000B880B50B468DF803000DF103000121DC
:104FEC00012200F01FF89DF80310002808BF411E95
:104FFC00084608BD38B540F2B041C2F20001044683
:10500C000D6800F04FF902462846214600F0D2FD0B
:10501C0001301EBF0A20BDE83840FFF7D3BF4FF068
:10502C00FF3038BDF8B51D4617460C4606461846E7
:10503C0000F0A6FD002803D407FB04F2A24201D223
:10504C000020F8BD2846314600F0B4FDB0FBF4F06A
:10505C00F8BD0000002B35D129B9B0FBF2FC0CFBDC
:10506C00120260467047914215D22DE9F041B2FA16
:10507C0082F39A409940D3F1200C30FA0CFC51EA9F
:10508C000C01984000F04EF8280036FA03F200218B
:10509C000023BDE8F081F0B5B1FBF2FC0CFB121162
:1050AC00B2FA82F39A409940D3F1200630FA06F610
:1050BC003143984000F036F8614628003200DA405F
:1050CC000023F0BDF3B5B3FA83FC49085FEA300066
:1050DC0013FA0CF3DCF1200432FA04F423430CB47D
:1050EC001A0000F01FF80CBC33FA0CF3DCF11F0CA7
:1050FC0035FA0CF518BF013D03BCA5FB026705FB97
:10510C000377801BB941904271EB030C05D3821AD3
:10511C0071EB0303681C0021F0BD02000B0028009A
:10512C000021F0BD940D4FF6C2752D02B5FBF4F4C1
:10513C00D60A013604FB04F5A5FB0656F64306EB2E
:10514C000416550832BF00277708013505FB167782
:10515C00A6FB07477F0807EBC63714001500E7FBD3
:10516C0002457F1B4D1C0400E7FB014505FB1206A5
:10517C00A64284BF013DB618964224BF0135B61A2B
:10518C00704700BF41F6F011C2F200010868002818
:10519C0002BF40F29440C2F2000008607047002A3F
:1051AC0004BF002070478446097848B2002844BFE9
:1051BC006FF001007047BCF1000F18BFCCF8001065
:1051CC000021C3E90011002818BF012070477F2976
:1051DC008EBF6FF0010001700120704741F6F01294
:1051EC00C2F200021368002B02BF40F29443C2F2D9
:1051FC00000313605A689268126810470921FFF780
:10520C00EDBF7F2884BF0020704747F65042C0F2A4
:10521C000002515C47F6D032C0F20002105C08402C
:10522C007047A0F161011A2938BF20387047A0F1EE
:10523C0041011A2938BF203070477F2884BF0020D5
:10524C00704747F65042C0F20002515C47F6D0322C
:10525C00C0F20002105C08407047A0F161011A29ED
:10526C0038BF20387047A0F141011A2938BF2030CF
:10527C00704700000246F0B44FF00137FB0151F8C3
:10528C00044BE51BA5431D4002D142F8044BF6E745
:10529C000439F0BC11F8013B02F8013B002BF9D1A9
:1052AC00704700BF411C82070CD010F8012B3AB399
:1052BC00820707D010F8012B12B3820702D010F826
:1052CC00012BEAB14FF0013C50F8042BCCFA52F30D
:1052DC007BB950F8042BCCFA52F353B950F8042B89
:1052EC00CCFA52F32BB950F8042BCCFA52F3002B16
:1052FC00EAD004381BBAB3FA83F300EBD3000130C5
:10530C00401A704772B3844690EA01039B0721D17F
:10531C00830709D011F8013B00F8013B013A20D07A
:10532C008307F7D100E08446202A0AD32DE9F00741
:10533C00B1E8F807A0E8F807203A202AF8D2BDE82F
:10534C00F007042A06D351F8043B40F8043B043A16
:10535C00042AF8D22AB111F8013B00F8013B013ABA
:10536C00F9D16046704700BF00220B0011001A00F3
:10537C0084465AB3830704D000F8011B013AF9D1D3
:10538C0024E0C9B241EA012141EA0141202A11D3AA
:10539C00203A2DE9F0030B460C460D460E460F46FF
:1053AC0088468946A0E8FA03203AFBD2BDE8F00310
:1053BC0020320BD0042A05D340F8041B043A05D044
:1053CC00042AF9D200F8011B013AFBD16046704760
:1053DC00042A08D350F804CB0B689C4506D1043A38
:1053EC000431032AF6D8A2B1D0F800C0086880EACC
:1053FC000C0191FAA1F1B1FA81F1B2EBD10F08D9FC
:10540C0001F038012CFA01F2C840C0B2D1B2081A2E
:10541C0070470020704700B500291CBF0278002A95
:10542C0001D1002000BDD0F800E00429034609D3C7
:10543C004FF0013CCCFA5EF222B953F804EF043978
:10544C000329F7D8181A4FF00132C2FA5EF292FA19
:10545C00A2F2B2FA82F2B1EBD20F88BFD1080844A3
:10546C0000BD10B582B0044600698DF8071078B104
:10547C00D4E900239A4231D26269531C636181548E
:10548C00D4E90501884229D1204600F02CF825E00A
:10549C00E06850B1D4E9002C62451FD2531CB3EB29
:1054AC000C0318BF0B46835418E0A06858B1D4E91C
:1054BC00002C624512D2531CB3EB0C0318BFCBB2B9
:1054CC0040F822300AE0236A43B1D4E90001884253
:1054DC0004D20DF1070120460122984720680130C3
:1054EC00206002B010BD10B54269002A08BF10BD83
:1054FC000446036A002B1CBF216998470020606199
:10550C0010BD70B5012AB8BF70BD0C460546561CBF
:10551C0028462146FFF7A5FF013E012EF8D870BDA5
:10552C00CB0648BF704789054CBF30212021FFF7BF
:10553C00E8BF38B50446FFF725FE05462046002196
:10554C002422FFF715FFE56138BD81B0F0B58AB0B4
:10555C0014460D4606460F930FA8009001AF38462F
:10556C00FFF7E7FF0295009A04963846214600F0B3
:10557C0065F80AB0BDE8F04001B0704770B514464C
:10558C000D460646FFF7FEFD014630462A462346E9
:10559C00BDE8704000F000B82DE9F04F03AF8DB0BE
:1055AC0047F83C3C91460E46044600F001FB05468C
:1055BC00EB46073020F00700ADEB0008C546A7F11D
:1055CC00380A504600212422FFF7D2FE45F2116022
:1055DC00C0F2000047E907606FF0004047F8340C58
:1055EC0047F8144C47F8205C47F8288C504649463D
:1055FC0057F83C2C00F022F8DD46A7F10C04A54628
:10560C00BDE8F08F436A08460121FFF70BBD83B05C
:10561C0000B582B00DF10C0C8CE80E0040F2B042DB
:10562C00C2F200020146106803AA0192FFF7A6FF1E
:10563C0002B0BDE8004003B0704700002DE9F04F08
:10564C008DB006928B460646002030600DF11E0888
:10565C00A8F10104049401961BF8011B252906D01E
:10566C00002900F078823046FFF7FBFEF4E70027B4
:10567C0059461BF8012BA2F12003102B0DD88020CA
:10568C00DFE803F0091B1B191B1B1B101B1B321320
:10569C001B151B1B170040200DE05E2A0DD14FF48B
:1056AC00805008E04FF4004005E0202003E010207B
:1056BC0001E04FF400700743DAE701F1010BA2F1AE
:1056CC003000C0B209284FF0000019D81BF8011B9C
:1056DC0000EB800002EB40003038A1F13002D2B276
:1056EC000A2A0A46F2D30BE0069A52F8040B0692E9
:1056FC00002844BF47F0100740424A7801F1020BE2
:10570C002E2A0DD1594611F8012B2A2A0BD10699B4
:10571C009BF8012051F804CB06910BF1020B18E019
:10572C004FF0000C1EE0A2F13003DBB2092B4FF05E
:10573C00000C14D811F8013B0CEB8C0B02EB4B0258
:10574C00A2F1300CA3F13002D2B20A2A1A46F1D3DC
:10575C008B46BCF1000F58BF47F4807702E047F44A
:10576C0080778B46A2F16801CBB2C90141EA5301A3
:10577C00C9B209292AD8DFE801F008141729292908
:10578C00052929051BF8012B20E0594611F8012B9E
:10579C00682A15D19BF801200BF1020B47F0080782
:1057AC0014E01BF8012B08E0594611F8012B6C2A68
:1057BC0009D19BF801200BF1020B47F0020705E021
:1057CC0047F0040701E047F001078B4620EAE07A36
:1057DC00622A15DDA2F1630015283FF63DAFDFE824
:1057EC0000F0240C0B0B0B0B0C0B0B0B0B36434D63
:1057FC000B0B5C0B6B0B0B172EE747F480475FE032
:10580C00252A00F0AA80582A40F0748147F40057EA
:10581C00F8054FEA076048BF27F40077782A43F26F
:10582C00580108BF43F2780125E0DDF81890AAF181
:10583C00010599F80040304639462A46FFF770FEBC
:10584C0030462146049CFFF70CFE484678E13807A9
:10585C0000F15481B80706993068096852BF086096
:10586C00002205C106984EE1F8054FEA076048BFD3
:10587C0027F40077302101EAE07322E03806232177
:10588C0001EAE070059047F48077069A002152F8FF
:10589C00040B06924FF0080CC8E006980468002C24
:1058AC0004BF47F67D44C0F20004F805204600F121
:1058BC002D81FFF7F7FC2CE1F80548BF27F40077A2
:1058CC00002307F002007904059305D400280698FC
:1058DC0009D1031D00210CE0A8B9069951F8040B5D
:1058EC000691C11717E0073020F0070000F10803FC
:1058FC00416800685FEA477915D417F008091CBFA6
:10590C00C0B2002111E00698073020F00703596857
:10591C0053F8080B06937B0709D43B0744BF40F3AD
:10592C00C01140B206E080B2002106931CE040F3A7
:10593C00C03100B200290ADBBB0613D47B06DDF8AC
:10594C00149048BF4FF02009CDF814900CE00023C0
:10595C00404263EB01012D2305E030462521FFF782
:10596C0080FD79E62B230593FB0548BF27F40077D0
:10597C00FB0558BF4FF0010C00256E2A23DD6F3A52
:10598C00092A00F27580DFE802F005517373737316
:10599C002473735150EA01026AD0C20842EA417280
:1059AC004FF00609134669F3DF0008F805000135CE
:1059BC0052EAD1004FEAD1014FEAD20040EA4172DB
:1059CC001846EFD154E0582A30D0642A18BF692AFF
:1059DC004ED150EA01024BD0CDE902ACC24607F4DD
:1059EC0000460C4681463EB105F00300032802BF79
:1059FC002C200AF80500013548460A220023FFF73F
:105A0C0029FB00EB8002A9EB420242F0300208F8BD
:105A1C0005200135D9F109024FF00002A241E0D373
:105A2C00049C0DF1040C9CE8401421E0002550EA84
:105A3C0001021DD0BA0447F65D42C0F200025CBF01
:105A4C0047F66D42C0F20002030943EA017300F00D
:105A5C000F09184612F8093008F80530013550EADC
:105A6C0011134FEA11114FEA101343EA0173EED1EF
:105A7C00AAEB05000599FF2988BF013800290A46C1
:105A8C0018BF0122801AACEB050222EAE279A0EBE6
:105A9C00090AB80507D4304639465246FFF740FD8F
:105AAC0005994FF0000AFF2904D9090A3046FFF77F
:105ABC00D8FC059900291CBF3046FFF7D2FC3046B4
:105ACC0039465246FFF72CFD304630214A46FFF747
