:100000000000012019020000010200005932000026
:1000100005020000070200000902000000000000C5
:100020000000000000000000000000000B020000C3
:100030000D020000000000000F020000110200008D
:10004000130200001302000081180000E51B0000ED
:100050001302000013020000351700001302000015
:10006000130200001302000013020000130200003C
:10007000130200001302000013020000130200002C
:1000800013020000453200001302000013020000BA
:10009000130200001302000013020000130200000C
:1000A00013020000130200001302000013020000FC
:1000B0001302000013020000000000000000000016
:1000C00013020000130200001302000013020000DC
:1000D00013020000130200001302000000000000E1
:1000E0000000000000000000000000000000000010
:1000F0000000000000000000000000000000000000
:1001000000000000000000000000000000000000EF
:1001100000000000000000000000000000000000DF
:1001200000000000000000000000000000000000CF
:1001300000000000000000000000000000000000BF
:1001400000000000000000000000000000000000AF
:10015000000000000000000000000000000000009F
:10016000000000000000000000000000000000008F
:10017000000000000000000000000000000000007F
:10018000000000000000000000000000000000006F
:10019000000000000000000000000000000000005F
:1001A000000000000000000000000000000000004F
:1001B000000000000000000000000000000000003F
:1001C000000000000000000000000000000000002F
:1001D000000000000000000000000000000000001F
:1001E000000000000000000000000000000000000F
:1001F00000000000000000000000000000000000FF
:10020000FEE7FEE7FEE7FEE7FEE7FEE7FEE7FEE7C6
:10021000FEE7FEE700F002B8FFF7FCBF0F484FF023
:100220000701884385460E4880470E48016841F41F
:1002300070010160BFF34F8FBFF36F8F00F01AB8EA
:1002400009480A490A4A884207D0521A05D0037859
:1002500001300B700131013AF9D1704700000120E3
:10026000510A000088ED00E09C61000000000020C1
:1002700000000020344935480A1A02D00722914371
:100280008D46334933480A1A06D00722914381F339
:100290000988022282F314882F483049304A00F03E
:1002A00041F830483049314A00F03CF83048314993
:1002B000314A00F037F831483149324A00F032F81B
:1002C00031483249324A00F02DF832483249334A37
:1002D00000F028F832483349334A00F023F8334815
:1002E0003349002200F029F832483349002200F057
:1002F00024F832483249091A05F0ECFE314A904799
:100300001F482049884205D00268043003B4904752
:1003100003BCF7E700208646EC46002000212A4A6D
:100320009047FEE7884207D0521A05D00378013083
:100330000B700131013AF9D17047884202D0027046
:100340000130FAE7704700000000012000E00020C3
:100350000000012000000120847F00000000002038
:10036000C4000020CC030000CC030000E8600000C3
:10037000847F000000000020000000209C6100003D
:100380009C6100009C6100009C6100009C61000079
:100390009C6100009C6100009C610000847F000063
:1003A00048800000C4000020C4000020C4000020D9
:1003B000501C0020501C0020501C0020501C00200D
:0C03C000503C0020410200002508000015
:1003CC0038B50C4605460146254805F0A7FB012C1F
:1003DC0035D1244C23789BB3142D1ED01A2D0DD05F
:1003EC000F2D2CD1636820480133636005F0AEF803
:1003FC0061681E48BDE8384005F090BB1C4805F00C
:10040C00A5F86168002904DCBDE83840194805F0FE
:10041C009DB8013918486160ECE7184805F096F86A
:10042C00002323702372C4F80930C4F80D30A4F8EB
:10043C0011304FF0A0434FF00042C3F80C2538BDEB
:10044C000F4805F083F80F4B0F481049C01AC0082D
:10045C000004BDE8384040F0030003F0C5BE00BF07
:10046C009C6100008C010020C7610000D26100007B
:10047C00E8610000F56100001262000027620000D4
:10048C0036620000E8600000186100005562000050
:10049C0038B5054D044645F001054FF47A40A847A0
:1004AC00013CFAD138BD00BF7066000008B54FF4AE
:1004BC008041002003F004FD18B1084A8D2102F0A0
:1004CC002DFB03F047FC02F01FFC28B1BDE80840EF
:1004DC00024A902102F022BB08BD00BF75620000E9
:1004EC0000B5E1B04FF4BA7302460191029302A930
:1004FC0001AB03A804F07BF848B10848084B094944
:10050C00C01AC008000440F0030003F06DFE03A8FD
:10051C0004F07CF861B05DF804FB00BF18610000CA
:10052C00E8600000FC6200000F2AF8B50F46144684
:10053C0002D804252846F8BDC378072B30D10020FB
:10054C0000F084FE054660B1164B17481749C01AD7
:10055C00C008000403230022184303F052FE0325B5
:10056C00E8E7BB7BDB0003F110029442E1D39B086C
:10057C00DEB20424A642DDD907EB8401204600F04C
:10058C0065FE50B1074B08480849C01AC008000462
:10059C00E31C224640F00300DFE70434E4B2E9E751
:1005AC000625C7E7E8600000186100002163000021
:1005BC00014670B5154804F073F9042813D114489A
:1005CC00144B1549C01AC008000440F0030003F096
:1005DC000BFE0E4E304604F021FAF4690025338CE4
:1005EC00AB4209D870BD0028F3D00948094B0B4920
:1005FC00C01AC0080004E8E72378032B04D16188F3
:10060C006068FFF76DFF08340135E8E7280000202B
:10061C0018610000E86000003E6300007F6300008A
:10062C0010B506494FF48062FFF77EFF044610B9FF
:10063C000248FFF7BDFF204610BD00BFA40B0020F1
:10064C002DE9F04104F02AFC024640B13649374B03
:10065C005B1ADB0836491B0443F0030019E004F075
:10066C0091FC024630B13049304B5B1ADB08314902
:10067C001B04F1E7304E304604F09CFC044670B18C
:10068C002A48294B2D49C01AC0080004224640F0C4
:10069C00030003F0ADFD03242046BDE8F08135686E
:1006AC00DFF8A4800746B388BB4218D8224804F070
:1006BC0051FB356800271435B388BB42ECD915F8CB
:1006CC00023C55F8140C042B00D028B135F8101C42
:1006DC0002300239FFF704FF01371435ECE7AB7C2D
:1006EC00042B01D0AB7BCBB9A88904F00FFC0246DC
:1006FC0030B10D490D4B5B1ADB0811491B04ABE7FC
:10070C00FF224146304604F0C5FC024630B1064992
:10071C00064B5B1ADB080B491B049DE714350137AC
:10072C0008F1FF08BFE700BFE86000001861000097
:10073C00BD630000F8630000180000202164000075
:10074C004864000073640000AE010020010706D469
:10075C0042064FEA501302D403F003007047022004
:10076C007047000038B51C4C41F28831204600F02F
:10077C0097FC054628B1194804F0E8FE05252846E3
:10078C0038BD204600F0E2FAA078FFF7DFFF28B171
:10079C00012812D0124804F0D9FEF0E7114B124890
:1007AC001249C01AC008000440F0030003F01CFDFD
:1007BC002046BDE83840FFF733BF0A4B0A480C49C6
:1007CC00C01AC008000440F0030003F00DFD2046E1
:1007DC00BDE83840FFF734BFA00100209C64000046
:1007EC00F4640000E860000018610000B6640000CA
:1007FC00D564000008B500F057FD20B1054A4FF450
:10080C00D37102F08BF9BDE808404FF4FA60FFF7A2
:10081C003FBE00BF756200002DE9F843FFF746FEAE
:10082C0003215C4805F07AF95B4840F266620321CB
:10083C0002F0DAF820B1594A40F2EF1102F06EF9E9
:10084C00574804F083FE02F027F920B1534A4FF4C5
:10085C00F97102F063F9534804F078FE4FF0A043AD
:10086C000322C3F87C27504805F058F94FF47A70EE
:10087C00FFF70EFE002000F0A9FB04464FF47A703F
:10088C00FFF706FE2CB1454A40F22221204602F029
:10089C0045F9464B464C4749DFF84C81464FE41A24
:1008AC00E408240444F00304204603F09DFCFFF705
:1008BC0059FF062864D8DFE800F0046363634F55E2
:1008CC005D003E4804F042FE3D78A5B13C483D4EEB
:1008DC00DFF8189105F022F900253B7A9D4203DBE5
:1008EC00394804F033FE29E016F8011F484605F09C
:1008FC0015F90135F1E7354E35493560CA78756023
:10090C0001230431358130463B703A727D6004F02E
:10091C00A5FF3048DFF8D49004F018FE2E4805F0FF
:10092C00FDF8013E3B7A9D420FDB274804F00EFE9A
:10093C004FF0A0434FF00042C3F80825FFF75AFFD1
:10094C0003F010FB0028FBD1B1E716F8011F484655
:10095C0005F0E4F80135E5E72046204903F044FCB6
:10096C001E48BEE720461E4903F03EFC1C4804F01E
:10097C00EDFDE5E720461B4903F036FC1948B0E7CE
:10098C004146204603F030FC404604F0DFFD00F009
:10099C008BFCD5E737650000000000207562000075
:1009AC00486500005F65000072650000E8600000AB
:1009BC0018610000856500008C010020AE65000008
:1009CC00B465000094010020D16500009501002061
:1009DC00A0010020D3650000E1650000F265000075
:1009EC0029660000376600004A660000CB650000EF
:1009FC004FF08053D3F83001421C04BF4FF07043CA
:100A0C0093F8E00F831F5842584170474FF07043E2
:100A1C0093F8E02F062A09D1D3F8E83FC3F3031368
:100A2C00033B042B02D8024AD05C7047002070476D
:100A3C0085660000024AD2F80034002BFBD07047C8
:100A4C0000E0014010B5FFF7D3FF40B14FF08053E9
:100A5C00944AD3F82433C3F30423C2F84035FFF788
:100A6C00D5FF10B1904B914A5A67FFF7C1FF48B1BF
:100A7C004FF080534FF08042D3F84432C3F34233EB
:100A8C00C2F83C35FFF7C2FF30B1894AD2F8FC30CE
:100A9C0023F08073C2F8FC30FFF7AAFF40B14FF08F
:100AAC0080430022C3F80C21C3F81021C3F8382569
:100ABC00FFF7ACFF20B14FF080430322C3F8A02511
:100ACC00FFF7A4FF60B17B4B0522C3F8102601226F
:100ADC00C3F888260022C3F818263F22C3F8142630
:100AEC004FF08053D3F83021511C09BF4FF07043A5
:100AFC00D3F8343193F8E02FD3F8E83F08BFC3F3B1
:100B0C000313062A4DD1033B042B03D86A4AD35C4A
:100B1C00002B46D04FF08052684BD2F80414C3F827
:100B2C002015D2F80814C3F82415D2F80C14C3F805
:100B3C002815D2F81014C3F82C15D2F81414C3F8D5
:100B4C003015D2F81814C3F83415D2F81C14C3F8A5
:100B5C004015D2F82014C3F84415D2F82414C3F865
:100B6C004815D2F82814C3F84C15D2F82C14C3F835
:100B7C005015D2F83014C3F85415D2F83414C3F805
:100B8C006015D2F83814C3F86415D2F83C14C3F8C5
:100B9C006815D2F84014C3F86C15D2F84424C3F885
:100BAC007025FFF725FF48B14FF080534FF080427E
:100BBC00D3F8583203F04F03C2F8E43EFFF718FFA6
:100BCC0048B14FF08043D3F80024D20744BF6FF0F4
:100BDC000102C3F800244FF08053D3F83021062AC9
:100BEC000ED1D3F83431033B042B02D8344AD35CF6
:100BFC0033B1344AD2F83C3743F48063C2F83C3703
:100C0C002B4AD2F8883043F47003C2F88830BFF313
:100C1C004F8FBFF36F8F4FF08053D3F83021062ADC
:100C2C000FD1D3F83431033B042B02D8264AD35CC2
:100C3C003BB14FF01023D3F808224FF08043C3F898
:100C4C0058254FF01023D3F80022002A03DBD3F8E9
:100C5C000432002B22DA1D4901234FF01020C1F879
:100C6C0004351524FFF7E6FEC0F80042FFF7E2FE5C
:100C7C00C0F80442FFF7DEFE0023C1F80435FFF78D
:100C8C00D9FEBFF34F8F0A49114BCA6802F4E062D8
:100C9C001343CB60BFF34F8F00BFFDE70D4B0E4AE4
:100CAC001A6010BD0030014000C007400DF0ADBA15
:100CBC0000ED00E0005000407666000000C00040EF
:100CCC007B660000001000408066000000E00140E0
:100CDC000400FA054C0000200090D00338B5054DF7
:100CEC00044645F001054FF47A40A847013CFAD17F
:100CFC0038BD00BF906900001FB50F4B0FCB6C4681
:100D0C0084E80F00162218230C48CDE9002304F0C8
:100D1C0005FF002321460A481A4600F0F1FA044662
:100D2C0030B10146074804F0F9FE204604B010BD6E
:100D3C00054801F01FF8F8E77C6900008A6600009E
:100D4C00A469000099660000A8690000F8B5044683
:100D5C001348144F04F0FAFB2178134804F0DEFE1C
:100D6C0025466178114804F0D9FEA178104804F0AA
:100D7C00D5FE15F8031F0F4804F0D0FE6FF00206E5
:100D8C00361BE27873199A4204DCBDE8F8400A4835
:100D9C0004F0DCBB15F8011F384604F0BFFEF0E789
:100DAC00C26600009C7C0000DE660000126700003A
:100DBC004167000052670000D16500004FF0A0436E
:100DCC00D3F81005034B1B79D840C04300F0010049
:100DDC00704700BF5000002038B50446FFF7EEFF07
:100DEC00002508B9A54200D138BD0120FFF776FFD8
:100DFC000135FFF7E3FFF4E770B5064664200D46B6
:100E0C00FFF7EAFFA0B10C4BDB798BB9FF2D11D0AA
:100E1C006B1C0A4A0A48DBB2242101F038F804465C
:100E2C0020B908492A46304604F018FD204670BD0A
:100E3C000324FBE70624F9E750000020F5100020FE
:100E4C00A8690000F610002013B506216846FFF7CC
:100E5C00D3FF044680B94FF47A72FFF7AFFF18B195
:100E6C00013A92B2002AF8D105490622684604F0EC
:100E7C005BFD002818BF0324204602B010BD00BF44
:100E8C00966900001A4BDB79F7B507460C465BBB3D
:100E9C00F8292BD8174D2B706B70FF23AB704B1CA4
:100EAC00EB70D426CB430A462B7101466E71A81DFC
:100EBC0004F0D4FC38463A19334690420FD12544FD
:100ECC005B420022AB7104F10803EA710A480092FC
:100EDC00DBB2084A242100F0C7FF03B0F0BD10F8C4
:100EEC00011B0B44DBB2E8E70320F6E70720F4E72D
:100EFC0050000020F5100020A869000010B5144621
:100F0C00FFF7C0FF40B92046FFF766FF18B1BDE8F8
:100F1C001040FFF799BF032010BD000070B5104DB5
:100F2C00022306464FF47A72012128462B70FFF7F4
:100F3C00E5FF044678B90D212846FFF75DFF04460E
:100F4C0048B908490622681C04F0EEFC28B9D5F80B
:100F5C0007301BBA3360204670BD0524FBE700BF89
:100F6C00F50F00209C690000431E032B10B517D809
:100F7C000C4C142323706070A3704FF47A7201230D
:100F8C0004212046E370FFF7B9FF40B90921204640
:100F9C00FFF732FF18B9A379152B18BF052010BD28
:100FAC000720FCE7F50F0020074B32221A70FF22B6
:100FBC0005219A700122DA70187159704FF47A7207
:100FCC001846FFF79BBF00BFF50F002073B52A4DE5
:100FDC0004462A4804F0BAFA2B7803B15CB1284EC7
:100FEC00F379002B46D1FFF787FE0446014628B162
:100FFC00244804F093FD204602B070BD224804F052
:10100C008DFD33794FF0A04203F5E073642042F874
:10101C002340737903F5E07342F82340FFF75EFE3B
:10102C001A4804F093FA01A8FFF778FF044610B1B0
:10103C0001461748DDE79DF80710164804F06EFDD1
:10104C0001991548C1F30722C1F3074104F066FD6D
:10105C000120FFF789FF04460028CCD1FF20FFF7C1
:10106C00A3FF04460028C6D101230C482B7004F0C2
:10107C0055FDC0E70324BEE7F40F002062670000B3
:10108C00500000206F67000094670000B2670000FA
:10109C00C3670000EA670000FE67000016680000E6
:1010AC00F8B506462B480F4604F050FA2EB92A48DC
:1010BC0004F04CFA07242046F8BD284D4A232B7027
:1010CC0001236B706422002303212846AB70FFF7C9
:1010DC0015FF044620B10146214804F01FFDEAE744
:1010EC00204804F033FA642F384638BF6420FFF7E9
:1010FC0073FE20B91C4804F029FA0324DBE71921FC
:10110C002846FFF779FE044610B101461748E4E77C
:10111C00E979012904D0164804F000FD0B24CAE734
:10112C002B7B0A2B04D9134804F010FA0924C2E7CC
:10113C00AB7A33706B7A7370EB7AB3702A7BF27084
:10114C0005F10D01301D04F089FB0B4B2A7A9A71C5
:10115C00B1E700BF2C6800004D680000F50F0020BF
:10116C0096680000B5680000DF680000EC680000BD
:10117C00166900005569000050000020F8B5294D93
:10118C001E4640232B70284B9B796B700C461746E0
:10119C000A460146A81C04F061FBA11C4FF47A72AC
:1011AC00C9B22846FFF7AAFE044628B94FF47A7054
:1011BC00FFF712FE10B903242046F8BD31780A312E
:1011CC00C9B22846FFF718FE04460028F4D12B7844
:1011DC006A78134323D1AB78FF2B20D1E9782A7995
:1011EC004B42DBB29A421AD16A7902F12C03DBB280
:1011FC00012B14D8D52ADED1AB79412BDBD1EB797D
:10120C009B06D8D13378CD1EEDB29D4228BF1D462A
:10121C0006492A46384604F021FB3570CCE70B24EE
:10122C00CAE700BFF50F002050000020FD0F002082
:10123C00FF2910B406D01C78F62C03D85DF8044BAB
:10124C00FFF79CBF03205DF8044B704707B51023D4
:10125C008DF8033030230A468DF804308DF80500E4
:10126C000DF10303022101A8FFF788FF03B05DF81D
:10127C0004FB00000B4B322210B51A7001225A707D
:10128C0098704FF47A7203211846FFF737FE044624
:10129C0028B96420FFF7A0FD002808BF03242046CE
:1012AC0010BD00BFF50F00200020FFF7E3BF0000CA
:1012BC001FB503788DF800308388ADF8043083684F
:1012CC008DF80630C3688DF80730036902934369C3
:1012DC00054A0393054B684653F8213052F8211008
:1012EC00984705B05DF804FBF811002000120020AF
:1012FC00024B4FF4807043F001031847C0690000A3
:10130C002DE9F047154690F80090324A42F82950E2
:10131C00314A42F829304B7B07460C4663B30868C8
:10132C00496882008B0002F1A04203F1A04340F215
:10133C000C66C2F800674FF0010AC3F800674FF063
:10134C00A0460AFA00F00AFA01F1C6F80805C6F838
:10135C00081540F20D61C2F80017C3F80017FFF72B
:10136C00C7FF4FF00008D6F810356268D340DB0792
:10137C000DD5B8F1000F1DD1002D184A4B4608BFF2
:10138C002A462146381DBDE8F04700F085BC23688D
:10139C000AFA03F3C6F80C35FFF7AAFF23680AFA1A
:1013AC0003F3C6F8083508F10108FFF7A1FFB8F1FF
:1013BC00090FD8D1636801264FF0A04806FA03F351
:1013CC00C8F80C35FFF794FF63689E40C8F80865B1
:1013DC00D2E700BF00120020F8110020BD1200005F
:1013EC001FB503788DF800304368019383688DF83E
:1013FC000830C368054A0393054B684653F82130FF
:10140C0052F82110984705B05DF804FB0812002033
:10141C000C1200201FB503788DF80030436801933F
:10142C0083688DF80830C368054A0393054B6846FA
:10143C0053F8213052F82110984705B05DF804FBA1
:10144C00081200200C120020F0B5194B90F800C0C7
:10145C0091F81DE043F82C20164B16460A6943F808
:10146C002C20154B03F80CE00C4607460FCC89B02A
:10147C006D460FC594E80F0085E80F00CDF810C03D
:10148C00BEF1000F09D0002E0C4A694608BF324647
:10149C00381D01F005F809B0F0BD002E084A694668
:1014AC0008BF324607F10C0000F0E0FDF3E700BF87
:1014BC000C1200200812002010120020ED13000066
:1014CC002114000000F1804000F5C040002382B0E0
:1014DC00036003680193019B02B07047800000F128
:1014EC00A040D0F8003723F44033C0F80037D0F8D0
:1014FC00003743EA0141C0F800177047054B4FF025
:10150C00FF32072843F8202084BF1B1883F848209B
:10151C00704700BF1412002010B5184991F85830CC
:10152C0053BB4FF0FF3222FA03F0C00748BFC81874
:10153C0003F1010348BF80F83020202BF3D10024A5
:10154C00E0B20134FFF7DAFF0C2CF9D10C4B00227E
:10155C00C0204A6583F80603402018604FF4BE7023
:10156C00FFF7B0FF074B4FF00040C3F80403012313
:10157C0081F85830104610BD0820FCE714120020EA
:10158C0000E100E000600040034B93F85800003885
:10159C0018BF0120704700BF14120020F0B5394E5F
:1015AC00331893F93030002B69DA8D78C5F3400588
:1015BC00002D0BBF082300230C240824A34201D1C7
:1015CC000420F0BD56F82370013743D137185CB2B4
:1015DC0046F8232087F8304015B9F21882F84800F5
:1015EC008A78550716D4D70736D5820002F1A04267
:1015FC00D2F8005725F00205C2F80057224FC50853
:10160C0000F0070C012202FA0CF217F805C042EAAE
:10161C000C027A558A780D7812F0020225D09B00C4
:10162C0003F1804303F5C0430002D3F8102522F4E4
:10163C00473222F44072C3F810252D04D3F810253C
:10164C0000F4F85005F4403528431043C3F8100556
:10165C000020B6E70133B1E74D7800F5E0724FF0AA
:10166C00A047AD0047F82250C8E7083C46FA84F47E
:10167C0094F8503043EA851384F85030E8E708209A
:10168C009FE700BF141200206812002010B51F4CF9
:10169C00231893F93020072A18DD083A44FA82F20D
:1016AC0092F850309B09032B0BD14FF0A043D3F889
:1016BC001015C14001F001010231BDE81040FFF7E7
:1016CC000DBF012B0CBF02210321F6E7D3B2072B70
:1016DC001AD8930003F1804303F5C043D3F81005E7
:1016EC0040F00100C3F8100502F1400040B2800048
:1016FC0080B2FFF7E7FE39B154F8223023B1012351
:10170C009340034AC2F8043310BD00BF14120020EA
:10171C00006000404FF0A043D3F8103523FA00F0DE
:10172C0000F00100704700002DE9F34700244E4DF6
:10173C0001944FF48072012102F1804303F5C04300
:10174C0090B21B68012B06D1D5F804330B4202D0A2
:10175C00FFF7B8FE0C430432B2F5907F4FEA41011B
:10176C00EAD1414BD3F87C31012B0CD14FF4BE7034
:10177C00FFF7A8FE4FF0A04344F00044D3F8202517
:10178C000192C3F82025E3B2D3B1384F00250126CE
:10179C00344210D0AB0003F1804303F5C043D3F8BF
:1017AC001005D3F8101557F8253023B1C1F30141BA
:1017BC00C0F3042098470135082D4FEA4606E7D1BF
:1017CC00002C48DA294C4FF0A047294D4FF0000867
:1017DC00012615F9013F5A1C31D0C3F3C20108315F
:1017EC006944DAB211F8041C03F03F0903F0070353
:1017FC0006FA03F3194222D009F5E073484657F86C
:10180C002330C3F3014ABAF1020F0CBF03210221AA
:10181C00FFF764FE06FA09F3C7F8203504EB090359
:10182C0093F9303054F823304BB19109032904D08B
:10183C00BAF1020F12D1012901D14846984708F19B
:10184C000108B8F1040FC4D1D7F820350193C7F8BB
:10185C002035002BB9D102B0BDE8F087BAF1030FE7
:10186C00EDD10229E8E700BF00600040141200200F
:10187C0063120020014B1B68184700BF7012002038
:10188C0038B50B4B98420C4601D0002038BD0020D7
:10189C0001F09CFB074B1D7915B901221C601A71D4
:1018AC00002001F095FB002DEFD01120EEE700BFDA
:1018BC000020004070120020034B984201BF034BE4
:1018CC0000221A601A71704700200040701200202C
:1018DC000023435082B043580193019B02B07047E0
:1018EC008B6A4A6B9A4210B54FF0010305D2496AD4
:1018FC008A5CC0F81C251A4604E091F82C201AB119
:10190C00C3610022104610BD0C6A640603D5C36186
:10191C0081F82D30F6E74361EDE770B5D0F804613E
:10192C0005460C4626B14FF48271FFF7D1FF012614
:10193C0094F82F2022B34FF492712846FFF7C8FF7A
:10194C004FF48E71FFF7C4FF4FF48471FFF7C0FFA3
:10195C00002E69D094F82F20002384F82D3092BBF0
:10196C00A36A616B99421CBF1646052386F00106DB
:10197C001CBFC5F80025C5F8003584F82F6023E09E
:10198C00D5F824314BB14FF492712846FFF7A0FFE4
:10199C0001236B6184F82F30DAE7D5F81C31ABB139
:1019AC004FF48E712846FFF793FF636B013363632B
:1019BC00D5F8243113B14FF49271E7E72146FFF7C4
:1019CC008FFF0028C4D10022104670BDD5F8083115
:1019DC00002BBDD04FF484712846FFF779FFD5F862
:1019EC002431002BE7D1636BA16A8B42B0D2616AC0
:1019FC00D5F81805C854636BA16A0133481E83429D
:101A0C00636308D1206A400610D40223C5F8003263
:101A1C0001232B629CE78B42FAD1236A5B0697D594
:101A2C00022384F82D30CFE70122CDE78B42EFD192
:101A3C00F6E7000037B5314B01930D464FF4827138
:101A4C00FFF746FF4FF49271FFF742FF4FF48E7190
:101A5C00FFF73EFF4FF48471FFF73AFF0023C0F805
:101A6C0000326B6385F82F300123036295F82D202B
:101A7C009A4218BF836029460446FFF731FF2B6852
:101A8C0083B140F28623AB60AB68C4F8043300200A
:101A9C0003B030BD29462046FFF73FFF28B1019B1C
:101AAC00013B0193019B002BF4DC95F82F0050B9FE
:101ABC00019B002BECDC0023C4F800350523C4F893
:101ACC0000350320E4E7D4F8C434C4F8C43493B12B
:101ADC0013F0010F14BF4FF40240032048F201220F
:101AEC0013F0020F18BF104613F0040F48F2022334
:101AFC0018BF1846DCE70320DAE700BFA086010018
:101B0C0037B5344B01930D464FF48271FFF7E0FE6D
:101B1C004FF49271FFF7DCFE4FF48E71FFF7D8FE95
:101B2C004FF48471FFF7D4FE00236B6385F82F30DC
:101B3C00AB6A012B044617D12B6A5B0614D4022323
:101B4C00C4F800320123236295F82D20022A18BF15
:101B5C0023602B6893B140F28623AB60AB68C4F86A
:101B6C000433002003B030BD0123E9E729462046A9
:101B7C00FFF7D3FE28B1019B013B0193019B002B86
:101B8C00F4DC95F82F0050B9019B002BEADC002304
:101B9C00C4F800350523C4F800350320E2E7D4F877
:101BAC00C434C4F8C43493B113F0010F14BF4FF410
:101BBC000240032048F2012213F0020F18BF104616
:101BCC0013F0040F48F2022318BF1846DCE7032079
:101BDC00DAE700BFA0860100F0B52C4C2C4887B08A
:101BEC002146FFF79AFE002847D194F82F70D4F8BD
:101BFC0020C0FFB9237B9A1E012A1BD8616AA269F7
:101C0C00914217D1E2696262CCF3401C62692048B0
:101C1C00A262032B84F82CC084F82D70214604D1C9
:101C2C0007B0BDE8F040FFF705BF07B0BDE8F040D6
:101C3C00FFF766BF174E0FCE01AD0FC533682B6093
:101C4C00EFB1134AD2F8C434C2F8C434990718D48B
:101C5C005A0718D403F00103C3F10403DBB28DF867
:101C6C0000301CF0040F4FF0000384F8303000D02B
:101C7C001FB1D4E900316846984707B0F0BD3B4628
:101C8C00EDE70123EBE70223E9E700BF7812002020
:101C9C0000300040841200202DE9F84F0779314EB6
:101CAC004FF03C0A0AFB07FA06EB0A059B4695F82F
:101CBC002E3080460C469146002B4FD12A490068A5
:101CCC00FFF7DEFD00284BD12168637B85F83830A7
:101CDC0001F5E0724FF0A043A860C5F804B085F898
:101CEC00300085F82D0085F8310040F20C6546F87F
:101CFC000A9043F82250626802F5E07C43F82C50BD
:101D0C00D8F80030C3F80815C3F80C25A268C3F83E
:101D1C002425B9F1000F14D0227B43F30731520173
:101D2C000029C3F30733D2B213DB104C651885F8C6
:101D3C0000230122490903F01F0302FA03F344F8BC
:101D4C0021303C2303FB0766012386F82E30BDE8C7
:101D5C00F88F074903F00F03CA54F2E70820F6E79F
:101D6C001120F4E778120020E51B000000E100E0F0
:101D7C0014ED00E0036802790521C3F80015044B4B
:101D8C003C2101FB0233022283F82E20704700BF56
:101D9C00781200202DE9F047314F0479D0F80090EB
:101DAC003C2303FB04730D4693F82D30012B944612
:101DBC0004D10B78012B06D1082011E0022B02D1A3
:101DCC000B78012BF8D13C26264BC9F8083306FBBF
:101DDC00047696F830302BB1B368C9F8043311206F
:101DEC00BDE8F0878CF00403C3F3800386F8303031
:101DFC00C6F820C0A846B8E80F0006F10C0EAEE8F5
:101E0C000F00D8F80030CEF800306B68B362EB6886
:101E1C0073626B78C9F888352B78C4EB041A012BE4
:101E2C0007EB8A0A17D09BB9CCF3401C3C2303FB6D
:101E3C000473514683F82CC04846FFF7FBFD3C2346
:101E4C005C433A193B59002BCAD182F83030C7E7B2
:101E5C004FF0010CEAE751464846FFF751FEEEE71A
:101E6C00781200208642040010B586B00024CDE91B
:101E7C0004249DF820208DF80510520101A9CDE90C
:101E8C0002348DF80440FFF785FF06B010BD10B585
:101E9C0086B0012402930023CDE903328DF805109E
:101EAC001A4601A98DF804400593FFF773FF06B09D
:101EBC0010BD0023435082B043580193019B02B0E4
:101ECC0070470A4610B54FF48E71FFF7F2FF136A94
:101EDC009168C95C136A01331362C0F81C1510BDFC
:101EEC008B690A4610B54FF4847123B9FFF7E1FFF3
:101EFC00D0F8183510BDFFF7DCFF536AD168D0F865
:101F0C001805C854536A01335362F3E71FB5012314
:101F1C008DF80030044BCDE90110D3E9001268466E
:101F2C00904705B05DF804FBB412002030B54D4D60
:101F3C00D5F804339A0585B051D5D5F82431002B4A
:101F4C004DD04FF492712846FFF7B3FF4FF4017355
:101F5C00C5F80833444B93F829200AB901226A606A
:101F6C00404902228DF80020D1F88024C1F8802449
:101F7C0003929A690292DA6801920022C3E906225E
:101F8C006846D3E9001290473648D0F81C315BB153
:101F9C00354A5169136A99424DD992F82830002B71
:101FAC0049D11146FFF78DFF2E48D0F84431002B54
:101FBC0056D04FF4A271FFF77CFF2B4B93F82920DE
:101FCC000AB1012202609A69002A49D0586AD9687C
:101FDC0000229A6105B0BDE83040FFF797BFD5F8F5
:101FEC0004335B07D0D5D5F80831002BCCD01E4C70
:101FFC001C482146FFF774FF636AA2699A42C3D159
:10200C00E369E1684BB1A3612369E3600023606A73
:10201C00E3616362FFF77AFFB6E794F829300BB9F6
:10202C0001236B600F4B4FF40172C3F8082300239C
:10203C00606AA361EEE70B484FF48E71FFF739FF2E
:10204C005369002BB0D051690291002391688DF82F
:10205C000030019153616846D2E900139847A3E719
:10206C0005B030BD00200040B41200202DE9F8432B
:10207C00534D90F804802C2303FB0853064693F829
:10208C002A300C469146002B40F095804D49006853
:10209C00FFF7F6FB0746002840F08F802168336875
:1020AC00481C0BD04FF0A04001228A40C0F80825F4
:1020BC0001F5E0724FF0030C40F822C06068421C3E
:1020CC001FBF00F5E0724FF0A04C4FF0000E4CF823
:1020DC0022E0A269C3F8242594F814C0627DBCF1F7
:1020EC00010F4CEA0202C3F86C25C3F81405C3F8BF
:1020FC000C151DD1A1684A1C1FBF01F5E0724FF0F1
:10210C00A0404FF0000C40F822C0E268501C0BD0ED
:10211C004FF0A04C01209040CCF8080502F5E0707F
:10212C004FF0030E4CF820E0C3F80825C3F8101547
:10213C002C2303FB08F3EA18C2F804902269EA5036
:10214C00B9F1000F1FD03068227F4FF48E71FFF76A
:10215C00B0FE4FF4A271FFF7ACFE1B4BC0F804337A
:10216C0040F3073153010029C0F30730DBB21DDB0C
:10217C00164A541884F800330123490900F01F0053
:10218C00834042F8213033680422C3F800252C2305
:10219C0003FB08530022C3E9062283F829205A6165
:1021AC00012283F82A203846BDE8F883084A00F05B
:1021BC000F001354E7E70827F5E71127F3E700BFF3
:1021CC00B4120020391F00008000020000E100E082
:1021DC0014ED00E0F8B503680579304C0022C3F823
:1021EC0000252C2202FB05425268A2B12C4AC3F8EE
:1021FC000823190B43F30733002B0CDB01F01F01F1
:10220C005B0901228A402033264941F82320BFF381
:10221C004F8FBFF36F8F0068D0F80C65D0F8141592
:10222C00D0F80835D0F810254FF0FF37BE42C0F873
:10223C00147518BF06F5E076C0F80C75C0F8087573
:10224C00C0F810751EBF4FF0A0474FF0020C47F8B6
:10225C0026C04E1C1FBF4FF0A04601F5E0710227AF
:10226C0046F82170511C1FBF4FF0A04102F5E072DF
:10227C00022641F822605A1C1FBF03F5E0734FF091
:10228C00A042022142F82310FFF716FB2C2303FB7C
:10229C000544002384F82A306360F8BDB412002092
:1022AC008402020000E100E00279044B2C2101FBC6
:1022BC0002335869003818BF01207047B41200204F
:1022CC002DE9F84F074690F8048089469346FFF7AE
:1022DC00EBFF0446002839D11E4E2C2508FB056A5D
:1022EC004FF48E71CAF814B0CAF80890CAF82000DE
:1022FC008AF828003868FFF7DCFD0123836051461B
:10230C00FFF7DFFDDAF8043055460BBBDAF8144062
:10231C002B6A9C4210D8D0F81C31002BFBD0012327
:10232C00C36000202C2303FB086600237361BDE807
:10233C00F88F95F828303BB9D0F81C31002BF8D029
:10234C005146FFF7BEFDE3E70F20EBE71120EEE768
:10235C002046ECE7B41200200023435082B04358CF
:10236C000193019B02B070471FB501238DF800301B
:10237C00044BCDE90110D3E900126846904705B033
:10238C005DF804FBE01200207FB5434AD2F82461CB
:10239C00002E60D010464FF49271FFF7DDFF022340
:1023AC008DF80030D2F88034C2F880340393D2F820
:1023BC003C350293394BDA6801920022C3E90622BC
:1023CC006846D3E9001290473348D0F8443173B1D2
:1023DC004FF4A271FFF7C0FF304B9A693AB100225B
:1023EC00C3E90622D968D0F83C05FFF7BDFF2A489F
:1023FC00D0F82031ABB14FF49071FFF7ADFF012352
:10240C00C360264B5A6962B1D0F84C150291002278
:10241C0099688DF8002001915A616846D3E9001241
:10242C0090471D48D0F858319BB14FF4AC71FFF771
:10243C0093FF1A4B5A6962B1D0F84C1502910022E5
:10244C0099688DF8002001915A616846D3E9001211
:10245C00904704B070BDD2F81031002BB4D04FF4BB
:10246C0088711046FFF778FF0C4BD2F83C05996940
:10247C008842A9D1DC69D96864B1D2F8005225F040
:10248C002005C2F800521A699C61DA60DE61FFF720
:10249C006BFF99E79C61FAE700200040E0120020F6
:1024AC002DE9F843584D90F80480242303FB08537E
:1024BC00064693F820300C469146002B40F09F8046
:1024CC0052490068FFF7DCF90746002840F0998074
:1024DC0021683368481C0BD04FF0A04001228A4081
:1024EC00C0F8082501F5E0724FF0030C40F822C04B
:1024FC006068421C1FBF00F5E0724FF0A04C4FF01B
:10250C00000E4CF822E0A269C3F8242594F814C0FC
:10251C00627DBCF1010F4CEA0202C3F86C25C3F8D2
:10252C000C15C3F814051DD1A1684A1C1FBF01F579
:10253C00E0724FF0A0404FF0000C40F822C0E2686F
:10254C00501C0BD04FF0A04C01209040CCF808054B
:10255C0002F5E0704FF0030E4CF820E0C3F80825AC
:10256C00C3F81015242303FB08F3EA18C2F80490EF
:10257C002269EA50B9F1000F2BD03068227F4FF45A
:10258C008871FFF7E9FE4FF49071FFF7E5FE4FF409
:10259C009271FFF7E1FE4FF4A271FFF7DDFE4FF4ED
:1025AC00AC71FFF7D9FE1A4BC0F8043340F3073176
:1025BC0053010029C0F30730DBB21BDB154A54185A
:1025CC0084F800330123490900F01F00834042F8CE
:1025DC00213033680822C3F80025242303FB085557
:1025EC000023C5E906336B61012385F8203038469A
:1025FC00BDE8F883084A00F00F001354E9E70827F8
:10260C00F5E71127F3E700BFE01200209523000047
:10261C001003420000E100E014ED00E0F8B5444C7A
:10262C000579242303FB054302465B680068ABB1C4
:10263C00404BC0F8083340F30733002B4FEA1036F9
:10264C000CDB06F01F065B090121B14020333A4E2A
:10265C0046F82310BFF34F8FBFF36F8FD0F80032C3
:10266C0023F02003C0F80032242303FB05439B69AD
:10267C002BB14FF4A271FFF76FFE012343604FF4AF
:10268C00AC71FFF769FE0123C360242303FB0543F0
:10269C00D0F858110029FBD0996919B1D0F8441120
:1026AC000029F5D00023C0F800351368D3F80C7559
:1026BC00D3F81465D3F80825D3F810154FF0FF3C68
:1026CC006745C3F80CC518BF07F5E077C3F814C508
:1026DC00C3F808C5C3F810C51EBF4FF0A0434FF098
:1026EC00020C43F827C0771C1FBF4FF0A04306F520
:1026FC00E076022743F826704E1C1FBF01F5E071EF
:10270C004FF0A043022643F82160531C1FBF4FF02B
:10271C00A04302F5E072022143F82210FFF7CCF837
:10272C00242303FB0544002384F820306360F8BDA8
:10273C00E01200201003420000E100E00279044B9B
:10274C00242101FB02335869003818BF012070475F
:10275C00E012002001F06043B3F1005F2DE9F04777
:10276C000746884692463AD190F80490FFF7E6FF68
:10277C000446002835D11D4E3A68242505FB096511
:10278C004FF490711046C5F814A0C5F80880FFF7F7
:10279C00E3FD4FF4AC71FFF7DFFD6B69A968C2F87C
:1027AC004415C2F84835012393606B68DBB9D2F845
:1027BC002031D2F858011BB90028F8D00F2007E0BF
:1027CC000028FBD10123D360D2F85831002BFBD069
:1027DC00242303FB096600237361BDE8F0871020F6
:1027EC00FBE71120F9E72046F7E700BFE0120020D5
:1027FC00C30710B507D4F023054A4008145C2340E6
:10280C001943115410BD0901C9B20F23F4E700BFDD
:10281C001813002030B5094B1C78094B196800239C
:10282C009C4202DC0022104630BD11F83350854228
:10283C0001EBC302F7D00133F2E700BF0413002011
:10284C002813002013B504460191FFF7E3FF38B1BC
:10285C0043682BB10199204602B0BDE810401847DF
:10286C0002B010BD034B044819680022490800F05F
:10287C008FBA00BF081300206000002010B5C0B252
:10288C00FFF7C8FF04460078FEF744FF63785A1E32
:10289C0053425341834208D1044AD2E900321343D4
:1028AC0003D1BDE81040FFF7DDBF10BD10130020B1
:1028BC0038B5344A43080446D35CC2074CBF1B09E5
:1028CC0003F00F030D46042B5AD8DFE803F0032264
:1028DC002B373A00002953D00121FFF789FF002044
:1028EC0000F074FB0122A4F12003C4F1200026495E
:1028FC0022FA00F002FA03F30343A240D1E90040AC
:10290C0014431843C1E90040BDE83840002000F0F2
:10291C005FBB003918BF012149002046BDE8384093
:10292C00FFF766BF41B10321FFF762FF204601218B
:10293C00BDE83840FFF786BF0121EEE701BB04215B
:10294C00EBE709B10321E8E7FFF752FF29462046E0
:10295C00FFF778FF284600F039FB0122A4F1200391
:10296C00C4F12000084922FA00F002FA03F30343F1
:10297C00A240D1E9004024EA020420EA0300C1E7A6
:10298C0038BD00BF18130020101300202DE9F041B2
:10299C00124E134F00243378A34208DC114AD2E9BB
:1029AC000032134318D0BDE8F041FFF75BBF3D6820
:1029BC0005EBC40815F83400FEF7ACFE98F80130AE
:1029CC005A1E53425341181A4142414115F83400E2
:1029DC00FFF76EFF0134DEE7BDE8F0810413002041
:1029EC002813002010130020092AF7B505460C46C1
:1029FC0016463ED9FEF7C8FDE8B11F4B1F481D60B7
:102A0C001F4B204F1C70204B002110221E6002F027
:102A1C005BFF1E4B00200021C3E90001013CE4B226
:102A2C000326FF2C0DD11A4A1A48002103B0BDE829
:102A3C00F04000F09BB9FEF76FFD0028DDD003B02D
:102A4C00F0BD9DF8063015F834008DF8046005EBE8
:102A5C00C40223F007038DF8063001A993788DF892
:102A6C0005303A46FEF79AFD013CE4B20028D8D076
:102A7C00E5E70720E3E700BF281300201813002028
:102A8C0004130020892800000813002010130020D4
:102A9C0099290000EC69000070B5084D084E00241F
:102AAC002B789C4201D3002070BD3368012113F8B0
:102ABC003400FEF7EBFD0134F2E700BF04130020F5
:102ACC002813002082B001238DF807309DF80730C1
:102ADC00114B1860596044F2010188429A6012D07F
:102AEC0044F20201884206D1DA60DA6812689A610F
:102AFC00DA685268DA6172B69DF80730002BFBD1A8
:102B0C0062B602B070471A611A6992685A611A6902
:102B1C0012689A611A69ECE72C13002000B583B097
:102B2C0002900091019244F2010071466A4600F055
:102B3C0003F803B000BD0000F0B5064687B00F46A1
:102B4C00154672B601F00EFC01F00CFA0028FBD110
:102B5C001E4B1F4CE41AE40844F2010324049E4269
:102B6C0044F0010417D044F202039E4228D1D5E967
:102B7C0000321849204601F044FB174BD3F8F030D3
:102B8C00DB0700D500BE2A463946304607B0BDE803
:102B9C00F040FFF797BFAA680592104600F0ECFFD3
:102BAC00296802970191696800910346059A0B49BF
:102BBC00204601F04AFB0A49204601F015FBDCE7F0
:102BCC0008493A46204601F013FBD6E7E8600000BE
:102BDC0018610000F069000000ED00E00A6A0000D6
:102BEC00306A0000446A000010B5D0E90242D1E915
:102BFC000203A04293412CBF0120002010BD000015
:102C0C0008B50A4800F001FB094AD2E90031C018A6
:102C1C00084BD3E9002341F10001904271EB03030F
:102C2C0003D210F1807041F1000108BD800000203A
:102C3C0050130020C813002037B505460C460A482F
:102C4C0001A900F0C4FB60B10570446001A90648FD
:102C5C0000F0E7FB18B1054800F0DCFA002003B0E7
:102C6C0030BD0420FBE700BFB4130020800000201F
:102C7C00234B70B51E78044616B90026304670BD3D
:102C8C000028FAD0FFF7BCFFD4E902239042994107
:102C9C002FD3002000F09AF923692BB94FF0FF32A3
:102CAC004FF0FF33C4E90223002000F091F9D4E97E
:102CBC0005309847002000F089F925696DB1D4E9F9
:102CCC000212B2F1FF3F08BFB1F1FF3F0FD06918FC
:102CDC0042F10002C4E902123546002000F078F9F6
:102CEC00002DCAD00748214600F001FFC6E7002599
:102CFC00F3E7B3F1FF3F08BFB2F1FF3FBDD0F1E7FF
:102D0C00581300206C6A000013B5114B1149186858
:102D1C00019008231048582200F046FB044698B94D
:102D2C000E4A0F4801A900F063F9044660B90C483B
:102D3C00012100F04DFA01230A4A0948194600F016
:102D4C00AFF9094B01221A70204602B010BD00BF2A
:102D5C00666A00005C130020B4130020FD2D0000F7
:102D6C0080000020FFFF7F005813002030B56AB1AF
:102D7C0003684FF0FF344FF0FF355A614A1E514241
:102D8C00C3E9024551411961002030BD0720FCE721
:102D9C00F8B50446002017460D4600F017F9D4E9A3
:102DAC000223B3F1FF3F08BFB2F1FF3F15D1FFF78C
:102DBC0027FF281841F10001C4E902010126002077
:102DCC0000F006F95EB12369A76103B125612146C4
:102DDC000020BDE8F840FFF72FBF0026EFE7304694
:102DEC00F8BD0000014800F010BA00BF80000020C0
:102DFC002DE9F743064600F0F3F940B1624AD2E9F7
:102E0C00003113F1807341F10001C2E9003100215E
:102E1C00304600F0F4F938B15C4C236823B12068DB
:102E2C00FFF726FF002323600121304600F0E7F96D
:102E3C0020B1FFF7E5FE564BC3E900015548534C52
:102E4C0001A900F0FEFA4FF0FF384FF0FF39A0B99E
:102E5C00DFF844814D4D404600F05FFE002800F045
:102E6C008580D0E90223B3F1FF3F08BFB2F1FF3FE9
:102E7C0032D1404600F04BFEEDE70378012B20D019
:102E8C00022B08D1444D284600F041FE002877D093
:102E9C00C0E90289F7E75BB94168D1E90223B3F1D4
:102EAC00FF3F08BFB2F1FF3F02D03B4800F01FFECE
:102EBC0001A9384800F0F0FA01A9364800F0C1FA2F
:102ECC00C5E741682368994202D100232360EFE7EC
:102EDC00314800F025FEEBE7296891B12968D1E96A
:102EEC00020182428B412FD22B68D3E90223B3F12A
:102EFC00FF3F08BFB2F1FF3F03D02968404600F006
:102F0C00F6FD404600F003FED0E902490746FFF704
:102F1C0077FE201A69EB0101012871F1000918DB19
:102F2C00B0F5350F13D3FFF75DFF1C4A02441C4864
:102F3C004FF49603002100F0D3F890B92B6813B925
:102F4C00304600F0A5F82F6003B0BDE8F0832246B0
:102F5C00EDE71348002100F048F93846FFF788FEEA
:102F6C0001E00D28F9D000232B6074E7074B1B6898
:102F7C00002BE9D1304603B0BDE8F04300F08CB82B
:102F8C00084B01221A7093E750130020D013002035
:102F9C00C8130020B41300206C6A0000FFFFB400BB
:102FAC00800000205813002072B6024A13680133C7
:102FBC0013607047D4130020034A1368013B13605D
:102FCC0003B962B6704700BFD4130020FFF7ECBF03
:102FDC00FFF7F2BF435882B03BB100234350435834
:102FEC000193019B012002B070471846FBE70000DB
:102FFC00F8B51F4B44791F4E43F824201E4A1F4B33
:10300C0006EBC4049B1A2279DB081B0432B143F093
:10301C0002001B4901F0E8F80820F8BD02680C8892
:10302C00C2F8084590F904508A7804795201002DB1
:10303C00D2B218DB13494F1987F8002301226D090E
:10304C0004F01F04A24041F82520427906EBC2018E
:10305C00012446F832000C7143F003000A4901F0D8
:10306C00C3F80020D9E7094904F00F040A55ECE72E
:10307C00E0130020D8130020E86000002861000055
:10308C00786A000000E100E09A6A000014ED00E0AC
:10309C00036801221A607047036801225A60704766
:1030AC0073B501F15005AD000068ADB24FF480343A
:1030BC008C400026C0F80843C0F84843465101F53F
:1030CC00A8714559019522F07F42019D40F82120BD
:1030DC00C0F844430BB1C0F8044302B070BD00000B
:1030EC002DE9F74F0D4622F07F4402684FF48037EC
:1030FC0005F150068F408046B60002EB8500C2F801
:10310C004873B6B2C2F80873D2F8041599464FF05A
:10311C00000BD0F84035C0F8401542F806B05B1AE9
:10312C009259009223F07F43012B009A4FEA850AB3
:10313C000CD1264B4FF4806043F001039847D8F82C
:10314C00003043F806B09B590193019BD8F800203E
:10315C00D2F80465C2F84473A31B23F07F43012B00
:10316C001CD11A4B05F5A875013443F0010342F844
:10317C0025404FF480609847D8F80030D3F80435D8
:10318C009E4209D1D8F800300020C3F84473C3F82C
:10319C00047303B0BDE8F08F0D20FAE79244C9F137
:1031AC00FF13CAF84045D2F80405211A013921F061
:1031BC007F4103F57F438B42EED30029E2D10134EA
:1031CC00CAF84045D2F804359842DAE7B06A0000F4
:1031DC0003680222C3F8442309B1C3F804237047DF
:1031EC0000684FF48271FFF7F5BE4FF4803303FA99
:1031FC0001F10368C3F84813C3F808137047503142
:10320C008900006889B2FFF7E5BE0368D3F80405AE
:10321C007047000090F90430002B09DB5A0901219A
:10322C0003F01F03994002F14003024A42F82310B5
:10323C00704700BF00E100E0024B034A1B681068B6
:10324C00184700BFE0130020D81300201EF0040F15
:10325C001CBFEFF309800AE0EFF308800549064A2A
:10326C00884201D8904202D88D464FF00000034BA3
:10327C00184700000000012000E00020B1320000DF
:10328C00BFF34F8F0549064BCA6802F4E062134343
:10329C00CB60BFF34F8F00BFFDE700BF00ED00E038
:1032AC000400FA052DE9F347054601F05BF800F040
:1032BC0059FE0028FBD1304B304C9F6A304BE41A3E
:1032CC00E408240444F00104002D4FD0AA692D49D0
:1032DC00204600F08DFFEB680193AB682A49009300
:1032EC002046D5E9002300F0A2FFEB6900932749A3
:1032FC00D5E90423204600F08EFF1F4BDB6A9907AB
:10330C0003D52349204600F06FFFDFF89490DFF8D7
:10331C0094A000264FF0010808FA06F33B4206D0B1
:10332C0059F826201AB15146204600F061FF0136AB
:10333C001A2EF1D13A0605D50F4B16495A6B204679
:10334C0000F056FF17F4004F0B4E04D0B26B12492D
:10335C00204600F04DFFD6F8F030DB0700D500BE5C
:10336C002846FFF78DFF02B0BDE8F0870B492046D9
:10337C0000F03AFFC1E700BF00ED00E03061000053
:10338C00E8600000B66A0000CB6A0000006B000029
:10339C005B6B0000AA6B0000CA6B0000286B00007E
:1033AC00A47000009F6B000010B561B1B2FBF3F488
:1033BC0003FB1424A4B244B9C0E9001484608281D4
:1033CC00C381204610BD0E20FCE70920FAE737B573
:1033DC0050E8013F9DB2C48925448489A54228BF89
:1033EC002D1B0489A54202BFBFF32F8F002207E0DB
:1033FC00C5EA030540E80154002CE9D14FF0010265
:10340C008DF803200193019A0A609DF8031001F0D6
:10341C00FF0321B1006810FA82F003B030BD1846EA
:10342C00FBE70A884B889A4209D150E8012FC2EA7F
:10343C00024240E80123002BF7D101207047002005
:10344C00704737B550E8023F1FFAA3F5C488A54270
:10345C0002BFBFF32F8F00220DE0C489254484895D
:10346C00A54228BF2D1BC3EA054540E80254002C99
:10347C00E8D14FF001028DF803200193019A0A6004
:10348C009DF8031001F0FF0321B1006800EB12401E
:10349C0003B030BD1846FBE70A884B889A4209D125
:1034AC0050E8022FC2EA224240E80223002BF7D157
:1034BC00012070470020704710B5034653E8000FF9
:1034CC000A4643E8002494F0000FF7D110BD10B564
:1034DC00034653E8002F42EA010043E8000494F04D
:1034EC00000FF6D110BD10B5034653E8000F00EAEB
:1034FC00010243E8002494F0000FF6D110BD10B582
:10350C00034653E8002F02EB010043E8000494F05B
:10351C00000FF6D110BD10B5034653E8002FA2EBF7
:10352C00010043E8000494F0000FF6D110BD012116
:10353C00FFF7CDBF0021FFF7D6BF10B590B1D0E992
:10354C00012301689B1ADBB20A60013BDBB2FF2B43
:10355C00026802D10020107110BD11684C1C14605F
:10356C000B70F2E70E20F7E738B504460020FFF7A2
:10357C002DFD2268616813688B4213D9591E1160A6
:10358C0013F8013C208AE56800FB0355A3685B1A1D
:10359C001179DBB2994200D213710020FFF718FDAC
:1035AC00284638BD0025F8E738B5054600200C46FE
:1035BC00FFF70CFD2A681368591C1160EA68A41AFD
:1035CC002A8AB4FBF2F41C70BDE838400020FFF7E7
:1035DC00FFBC826810B504462AB1436901680069D2
:1035EC0098470023A36010BD0EB403B5039921B115
:1035FC0004AB01AA019300F077F802B05DF804EB7C
:10360C0003B070470A2938B504460D4602D10D2186
:10361C00FFF7F8FFA3682268591CA160D554D4E9C0
:10362C0001329A4204D32046BDE83840FFF7D1BF9F
:10363C0038BD00002DE9F84F9846DDE90A431546E0
:10364C0082460F460A464FF00109AA420FD2C145E5
:10365C0038BFC14613F0010B01D16CB9002401260F
:10366C00B8F1010F1BD908F1FF386E43F8E709F1E7
:10367C000109B2FBF5F2E8E79B070ED5B8F1000F94
:10368C000CBF30262026A145E9D2013C31465046DC
:10369C00FFF7B8FF002CF6D1E0E72026F3E7B7FBE5
:1036AC00F6F39D42E1D9DFF83C80B7FBF6F35046C8
:1036BC0018F8031006FB1377FFF7A4FF3346AB4251
:1036CC00B6FBF5F6F1D2BBF1000F02D00CB1A1455F
:1036DC0001D3BDE8F88F20215046013CFFF792FF43
:1036EC00F4E700BF0C7100002DE9F74F05461746B3
:1036FC008846002900F03E8118F8011B49B92B7B44
:10370C00002B00F03781284603B0BDE8F04FFFF7DF
:10371C0060BF252940F0B780002698F800302D2B8B
:10372C00424608F1010823D0302B24D02B2B25D076
:10373C0000242A2B02F1010123D13B681A1D1B68BE
:10374C003A601C440A4613782E2B26D101324FF0D6
:10375C00000A104610F8011BA1F1300CBCF1090F46
:10376C001DD80A2303FB0A11A1F1300A0246F0E727
:10377C0046F00106D1E746F00206CEE746F0040615
:10378C00CBE711F8013CA3F130000928DBD80A2261
:10379C0002FB0434303C0A46CBE74FF0000A12F827
:1037AC00011B01F0FB0068289046F8D0782909D855
:1037BC006F290CD8632962D022D8252963D05829C7
:1037CC0000F0888098F80030002B95D197E770397D
:1037DC000829F7D801A252F821F000BF5B3900008C
:1037EC00D1370000D1370000F1380000D13700008C
:1037FC00CF380000D1370000D1370000E13800008D
:10380C00642901D06929DDD13A68D2F80090111DE4
:10381C0089EAE9723960A2EBE9724FF0010B092ACF
:10382C0035DCD34538BFD3462CB1B9F1000F01DBE1
:10383C00720700D5013CB30702D5BAF1000F03D0D3
:10384C00F00701D44CBB0024B9F1000F2DDAC9F1FB
:10385C0000092D212846FFF7D5FE06F00302022AA7
:10386C0004D1BAF1000F01D11CBB0024CDE90046F4
:10387C0053460A2249462846FFF7DCFEA2E73B687E
:10388C001A1D19783A602846FFF7BCFE9AE70A23FE
:10389C000BF1010BB2FBF3F2C1E7A345D4D220210B
:1038AC002846013CFFF7AEFECCE77107D5D52B219E
:1038BC00D0E7A345DAD230212846013CFFF7A2FE1F
:1038CC00D2E73968CDE900460A1D3A6053460A2210
:1038DC000968D0E739680A1D3A60CDE900465346BD
:1038EC001022F5E73B681A1D3A6016F00106D3F872
:1038FC00009024D1B9F1000F03D0484601F07EFFAF
:10390C000646B4421DD809F1FF3919F8011F0029E8
:10391C003FF458AF2846FFF775FEF6E72846013608
:10392C00FFF770FE19F806100029F7D1A642BFF474
:10393C0049AF20212846013CFFF764FEF6E700263C
:10394C00F0E720212846013CFFF75CFED9E73B68F5
:10395C001A1D3A60302128461C68FFF753FE782167
:10396C002846FFF74FFE00220823CDE900322146FE
:10397C00102280E703B0BDE8F08F00BF2DE9F84FAF
:10398C00B0F806A04579D2F800B09DF828900AFB53
:10399C0005F5043D88460BEB0301A94203F1040431
:1039AC0088BFA5EB030BB4FBFAF607460AFB1644DB
:1039BC00C2F800B04EB9AAEB04055D4528BF5D46C0
:1039CC00BBF1000F04D1BDE8F88F3F68013EF1E771
:1039DC00043408EB06003C442A46B9F1000F0DD024
:1039EC002146ABEB050B01F039FFDA452E443F685D
:1039FC0055464FF0000428BF5D46E1E701462046DE
:103A0C00EFE7FFF79ABDF8B546790146721E0546F9
:103A1C00002393422D6803D30024A64202D8F8BD9C
:103A2C000133F6E70F682846FFF7BEFD013439462F
:103A3C00F3E72DE9F843068ACD1C0746FFF794FD02
:103A4C00043E35440446B5FBF6F5F0B14FF48073F3
:103A5C00EDB28380C680013D076081464FF00008BF
:103A6C00A84512D23846FFF77FFD064648B1637968
:103A7C000133637108F10108C9F800000760814641
:103A8C00EEE72046FFF7BFFF34462046BDE8F8833B
:103A9C0001210430FFF733BD10B501210446043079
:103AAC00FFF739FDC0B220B92046BDE81040FFF742
:103ABC00AABF10BD1FB503920022009203AAFFF704
:103ACC005DFF05B05DF804FB1FB503920122009267
:103ADC0003AAFFF753FF05B05DF804FB83680022CF
:103AEC005A60C3E904229A60DA601A60704770B5B4
:103AFC00446806460D46206818B1B36829469847B5
:103B0C0018B923682B60256070BD2468F3E74368FF
:103B1C00186808B102681A607047436818687047E3
:103B2C004368186800B97047884203D102681A606C
:103B3C000120704703460068F4E7000010B50D49FA
:103B4C00A1F58C72914201D800200FE08C1AE30F82
:103B5C0003EBE4035B1002EBC30452F833308342F3
:103B6C0005D802D204F10802ECE7606810BD2146CA
:103B7C00E8E700BFD075000008B5FFF7DFFF024B88
:103B8C00002808BF184608BDA2740000F0B595B017
:103B9C001D46164608460C46FFF77AFF1A9B0D93F6
:103BAC00CDE9086500252B46082205A920460A9573
:103BBC008DF82C500C95FFF787FF079B0293069B03
:103BCC0003939DF814308DF8115003F00302012A71
:103BDC001DD1BDF81420059DC3F3C203C2F3831697
:103BEC008DF81030B20008230EA92046FFF76CFFA9
:103BFC00C5F3952508AB0093324602AB0EA92846B7
:103C0C0000F024FC2046FFF747FF15B0F0BD022A58
:103C1C00F8D1BDF81650C3F3C203C5F389158DF85E
:103C2C0010300827082D2E4628BF08263B46324662
:103C3C000EA92046FFF748FFAD1B08AB02AA314680
:103C4C000EA8374400F066FC002DEBD1DAE700003B
:103C5C00014B01221A707047251400207047000098
:103C6C0070B50F4D06460FCD88B06C460FC495E865
:103C7C000F00002E84E80F000A4A0B484FF0060391
:103C8C0008BF002269460093FDF7DEFB18B1074A16
:103C9C004321FEF743FF064B1E7008B070BD00BFFA
:103CAC005C7600005D3C000088000020D0750000B0
:103CBC00E413002007B5044B0093044A4023FFF79C
:103CCC0065FF03B05DF804FBDD3C0000E51300204C
:103CDC0038B50E480E4C0F4D002323700378EB5C67
:103CEC00D2B273B10430FEF735FD18B10A4A532134
:103CFC00FEF714FF094B1A7812B12378002BFBD076
:103D0C0038BD0C30FEF7DCFAEFE700BF880000206E
:103D1C002514002010120020D0750000E4130020A0
:103D2C0008B50848084A0378D35C3BB10430FEF769
:103D3C0075FCBDE808400020FFF792BF0C30FEF781
:103D4C0049FAF6E788000020101200200120FFF746
:103D5C0087BF000008B5FFF7F9FF0448042100F005
:103D6C00DFFA034B01225A7108BD00BF78610000D5
:103D7C009C000020027812F0040316D002F003031A
:103D8C00012B03D0022B09D0012070470A68008850
:103D9C000232C0F3831002440A60F5E70B684288D4
:103DAC00023303EB92130B60EEE7184670470000EA
:103DBC002DE9F04F414C884685B00546871C002004
:103DCC001646FFF703F96268C8F80020A36803F5EC
:103DDC0080739B1A04F21C4804F5836A04F214499C
:103DEC00BB4217D30021002E63D005F00F05AD01A7
:103DFC0045F0050565F30F016368DAB203323B4405
:103E0C00002044F822106360FFF7E2F8012005B0AF
:103E1C00BDE8F08F01214046FFF771FB5046FFF7DC
:103E2C0086FB4846FFF783FBA0680090C0B20330C6
:103E3C0004EB80006946FFF79DFF20BB009BDAB2C4
:103E4C0004EB8202D16801919A1C0133DBB204EBC2
:103E5C0083030092D3F80CB001F00303012B20D0A4
:103E6C00022B13D083464846FFF764FB08B1009B36
:103E7C00A36059464046FFF742FBA368626803F50E
:103E8C0080739B1AACE79DF80000D0E7BDF80630B4
:103E9C00C3F3891303334FEA1B4B02EB93030093D9
:103EAC00E1E7BDF80430C3F383134FEA1B4B134413
:103EBC00F5E7AD0545F006019EE700BFF8140020BC
:103ECC00064B074810B500221A70FFF79AFD0446FE
:103EDC0010B90448FFF702FE204610BDF81400206C
:103EEC0088610000B076000030B50A4C71B10A4A06
:103EFC000A49121BD20800239A4201D1002030BD7E
:103F0C0031F82350854202D00133F5E7034654F8CB
:103F1C003300F4E7E8600000786100000000002046
:103F2C00094B013903EBC000032909D8DFE801F084
:103F3C000A020406042070470079704740797047E4
:103F4C000020704702207047E860000070470000B6
:103F5C00034BD3E90130C31A58425841704700BF94
:103F6C00F81400202DE9F04385B0FFF7F1FF05466A
:103F7C00002840F0E280724CC4F81804BFF34F8F55
:103F8C00A3680093DBB2033304EB83006946FFF7AD
:103F9C00F1FE009B18B1D4F81824002A5CD0DAB2D8
:103FAC009F1C013304EB8202DBB204EB8303D26867
:103FBC00DB68029302F00303022B0192009756D1A7
:103FCC00BDF806305F48C3F389184646502E28BF0B
:103FDC00502666F38F1306F10801ADF80630FFF793
:103FEC0028FD0546002800F09380FFF751FD0023C3
:103FFC0001A908222846FFF75DFDFB43DBB2013324
:10400C00F9B20331B6EB830F4FEA830904EB81015C
:10401C002AD908234A46A6EB09062846FFF74AFD8B
:10402C00F6B2494909F10803324608F1030828465B
:10403C0007EB9807FFF73EFD0097D4F81834D4F837
:10404C001064002B53D02846FFF726FDFFF780FFA6
:10405C0080F00100C5B203E062689A4292D8A26077
:10406C00284605B0BDE8F08308233246DDE7012B76
:10407C004ED1BDF804303348C3F38311062928BF51
:10408C00062161F38913023101F00F018900ADF8AB
:10409C000430FFF7CEFC0546002839D0FFF7F8FCBA
:1040AC000023082201A92846FFF704FD0026BDF8CD
:1040BC000420C2F38312B300964203F10803BCD26E
:1040CC0000994A1CC9B20331009204EB810104220D
:1040DC002846FFF7EFFC0136E9E7F3685B7923B17B
:1040EC00336829461B6830469847F3681E68002ED3
:1040FC00F3D12846FFF7D0FC3046FEF767FFD4F823
:10410C0018340BB9009BA3600020FEF761FF9DE7FC
:10411C00D4F8104454B90D4B0D480E49C01AC008C0
:10412C00000440F0020000F05FF88FE7236820469F
:10413C009B689847E3681C68ECE7002590E700BF94
:10414C00F81400208861000004150020E8600000CD
:10415C0018610000997600002DE9F34704460E46DD
:10416C00924601A9012218469946FFF721FE1C4FE1
:10417C0010B3019D4FF00008AA1CC84508EB0201C2
:10418C0025D118480021FFF797F980F3100000049F
:10419C0040EA1440E4006B1C04F03804DBB2EDB2CE
:1041AC0044F0010407EB8303033544EA881444EA22
:1041BC008624D86047F825403B781BB1FFF7D2FE28
:1041CC000028FBD1FFF7C2FE02B0BDE8F087C9B2F0
:1041DC0007EB81015AF82830CB6008F10108CCE7D5
:1041EC00F81400201419002000231A46FFF7B4BF5E
:1041FC0007B50123019201AAFFF7AEFF03B05DF8EA
:10420C0004FB07B5CDE9002302236A46FFF7A4FFA0
:10421C0003B05DF804FB1FB5CDE90123069B0393A6
:10422C0001AA0323FFF798FF05B05DF804FB1FB547
:10423C00CDE90023069B0293079B03936A46042354
:10424C00FFF78AFF05B05DF804FB7FB5CDE90123CC
:10425C00089B0393099B04930A9B059301AA0523CE
:10426C00FFF77AFF07B05DF804FB00002DE9F74378
:10427C000446D01C8846164601A900228008FFF788
:10428C0097FD254D80B3019FB81C0190C0B2C0F5BD
:10429C008073B6EB830F00F103004FEA830905EB43
:1042AC00800028D83246414601F0D8FA1B4800213C
:1042BC00FFF702F980F310007B1CDBB205EB8303E4
:1042CC00220C42EA0042DA60FFB2E300033703F04B
:1042DC00380343F0020343EA865255F8273003F4BF
:1042EC007C13134345F827302B787BB9FFF72EFE50
:1042FC0003B0BDE8F0834A46414601F0AFFAA6EBA5
:10430C00090208EB090105F10C00CDE7FFF72AFEC5
:10431C000028FBD1EAE700BFF81400201419002094
:10432C0030B50F4CD4F810240023114639B9C168AC
:10433C000B7152B9C4F810040A60184630BDC96834
:10434C000D799D4206D00968F0E7D26814680C60BC
:10435C001060F2E701330A2BE7D14FF0FF33ECE7A3
:10436C00F814002038B5084B0125D3F810441D7003
:10437C0004B938BDE3685D71236820465B689847D3
:10438C00E3681C68F4E700BFF814002007B5034687
:10439C000846197A052911D05B7A2BB1094A0A49CA
:1043AC000190FFF721F9019808490190FFF71CF9DA
:1043BC00019803B05DF804EBFFF70BB9002AF8D0B5
:1043CC00F2E700BFBC760000D4770000A1790000B2
:1043DC0030B5C38885B004460D4633B1144A0092FB
:1043EC001449154A2846FFF7FFF8217A05291DD0F4
:1043FC00637A4BB1A088FFF793FD104B104953F82B
:10440C0020202846FFF7F0F8227A0E4BA08853F8AC
:10441C00222003920021FFF767FD039A0A49034605
:10442C00284605B0BDE83040FFF7DEB805B030BD1A
:10443C00BC760000C9760000C17600004877000009
:10444C00D47700006C770000E17600002DE9F04392
:10445C0085B01F460C9D002395F80C902B730646D7
:10446C000C46904629463846FFF7B2FFB8F1060FC6
:10447C0009D8DFE808F00412181F28334000314631
:10448C002846FFF7B1F8002229463846FFF77EFF91
:10449C0085F80C9005B0BDE8F083226831462846BB
:1044AC00FFF7A2F8EFE7D4E9002331462846FFF7DF
:1044BC009BF8E8E7A36800933146D4E9002328462B
:1044CC00FFF792F8DFE7E3680193A36800933146A6
:1044DC00D4E900232846FFF787F8D4E72369029331
:1044EC00E3680193A36800933146D4E9002328467E
:1044FC00FFF77AF8C7E76369039323690293E368CC
:10450C000193A36800933146D4E900232846FFF7B2
:10451C006BF8B8E708292DE9F74F80460E46174689
:10452C001C463DD800251B7B257321461046019364
:10453C00FFF74EFFDFF88CA0DFF88CB0AE4232D91B
:10454C0018F8052059462046FFF74EF80135082D7E
:10455C00F4D11B49DFF874A0DFF874B02046FFF7E4
:10456C0043F84FF000094E4524D918F809507E2D18
:10457C001ED8284601F0EEF8002814BF2A462E2239
:10458C0059462046FFF730F809F10109B9F1080F37
:10459C00E9D1012221463846FFF7F8FE019B23732F
:1045AC0003B0BDE8F08F51462046FFF71DF8CDE76C
:1045BC002E22E5E751462046FFF716F8E4E700BF48
:1045CC00F5760000F1760000EB760000F376000043
:1045DC00F7760000D0E9012393423FBF026842F80E
:1045EC0023100133836034BF00200420704730B5A2
:1045FC0085B0144601AA1D4600F06EF820B92A4673
:10460C00214601A800F022F805B030BD38B50C4A9F
:10461C000C4B0D499B1ADB081B048268054643F0C2
:10462C000300FFF7E5FD0024AB68A34200D838BDBA
:10463C002B68204653F8241000F0D2F80134F3E72D
:10464C00E860000038610000807700002DE9FF472A
:10465C00D0E90198156804460E4617460DF10C0A70
:10466C009DB1CDF800A033460DF10B0241464846F2
:10467C00039500F063F848B920689DF80B30826808
:10468C0003F0BF032AB9802B05D00B2004B0BDE882
:10469C00F087002BF9D14146FFF79CFF0028F5D19C
:1046AC009DF80B30039A03F07F03402BA5EB02011E
:1046BC0004D13B6813445B1B3B60E7E72368D3E9F9
:1046CC000130984206D0164409F1080908F118087F
:1046DC000D46C5E70420D9E70B682F2B30B518D948
:1046EC0000F10C052424303BB3FBF4F3013305EB50
:1046FC008304546004EBC30410609460C0E900535D
:10470C001825002205FB03448260201A086010461D
:10471C0030BD0420FCE738B504461546426808460F
:10472C0029B12B68934206D3216801F097F863688E
:10473C002B60002038BD0420FCE70000F0B5059F7D
:10474C003C68022C01D80920F0BD1C7804F0070449
:10475C00072C08BF05240C701C7824F03F0414703F
:10476C001D785E780E7215F0100FD7F800E026D089
:10477C009C78DA1C4FF0030C15F0080529D00CF1CD
:10478C00010CF445DFD812F8013B4B704D787319CE
:10479C00234463447345D6D8F6B194463244C1F8E9
:1047AC000CC00DB14A602A44002C08BF0022C0E99D
:1047BC0000240A4A48610A6100203B60C4E7BEF14C
:1047CC00050FC0D9D3F802409A1D24BA4FF0060C3D
:1047DC00D2E74D704D60D9E7B446E0E723470000BF
:1047EC0013B5214B0C4621495B1ADB081B0402460E
:1047FC001F4943F003000190FFF7FAFC1D4B227890
:10480C00019853F822201C49FFF7F2FC63680198C9
:10481C0043B11A49FFF7E8FC019862786168FFF729
:10482C0025FD0198E3684BB115490190FFF7DCFCBD
:10483C000198227AE168FFF719FD01982269114B62
:10484C009A420FD163691A6832B15A680E4902B0A4
:10485C00BDE81040FFF7CCBC0C4902B0BDE81040DD
:10486C00FFF7C2BC02B010BD40610000E860000060
:10487C00B77700009C780000CF7700005E670000DF
:10488C00D777000023470000DD770000F6770000A3
:10489C0000210184C0F81210C182102201F014B85A
:1048AC00F7B50C460546FFF7F3FF22782A70B4F8EB
:1048BC0001305BBA6B80E7782F71606800BAA86032
:1048CC00217A29731FFA83FCC3F30723667A6E736C
:1048DC0083EA0C035A40668982F08802D2B276BA17
:1048EC0097422E8208D1030C83EA1063434083EA7B
:1048FC001023DBB2994209D04448454B4549C01AB4
:10490C00C008000440F00200FFF76EFC237BE12B93
:10491C004ED1637B1B09AB74627B02F00F02EA740D
:10492C00A67BF600AE82E27B1209AA75E27B012B14
:10493C0002F00F02EA7567D110231E446F464FF048
:10494C00000CB34202D1002003B0F0BDC7E900CC8B
:10495C002EDA0F2B2CD9E05C8DF80000591C89B293
:10496C0050B3FE282AD08E4222DD0F2920D9625C5A
:10497C00FF2A1FD1CA1C96421ADB2144B1F8012030
:10498C0052BA92B2FE2A13D904339BB2ADF802206C
:10499C003AB11A4496420BDB0F2B09D923440193ED
:1049AC0093B202280CD9FE280ED1BDF80220CAB150
:1049BC000B20C9E70233E8E70B46F6E70023F4E7E0
:1049CC00BDF80220032AF3D12A8C298B91420FD0F7
:1049DC00E96901EBC20E97E8030001328EE803008F
:1049EC002A8402E008B1FE28EED1002BA9D1AAE757
:1049FC00074B06480849C01AC008000440F00200E2
:104A0C00FFF7F2FB04209FE706209DE748610000BA
:104A1C00E8600000BC780000EE7800002DE9F0475B
:104A2C00264B274C2749284FDFF8BC80DFF8BC9079
:104A3C00E41AE4082404054644F003042046FFF776
:104A4C00D3FB2A8C21492046FFF7D2FB00262B8C66
:104A5C009E4201D3BDE8F087EB69394613F8362046
:104A6C002046FFF7C5FBEB6913F83630032B4FEAF2
:104A7C00C60A06D8013B022B1CD8DFE803F0081548
:104A8C001700FD2B14D0FE2B16D0494600E0104920
:104A9C002046FFF7A9FBEB690E49534420465A8880
:104AAC00FFF7A6FB0136D2E70B49F1E70B49EFE71D
:104ABC004146EDE70A49EBE70A49E9E7E8600000FF
:104ACC004861000027790000557900003C7900000E
:104ADC0068790000AF7900007579000084790000D6
:104AEC009D790000A4790000917900007178000094
:104AFC0010B50446002852D0002950D0002A4ED0C0
:104B0C00A3688088002B2CD000284AD0B0F5807F79
:104B1C0034BF052307230344A0899BB228B1B0F509
:104B2C00807F8CBF023301339BB2108898423AD3FA
:104B3C00138023780B7063784B7063881B0A8B701F
:104B4C006388CB70A36873B90B1DA089002238B1A0
:104B5C00B0F5807F1ED9000A1870A18959701046D3
:104B6C0010BD0423D7E7A288FF2A10D900230B71AC
:104B7C00A3881B0A4B71A2888A71CB1DA288A168DD
:104B8C00184600F06BFEA28803461344DDE74B1D6C
:104B9C000A71F3E701D11A70E1E71870DFE70E2014
:104BAC00DEE70720DCE70420DAE7A0B199B1012A9F
:104BBC0013D9022A4FF0000318BF023A436018BF02
:104BCC00828003608360838818BF8160CB5A5BBA94
:104BDC000380002070470E207047092070470000AA
:104BEC00104A114B13B59B1A0446DB081B0443F007
:104BFC00030022880D490190FFF7FAFAA368019887
:104C0C0053B10B49FFF7F0FAA288A168019802B0E2
:104C1C00BDE81040FFF72ABB064902B0BDE81040C2
:104C2C00FFF7E2BAE860000050610000D2790000A2
:104C3C00E6790000F47900002DE9F041044686B0D5
:104C4C0000285CD00368002B59D0002957D0A2F162
:104C5C000F039BB24FF6EF70834252D8E388002BC0
:104C6C0051D00023A3800B885BBA23818B781B095E
:104C7C00A3738B7803F00F03E373B1F803305BBAC3
:104C8C006381B1F80530D51F5BBAA381CF1DADB2DE
:104C9C004FF014085DB9A27B2368032A9B7C2AD1B0
:104CAC00062B14BF0B20002006B0BDE8F0810DF1DF
:104CBC000202394601A8ADF8025000F079FA00283A
:104CCC00F2D1BDF80230B4F804E01F44EB1A9DB2E7
:104CDC00E388734517D00DF1040CBCE80F0026686F
:104CEC0008FB0E660FC60EF1010EDCF800303360C7
:104CFC00A4F804E0CEE7022A07D1042BD1E70E205A
:104D0C00D2E70920D0E70420CEE70B20CCE770B522
:104D1C008288056800231426D8B2904201D3002063
:104D2C0005E006FB0050013384898C42F4D170BD40
:104D3C0013B56C4684E806001946FFF7E8FF0346F6
:104D4C0030B194E8030083E80300002002B010BDEA
:104D5C000520FBE71B4A1C4B73B59B1ADB0804466A
:104D6C001B0443F0030019490190FFF73DFA228917
:104D7C0017490198FFF73CFAE37BA27B1549019890
:104D8C00FFF73FFA628914490198FFF731FAA289BB
:104D9C0012490198FFF72CFAA28811490198FFF7E4
:104DAC0027FA14260023A288D8B2824203F1010507
:104DBC0001D802B070BD216806FB001100F076FA34
:104DCC002B46F0E7E8600000586100001F7A0000F5
:104DDC00437A00004E7A0000667A00006F7A000079
:104DEC00787A00001022002100F06EBD7FB5FA2BFE
:104DFC000E4615468DF807302AD8FA230DF10E020F
:104E0C002946ADF80E30FFF773FE0446E8B99DF85D
:104E1C000E100DF107032A462846FCF709FA044642
:104E2C0098B99DF8072029463046FFF7BEFE044688
:104E3C0058B93046FFF7D4FE338846F682229342A7
:104E4C0008D0B3F5104F18BF0324204604B070BD32
:104E5C000424FAE70524F8E783890233FF2B02D8F0
:104E6C00DBB2FFF7C3BF06207047F8B5054608460E
:104E7C00A9681C4671B11B88AE889F1997420BDC40
:104E8C003246184400F0EAFC2388AA881344238095
:104E9C000020F8BD0E20FCE70420FAE730B5164BD5
:104EAC00164C1749E41AE4082404C7B044F0030074
:104EBC00FFF79AF903A8FFF795FFA4238DF80D309F
:104ECC004FF48063ADF80E300E4B05930723ADF80D
:104EDC0010304FF48073ADF8183007AA02236946DE
:104EEC0003A8FFF783FF0849054644F00500FFF7C8
:104EFC007BF9284647B030BDE860000060610000D7
:104F0C00D07A00009A7B0000A179000070B5184B94
:104F1C00184CE41A4EF20313E4089842C6B0054646
:104F2C004FEA044405D00246134944F00300FFF74E
:104F3C005FF9124E2B0A03A833707570FFF752FFFE
:104F4C00A4238DF80D300C23ADF80E3007AA0223E4
:104F5C00694603A8ADF810300596FFF77DFF0849A8
:104F6C00054644F00500FFF73FF9284646B070BDF2
:104F7C00E860000060610000F77A0000B0190020C2
:104F8C00A179000008B50848084B0949C01AC008A7
:104F9C00000440F00300FFF727F9BDE808404EF28B
:104FAC000310FFF7B3BF00BF60610000E8600000B2
:104FBC00197B0000F0B5334B334E3449F61AF60822
:104FCC00D9B036040024074646F00300ADF806407D
:104FDC00FFF70AF905A8FFF705FFB0238DF8153088
:104FEC0019AA0F2302A905A8ADF81640ADF8203078
:104FFC00FFF732FF044688B90DF10603402209A9D8
:10500C0002A8FFF732FF044640B9BDF82450BDF8A2
:10501C000C306DBAADB29D4203D20B24204659B070
:10502C00F0BDED1AADB2BDF8062055B909A9384648
:10503C00FFF702FE1649044646F00500FFF7D4F8C8
:10504C00ECE70F2D2B46ADF8162028BF0F2319AA1D
:10505C0002A905A8ADF82030FFF7FEFE0446002893
:10506C00DCD10DF10603402209A902A8FFF7FDFED1
:10507C0004460028D2D1BDF80C30AB42CDD8EB1A87
:10508C009DB2D0E7E860000060610000407B00004A
:10509C00A17900002DE9F043404B414DED1AED088C
:1050AC00CBB02D04002407460E4645F003003D49C5
:1050BC00ADF806409046FFF797F807A8FFF792FE69
:1050CC00B0238DF81D300BAA022304A907A8ADF854
:1050DC001E40ADF82830FFF7BFFE0446B8B91FFAE2
:1050EC0088F80DF106034246314604A8FFF7BDFED1
:1050FC00044660B9B6F80090BDF8143099FA99F9E5
:10510C0009F102091FFA89F9994504D20B242046AA
:10511C004BB0BDE8F083A9EB03091FFA89F9BDF880
:10512C000630B9F1000F12D1ADF80C301E4B0296BF
:10513C001B8802AA5BBA06CA9BB23846FFF7F8FD79
:10514C001A49044645F00500FFF74EF8DFE7ADF8C5
:10515C001E307B89F22B28BFF2234B4528BF4B46D0
:10516C000BAA04A907A8ADF82830FFF775FE044672
:10517C000028CCD10DF106034246314604A8FFF7B6
:10518C0074FE04460028C2D1BDF814304B45BDD87E
:10519C00A9EB03031FFA83F9C1E700BFE860000025
:1051AC0060610000657B0000B0190020A17900004F
:1051BC001388012B70B505460C46164601D80920FC
:1051CC0070BD1422002100F07FFB2378AB74637850
:1051DC00FF2B0CD13388032BF1D963885BBA9AB2BD
:1051EC00FE2A2B8204F1040303D80B20E8E72B8260
:1051FC00A31C2A8A1C1B14443288A4B2A242DED3FC
:10520C003480A97C2A8A052914D80329EDD9062AC9
:10521C00EBD1188840BA82B2A88143F6FF70824263
:10522C00E3D0B2F5804F09D2002ADED0B2F57C5F14
:10523C000CD1DAE70629D8D1082AE9E74EF2031097
:10524C00824210D84EF201108242CED8052919D0D4
:10525C00062920D004290AD002331A78AA735B7865
:10526C00EB730020ACE74FF6FF708242E0E75A8800
:10527C0052BA92B2AA600433053A4FF6F9718A42D7
:10528C00EBD9B2E75A8852BA92B2AA600433033A05
:10529C004FF6FB71F3E7D3F8022012BAAA60A2F51D
:1052AC007F42FF3A063312F1011FE9E737B5274B6E
:1052BC00274CE41AE4080D4624040246254944F020
:1052CC0003000190FEF794FFAA7C0198052A2FD0C9
:1052DC00062A30D0042A30D11F49FEF789FF0198E5
:1052EC002A8A1E490190FEF783FFAA891C4901985E
:1052FC00FEF77EFFAA681B490198FEF779FFAA7B8F
:10530C0019490198FEF774FF0198EA7B1749FEF7DB
:10531C006FFF2B68019893B1AA881549FEF768FFB7
:10532C00AA882968019803B0BDE83040FEF79EBFFB
:10533C0010490190D1E71049FBE71049F9E71049F2
:10534C0003B0BDE83040FEF74FBF00BFE86000007F
:10535C0068610000A17B0000B57B00003F7C000071
:10536C00557C00006E7C0000857C0000A47C000055
:10537C00C47C0000D67B0000FE7B0000287C000073
:10538C00EB7C00000369C26893429CBF81685B1888
:10539C00013B981A70472DE9F041D0E9028405468B
:1053AC00A8EB04064068964220440F46144404D9E6
:1053BC0000F054FAEC60BDE8F0813246A4EB08042E
:1053CC0000F04CFA68682246B919F1E72DE9F84368
:1053DC00C5680646894617464FF000083369B4681D
:1053EC0070689D4228BF1B19641BBC4203F1FF333C
:1053FC0028BF3C465B1B9C4228BF1C4649462844A0
:10540C00224600F02BFAB3682544AB4208BF0025B6
:10541C003F1BA044A144F560E0D14046BDE8F883B1
:10542C0010B5114C114AA2610223C4E90433104B8C
:10543C00E361A2644FF400730E4A0F492362E264E5
:10544C0000231022E01DA3626362E362A36563651F
:10545C00E365226500F0BAF90849204600F0B6F978
:10546C002023A37110BD00BFB4190020267D0000BD
:10547C003C1A00202C1A00202F7D0000337D0000E8
:10548C00F8B5184B182400FB044504FB00300F46FC
:10549C00C46A012C16461D440FD0022C1AD0F4B944
:1054AC002846FFF76FFF864205D832463946284614
:1054BC00FFF771FF34462046F8BD2846FFF762FF20
:1054CC008642344628BF0446224639462846FFF712
:1054DC0062FFF0E72846BDE8F840FFF777BF0024ED
:1054EC00E9E700BFB419002070B50B4B1B780446DC
:1054FC000D4616460BB9FFF793FF0020FDF766FD2E
:10550C00324629462046FFF7BBFF04460020FDF734
:10551C005FFD204670BD00BFB419002040F2C001F1
:10552C00C2F20001096800F000B880B50B468DF896
:10553C0003000DF103000121012200F01FF89DF87A
:10554C000310002808BF411E084608BD38B540F2BC
:10555C00C001C2F2000104460D6800F04FF902468A
:10556C002846214600F0ACFD01301EBF0A20BDE8E4
:10557C003840FFF7D3BF4FF0FF3038BDF8B51D46AC
:10558C0017460C460646184600F080FD002803D44A
:10559C0007FB04F2A24201D20020F8BD2846314696
:1055AC0000F08EFDB0FBF4F0F8BD0000002B35D1FF
:1055BC0029B9B0FBF2FC0CFB120260467047914219
:1055CC0015D22DE9F041B2FA82F39A409940D3F109
:1055DC00200C30FA0CFC51EA0C01984000F04EF80B
:1055EC00280036FA03F200210023BDE8F081F0B563
:1055FC00B1FBF2FC0CFB1211B2FA82F39A40994007
:10560C00D3F1200630FA06F63143984000F036F814
:10561C00614628003200DA400023F0BDF3B5B3FA3E
:10562C0083FC49085FEA300013FA0CF3DCF1200428
:10563C0032FA04F423430CB41A0000F01FF80CBC2B
:10564C0033FA0CF3DCF11F0C35FA0CF518BF013DE5
:10565C0003BCA5FB026705FB0377801BB941904295
:10566C0071EB030C05D3821A71EB0303681C002148
:10567C00F0BD02000B0028000021F0BD940D4FF688
:10568C00C2752D02B5FBF4F4D60A013604FB04F501
:10569C00A5FB0656F64306EB0416550832BF002749
:1056AC007708013505FB1677A6FB07477F0807EB44
:1056BC00C63714001500E7FB02457F1B4D1C040088
:1056CC00E7FB014505FB1206A64284BF013DB61857
:1056DC00964224BF0135B61A704700BF41F63C41D3
:1056EC00C2F200010868002802BF40F2A400C2F216
:1056FC00000008607047002A04BF002070478446F1
:10570C00097848B2002844BF6FF001007047BCF123
:10571C00000F18BFCCF800100021C3E900110028BD
:10572C0018BF012070477F298EBF6FF001000170F8
:10573C000120704741F63C42C2F200021368002B74
:10574C0002BF40F2A403C2F2000313605A689268CD
:10575C00126810470921FFF7EDBF7F2884BF002096
:10576C00704747F65072C0F20002515C47F6D062A7
:10577C00C0F20002105C08407047A0F161011A29C8
:10578C0038BF20387047A0F141011A2938BF2030AA
:10579C0070477F2884BF0020704747F65072C0F2D4
:1057AC000002515C47F6D062C0F20002105C084067
:1057BC007047A0F161011A2938BF20387047A0F159
:1057CC0041011A2938BF2030704700000246F0B45E
:1057DC004FF00137FB0151F8044BE51BA5431D406D
:1057EC0002D142F8044BF6E70439F0BC11F8013B46
:1057FC0002F8013B002BF9D1704700BF411C820716
:10580C000CD010F8012B3AB3820707D010F8012BFB
:10581C0012B3820702D010F8012BEAB14FF0013C11
:10582C0050F8042BCCFA52F37BB950F8042BCCFA79
:10583C0052F353B950F8042BCCFA52F32BB950F85D
:10584C00042BCCFA52F3002BEAD004381BBAB3FA6F
:10585C0083F300EBD3000130401A704772B38446D7
:10586C0090EA01039B0721D1830709D011F8013B72
:10587C0000F8013B013A20D08307F7D100E08446C1
:10588C00202A0AD32DE9F007B1E8F807A0E8F807B9
:10589C00203A202AF8D2BDE8F007042A06D351F8A2
:1058AC00043B40F8043B043A042AF8D22AB111F81C
:1058BC00013B00F8013B013AF9D16046704700BF4B
:1058CC0000220B0011001A0084465AB3830704D03F
:1058DC0000F8011B013AF9D124E0C9B241EA0121D7
:1058EC0041EA0141202A11D3203A2DE9F0030B465D
:1058FC000C460D460E460F4688468946A0E8FA032C
:10590C00203AFBD2BDE8F00320320BD0042A05D399
:10591C0040F8041B043A05D0042AF9D200F8011B04
:10592C00013AFBD160467047042A08D350F804CBE7
:10593C000B689C4506D1043A0431032AF6D8A2B16F
:10594C00D0F800C0086880EA0C0191FAA1F1B1FA14
:10595C0081F1B2EBD10F08D901F038012CFA01F228
:10596C00C840C0B2D1B2081A70470020704700B5C9
:10597C0000291CBF0278002A01D1002000BDD0F8FC
:10598C0000E00429034609D34FF0013CCCFA5EF247
:10599C0022B953F804EF04390329F7D8181A4FF039
:1059AC000132C2FA5EF292FAA2F2B2FA82F2B1EBD0
:1059BC00D20F88BFD108084400BD10B582B0044690
:1059CC0000698DF8071078B1D4E900239A4231D2DE
:1059DC006269531C63618154D4E90501884229D161
:1059EC00204600F02CF825E0E06850B1D4E9002CFA
:1059FC0062451FD2531CB3EB0C0318BF0B468354E8
:105A0C0018E0A06858B1D4E9002C624512D2531C9E
:105A1C00B3EB0C0318BFCBB240F822300AE0236A78
:105A2C0043B1D4E90001884204D20DF107012046AC
:105A3C000122984720680130206002B010BD10B5DB
:105A4C004269002A08BF10BD0446036A002B1CBF24
:105A5C00216998470020606110BD70B5012AB8BF5C
:105A6C0070BD0C460546561C28462146FFF7A5FF7F
:105A7C00013E012EF8D870BDCB0648BF7047890592
:105A8C004CBF30212021FFF7E8BF70B514460D46FE
:105A9C000646FFF723FE014630462A462346BDE85C
:105AAC00704000F000B82DE9F04F03AF8DB047F80F
:105ABC003C3C91460E46044600F000FB0546EB4686
:105ACC00073020F00700ADEB0008C546A7F1380AF7
